{
  "abi": [
    {
      "inputs": [
        {
          "internalType": "string",
          "name": "_name",
          "type": "string"
        },
        {
          "internalType": "string",
          "name": "_symbol",
          "type": "string"
        }
      ],
      "stateMutability": "nonpayable",
      "type": "constructor"
    },
    {
      "inputs": [],
      "name": "ApprovalCallerNotOwnerNorApproved",
      "type": "error"
    },
    {
      "inputs": [],
      "name": "ApprovalQueryForNonexistentToken",
      "type": "error"
    },
    {
      "inputs": [],
      "name": "ApprovalToCurrentOwner",
      "type": "error"
    },
    {
      "inputs": [],
      "name": "ApproveToCaller",
      "type": "error"
    },
    {
      "inputs": [],
      "name": "BalanceQueryForZeroAddress",
      "type": "error"
    },
    {
      "inputs": [],
      "name": "MintToZeroAddress",
      "type": "error"
    },
    {
      "inputs": [],
      "name": "MintZeroQuantity",
      "type": "error"
    },
    {
      "inputs": [],
      "name": "OwnerQueryForNonexistentToken",
      "type": "error"
    },
    {
      "inputs": [],
      "name": "TransferCallerNotOwnerNorApproved",
      "type": "error"
    },
    {
      "inputs": [],
      "name": "TransferFromIncorrectOwner",
      "type": "error"
    },
    {
      "inputs": [],
      "name": "TransferToNonERC721ReceiverImplementer",
      "type": "error"
    },
    {
      "inputs": [],
      "name": "TransferToZeroAddress",
      "type": "error"
    },
    {
      "inputs": [],
      "name": "URIQueryForNonexistentToken",
      "type": "error"
    },
    {
      "anonymous": false,
      "inputs": [
        {
          "indexed": true,
          "internalType": "address",
          "name": "owner",
          "type": "address"
        },
        {
          "indexed": true,
          "internalType": "address",
          "name": "approved",
          "type": "address"
        },
        {
          "indexed": true,
          "internalType": "uint256",
          "name": "tokenId",
          "type": "uint256"
        }
      ],
      "name": "Approval",
      "type": "event"
    },
    {
      "anonymous": false,
      "inputs": [
        {
          "indexed": true,
          "internalType": "address",
          "name": "owner",
          "type": "address"
        },
        {
          "indexed": true,
          "internalType": "address",
          "name": "operator",
          "type": "address"
        },
        {
          "indexed": false,
          "internalType": "bool",
          "name": "approved",
          "type": "bool"
        }
      ],
      "name": "ApprovalForAll",
      "type": "event"
    },
    {
      "anonymous": false,
      "inputs": [
        {
          "indexed": true,
          "internalType": "address",
          "name": "mintedTo",
          "type": "address"
        },
        {
          "indexed": true,
          "internalType": "uint256",
          "name": "tokenIdMinted",
          "type": "uint256"
        },
        {
          "indexed": false,
          "internalType": "string",
          "name": "uri",
          "type": "string"
        }
      ],
      "name": "TokensMinted",
      "type": "event"
    },
    {
      "anonymous": false,
      "inputs": [
        {
          "indexed": true,
          "internalType": "address",
          "name": "from",
          "type": "address"
        },
        {
          "indexed": true,
          "internalType": "address",
          "name": "to",
          "type": "address"
        },
        {
          "indexed": true,
          "internalType": "uint256",
          "name": "tokenId",
          "type": "uint256"
        }
      ],
      "name": "Transfer",
      "type": "event"
    },
    {
      "inputs": [
        {
          "internalType": "address",
          "name": "to",
          "type": "address"
        },
        {
          "internalType": "uint256",
          "name": "tokenId",
          "type": "uint256"
        }
      ],
      "name": "approve",
      "outputs": [],
      "stateMutability": "nonpayable",
      "type": "function"
    },
    {
      "inputs": [
        {
          "internalType": "address",
          "name": "owner",
          "type": "address"
        }
      ],
      "name": "balanceOf",
      "outputs": [
        {
          "internalType": "uint256",
          "name": "",
          "type": "uint256"
        }
      ],
      "stateMutability": "view",
      "type": "function"
    },
    {
      "inputs": [
        {
          "internalType": "uint256",
          "name": "tokenId",
          "type": "uint256"
        }
      ],
      "name": "getApproved",
      "outputs": [
        {
          "internalType": "address",
          "name": "",
          "type": "address"
        }
      ],
      "stateMutability": "view",
      "type": "function"
    },
    {
      "inputs": [
        {
          "internalType": "address",
          "name": "owner",
          "type": "address"
        },
        {
          "internalType": "address",
          "name": "operator",
          "type": "address"
        }
      ],
      "name": "isApprovedForAll",
      "outputs": [
        {
          "internalType": "bool",
          "name": "",
          "type": "bool"
        }
      ],
      "stateMutability": "view",
      "type": "function"
    },
    {
      "inputs": [
        {
          "internalType": "address",
          "name": "to",
          "type": "address"
        },
        {
          "internalType": "string",
          "name": "uri",
          "type": "string"
        }
      ],
      "name": "mintTo",
      "outputs": [
        {
          "internalType": "uint256",
          "name": "",
          "type": "uint256"
        }
      ],
      "stateMutability": "nonpayable",
      "type": "function"
    },
    {
      "inputs": [],
      "name": "name",
      "outputs": [
        {
          "internalType": "string",
          "name": "",
          "type": "string"
        }
      ],
      "stateMutability": "view",
      "type": "function"
    },
    {
      "inputs": [
        {
          "internalType": "uint256",
          "name": "tokenId",
          "type": "uint256"
        }
      ],
      "name": "ownerOf",
      "outputs": [
        {
          "internalType": "address",
          "name": "",
          "type": "address"
        }
      ],
      "stateMutability": "view",
      "type": "function"
    },
    {
      "inputs": [
        {
          "internalType": "address",
          "name": "from",
          "type": "address"
        },
        {
          "internalType": "address",
          "name": "to",
          "type": "address"
        },
        {
          "internalType": "uint256",
          "name": "tokenId",
          "type": "uint256"
        }
      ],
      "name": "safeTransferFrom",
      "outputs": [],
      "stateMutability": "nonpayable",
      "type": "function"
    },
    {
      "inputs": [
        {
          "internalType": "address",
          "name": "from",
          "type": "address"
        },
        {
          "internalType": "address",
          "name": "to",
          "type": "address"
        },
        {
          "internalType": "uint256",
          "name": "tokenId",
          "type": "uint256"
        },
        {
          "internalType": "bytes",
          "name": "_data",
          "type": "bytes"
        }
      ],
      "name": "safeTransferFrom",
      "outputs": [],
      "stateMutability": "nonpayable",
      "type": "function"
    },
    {
      "inputs": [
        {
          "internalType": "address",
          "name": "operator",
          "type": "address"
        },
        {
          "internalType": "bool",
          "name": "approved",
          "type": "bool"
        }
      ],
      "name": "setApprovalForAll",
      "outputs": [],
      "stateMutability": "nonpayable",
      "type": "function"
    },
    {
      "inputs": [
        {
          "internalType": "bytes4",
          "name": "interfaceId",
          "type": "bytes4"
        }
      ],
      "name": "supportsInterface",
      "outputs": [
        {
          "internalType": "bool",
          "name": "",
          "type": "bool"
        }
      ],
      "stateMutability": "view",
      "type": "function"
    },
    {
      "inputs": [],
      "name": "symbol",
      "outputs": [
        {
          "internalType": "string",
          "name": "",
          "type": "string"
        }
      ],
      "stateMutability": "view",
      "type": "function"
    },
    {
      "inputs": [
        {
          "internalType": "uint256",
          "name": "tokenId",
          "type": "uint256"
        }
      ],
      "name": "tokenURI",
      "outputs": [
        {
          "internalType": "string",
          "name": "",
          "type": "string"
        }
      ],
      "stateMutability": "view",
      "type": "function"
    },
    {
      "inputs": [],
      "name": "totalSupply",
      "outputs": [
        {
          "internalType": "uint256",
          "name": "",
          "type": "uint256"
        }
      ],
      "stateMutability": "view",
      "type": "function"
    },
    {
      "inputs": [
        {
          "internalType": "address",
          "name": "from",
          "type": "address"
        },
        {
          "internalType": "address",
          "name": "to",
          "type": "address"
        },
        {
          "internalType": "uint256",
          "name": "tokenId",
          "type": "uint256"
        }
      ],
      "name": "transferFrom",
      "outputs": [],
      "stateMutability": "nonpayable",
      "type": "function"
    }
  ],
  "devdoc": {
    "events": {
      "Approval(address,address,uint256)": {
        "details": "Emitted when `owner` enables `approved` to manage the `tokenId` token."
      },
      "ApprovalForAll(address,address,bool)": {
        "details": "Emitted when `owner` enables or disables (`approved`) `operator` to manage all of its assets."
      },
      "TokensMinted(address,uint256,string)": {
        "details": "Emitted when tokens are minted via `mintTo`"
      },
      "Transfer(address,address,uint256)": {
        "details": "Emitted when `tokenId` token is transferred from `from` to `to`."
      }
    },
    "kind": "dev",
    "methods": {
      "approve(address,uint256)": {
        "details": "See {IERC721-approve}."
      },
      "balanceOf(address)": {
        "details": "See {IERC721-balanceOf}."
      },
      "getApproved(uint256)": {
        "details": "See {IERC721-getApproved}."
      },
      "isApprovedForAll(address,address)": {
        "details": "See {IERC721-isApprovedForAll}."
      },
      "mintTo(address,string)": {
        "params": {
          "to": "The address to mint the NFT to.",
          "uri": "The URI to assign to the NFT."
        },
        "returns": {
          "_0": "tokenId of the NFT minted."
        }
      },
      "name()": {
        "details": "See {IERC721Metadata-name}."
      },
      "ownerOf(uint256)": {
        "details": "See {IERC721-ownerOf}."
      },
      "safeTransferFrom(address,address,uint256)": {
        "details": "See {IERC721-safeTransferFrom}."
      },
      "safeTransferFrom(address,address,uint256,bytes)": {
        "details": "See {IERC721-safeTransferFrom}."
      },
      "setApprovalForAll(address,bool)": {
        "details": "See {IERC721-setApprovalForAll}."
      },
      "supportsInterface(bytes4)": {
        "details": "See {IERC165-supportsInterface}."
      },
      "symbol()": {
        "details": "See {IERC721Metadata-symbol}."
      },
      "tokenURI(uint256)": {
        "details": "See {IERC721Metadata-tokenURI}."
      },
      "totalSupply()": {
        "details": "Burned tokens are calculated here, use _totalMinted() if you want to count just minted tokens."
      },
      "transferFrom(address,address,uint256)": {
        "details": "See {IERC721-transferFrom}."
      }
    },
    "version": 1
  },
  "evm": {
    "assembly": "    /* \"StoryNFT.sol\":247:1314  contract StoryNFT is ERC721A, IMintableERC721 {... */\n  mstore(0x40, 0x80)\n    /* \"StoryNFT.sol\":386:490  constructor(... */\n  callvalue\n  dup1\n  iszero\n  tag_1\n  jumpi\n  0x00\n  dup1\n  revert\ntag_1:\n  pop\n  mload(0x40)\n  sub(codesize, bytecodeSize)\n  dup1\n  bytecodeSize\n  dup4\n  codecopy\n  dup2\n  add\n  0x40\n  dup2\n  swap1\n  mstore\n  tag_2\n  swap2\n  tag_3\n  jump\t// in\ntag_2:\n    /* \"StoryNFT.sol\":472:477  _name */\n  dup2\n    /* \"StoryNFT.sol\":479:486  _symbol */\n  dup2\n    /* \"@thirdweb-dev/contracts/eip/ERC721A.sol\":1854:1859   */\n  0x02\n    /* \"@thirdweb-dev/contracts/eip/ERC721A.sol\":1854:1867   */\n  tag_7\n    /* \"StoryNFT.sol\":472:477  _name */\n  dup4\n    /* \"@thirdweb-dev/contracts/eip/ERC721A.sol\":1854:1859   */\n  dup3\n    /* \"@thirdweb-dev/contracts/eip/ERC721A.sol\":1854:1867   */\n  tag_8\n  jump\t// in\ntag_7:\n  pop\n    /* \"@thirdweb-dev/contracts/eip/ERC721A.sol\":1877:1884   */\n  0x03\n    /* \"@thirdweb-dev/contracts/eip/ERC721A.sol\":1877:1894   */\n  tag_9\n    /* \"@thirdweb-dev/contracts/eip/ERC721A.sol\":1887:1894   */\n  dup3\n    /* \"@thirdweb-dev/contracts/eip/ERC721A.sol\":1877:1884   */\n  dup3\n    /* \"@thirdweb-dev/contracts/eip/ERC721A.sol\":1877:1894   */\n  tag_8\n  jump\t// in\ntag_9:\n  pop\n    /* \"StoryNFT.sol\":1304:1305  1 */\n  0x01\n    /* \"@thirdweb-dev/contracts/eip/ERC721A.sol\":1904:1917   */\n  0x00\n    /* \"@thirdweb-dev/contracts/eip/ERC721A.sol\":1904:1935   */\n  sstore\n  pop\n    /* \"StoryNFT.sol\":247:1314  contract StoryNFT is ERC721A, IMintableERC721 {... */\n  tag_21\n  swap3\n  pop\n  pop\n  pop\n  jump\n    /* \"#utility.yul\":14:141   */\ntag_15:\n    /* \"#utility.yul\":75:85   */\n  0x4e487b71\n    /* \"#utility.yul\":70:73   */\n  0xe0\n    /* \"#utility.yul\":66:86   */\n  shl\n    /* \"#utility.yul\":63:64   */\n  0x00\n    /* \"#utility.yul\":56:87   */\n  mstore\n    /* \"#utility.yul\":106:110   */\n  0x41\n    /* \"#utility.yul\":103:104   */\n  0x04\n    /* \"#utility.yul\":96:111   */\n  mstore\n    /* \"#utility.yul\":130:134   */\n  0x24\n    /* \"#utility.yul\":127:128   */\n  0x00\n    /* \"#utility.yul\":120:135   */\n  revert\n    /* \"#utility.yul\":146:862   */\ntag_16:\n    /* \"#utility.yul\":200:205   */\n  0x00\n    /* \"#utility.yul\":253:256   */\n  dup3\n    /* \"#utility.yul\":246:250   */\n  0x1f\n    /* \"#utility.yul\":238:244   */\n  dup4\n    /* \"#utility.yul\":234:251   */\n  add\n    /* \"#utility.yul\":230:257   */\n  slt\n    /* \"#utility.yul\":220:275   */\n  tag_24\n  jumpi\n    /* \"#utility.yul\":271:272   */\n  0x00\n    /* \"#utility.yul\":268:269   */\n  dup1\n    /* \"#utility.yul\":261:273   */\n  revert\n    /* \"#utility.yul\":220:275   */\ntag_24:\n    /* \"#utility.yul\":294:307   */\n  dup2\n  mload\n  sub(shl(0x40, 0x01), 0x01)\n    /* \"#utility.yul\":356:366   */\n  dup1\n  dup3\n  gt\n    /* \"#utility.yul\":353:389   */\n  iszero\n  tag_26\n  jumpi\n    /* \"#utility.yul\":369:387   */\n  tag_26\n  tag_15\n  jump\t// in\ntag_26:\n    /* \"#utility.yul\":444:446   */\n  0x40\n    /* \"#utility.yul\":438:447   */\n  mload\n    /* \"#utility.yul\":412:414   */\n  0x1f\n    /* \"#utility.yul\":498:511   */\n  dup4\n  add\n  not(0x1f)\n    /* \"#utility.yul\":494:516   */\n  swap1\n  dup2\n  and\n    /* \"#utility.yul\":518:520   */\n  0x3f\n    /* \"#utility.yul\":490:521   */\n  add\n    /* \"#utility.yul\":486:526   */\n  and\n    /* \"#utility.yul\":474:527   */\n  dup2\n  add\n  swap1\n    /* \"#utility.yul\":542:560   */\n  dup3\n  dup3\n  gt\n    /* \"#utility.yul\":562:584   */\n  dup2\n  dup4\n  lt\n    /* \"#utility.yul\":539:585   */\n  or\n    /* \"#utility.yul\":536:608   */\n  iszero\n  tag_28\n  jumpi\n    /* \"#utility.yul\":588:606   */\n  tag_28\n  tag_15\n  jump\t// in\ntag_28:\n    /* \"#utility.yul\":628:638   */\n  dup2\n    /* \"#utility.yul\":624:626   */\n  0x40\n    /* \"#utility.yul\":617:639   */\n  mstore\n    /* \"#utility.yul\":663:665   */\n  dup4\n    /* \"#utility.yul\":655:661   */\n  dup2\n    /* \"#utility.yul\":648:666   */\n  mstore\n    /* \"#utility.yul\":709:712   */\n  dup7\n    /* \"#utility.yul\":702:706   */\n  0x20\n    /* \"#utility.yul\":697:699   */\n  dup6\n    /* \"#utility.yul\":689:695   */\n  dup9\n    /* \"#utility.yul\":685:700   */\n  add\n    /* \"#utility.yul\":681:707   */\n  add\n    /* \"#utility.yul\":678:713   */\n  gt\n    /* \"#utility.yul\":675:730   */\n  iszero\n  tag_29\n  jumpi\n    /* \"#utility.yul\":726:727   */\n  0x00\n    /* \"#utility.yul\":723:724   */\n  dup1\n    /* \"#utility.yul\":716:728   */\n  revert\n    /* \"#utility.yul\":675:730   */\ntag_29:\n    /* \"#utility.yul\":783:785   */\n  dup4\n    /* \"#utility.yul\":776:780   */\n  0x20\n    /* \"#utility.yul\":768:774   */\n  dup8\n    /* \"#utility.yul\":764:781   */\n  add\n    /* \"#utility.yul\":757:761   */\n  0x20\n    /* \"#utility.yul\":749:755   */\n  dup4\n    /* \"#utility.yul\":745:762   */\n  add\n    /* \"#utility.yul\":739:786   */\n  mcopy\n    /* \"#utility.yul\":830:831   */\n  0x00\n    /* \"#utility.yul\":823:827   */\n  0x20\n    /* \"#utility.yul\":818:820   */\n  dup6\n    /* \"#utility.yul\":810:816   */\n  dup4\n    /* \"#utility.yul\":806:821   */\n  add\n    /* \"#utility.yul\":802:828   */\n  add\n    /* \"#utility.yul\":795:832   */\n  mstore\n    /* \"#utility.yul\":850:856   */\n  dup1\n    /* \"#utility.yul\":841:856   */\n  swap5\n  pop\n  pop\n  pop\n  pop\n  pop\n    /* \"#utility.yul\":146:862   */\n  swap3\n  swap2\n  pop\n  pop\n  jump\t// out\n    /* \"#utility.yul\":867:1429   */\ntag_3:\n    /* \"#utility.yul\":966:972   */\n  0x00\n    /* \"#utility.yul\":974:980   */\n  dup1\n    /* \"#utility.yul\":1027:1029   */\n  0x40\n    /* \"#utility.yul\":1015:1024   */\n  dup4\n    /* \"#utility.yul\":1006:1013   */\n  dup6\n    /* \"#utility.yul\":1002:1025   */\n  sub\n    /* \"#utility.yul\":998:1030   */\n  slt\n    /* \"#utility.yul\":995:1047   */\n  iszero\n  tag_31\n  jumpi\n    /* \"#utility.yul\":1043:1044   */\n  0x00\n    /* \"#utility.yul\":1040:1041   */\n  dup1\n    /* \"#utility.yul\":1033:1045   */\n  revert\n    /* \"#utility.yul\":995:1047   */\ntag_31:\n    /* \"#utility.yul\":1070:1086   */\n  dup3\n  mload\n  sub(shl(0x40, 0x01), 0x01)\n    /* \"#utility.yul\":1135:1149   */\n  dup1\n  dup3\n  gt\n    /* \"#utility.yul\":1132:1166   */\n  iszero\n  tag_32\n  jumpi\n    /* \"#utility.yul\":1162:1163   */\n  0x00\n    /* \"#utility.yul\":1159:1160   */\n  dup1\n    /* \"#utility.yul\":1152:1164   */\n  revert\n    /* \"#utility.yul\":1132:1166   */\ntag_32:\n    /* \"#utility.yul\":1185:1246   */\n  tag_33\n    /* \"#utility.yul\":1238:1245   */\n  dup7\n    /* \"#utility.yul\":1229:1235   */\n  dup4\n    /* \"#utility.yul\":1218:1227   */\n  dup8\n    /* \"#utility.yul\":1214:1236   */\n  add\n    /* \"#utility.yul\":1185:1246   */\n  tag_16\n  jump\t// in\ntag_33:\n    /* \"#utility.yul\":1175:1246   */\n  swap4\n  pop\n    /* \"#utility.yul\":1292:1294   */\n  0x20\n    /* \"#utility.yul\":1281:1290   */\n  dup6\n    /* \"#utility.yul\":1277:1295   */\n  add\n    /* \"#utility.yul\":1271:1296   */\n  mload\n    /* \"#utility.yul\":1255:1296   */\n  swap2\n  pop\n    /* \"#utility.yul\":1321:1323   */\n  dup1\n    /* \"#utility.yul\":1311:1319   */\n  dup3\n    /* \"#utility.yul\":1308:1324   */\n  gt\n    /* \"#utility.yul\":1305:1341   */\n  iszero\n  tag_34\n  jumpi\n    /* \"#utility.yul\":1337:1338   */\n  0x00\n    /* \"#utility.yul\":1334:1335   */\n  dup1\n    /* \"#utility.yul\":1327:1339   */\n  revert\n    /* \"#utility.yul\":1305:1341   */\ntag_34:\n  pop\n    /* \"#utility.yul\":1360:1423   */\n  tag_35\n    /* \"#utility.yul\":1415:1422   */\n  dup6\n    /* \"#utility.yul\":1404:1412   */\n  dup3\n    /* \"#utility.yul\":1393:1402   */\n  dup7\n    /* \"#utility.yul\":1389:1413   */\n  add\n    /* \"#utility.yul\":1360:1423   */\n  tag_16\n  jump\t// in\ntag_35:\n    /* \"#utility.yul\":1350:1423   */\n  swap2\n  pop\n  pop\n    /* \"#utility.yul\":867:1429   */\n  swap3\n  pop\n  swap3\n  swap1\n  pop\n  jump\t// out\n    /* \"#utility.yul\":1434:1814   */\ntag_17:\n    /* \"#utility.yul\":1513:1514   */\n  0x01\n    /* \"#utility.yul\":1509:1521   */\n  dup2\n  dup2\n  shr\n  swap1\n    /* \"#utility.yul\":1556:1568   */\n  dup3\n  and\n  dup1\n    /* \"#utility.yul\":1577:1638   */\n  tag_37\n  jumpi\n    /* \"#utility.yul\":1631:1635   */\n  0x7f\n    /* \"#utility.yul\":1623:1629   */\n  dup3\n    /* \"#utility.yul\":1619:1636   */\n  and\n    /* \"#utility.yul\":1609:1636   */\n  swap2\n  pop\n    /* \"#utility.yul\":1577:1638   */\ntag_37:\n    /* \"#utility.yul\":1684:1686   */\n  0x20\n    /* \"#utility.yul\":1676:1682   */\n  dup3\n    /* \"#utility.yul\":1673:1687   */\n  lt\n    /* \"#utility.yul\":1653:1671   */\n  dup2\n    /* \"#utility.yul\":1650:1688   */\n  sub\n    /* \"#utility.yul\":1647:1808   */\n  tag_38\n  jumpi\n    /* \"#utility.yul\":1730:1740   */\n  0x4e487b71\n    /* \"#utility.yul\":1725:1728   */\n  0xe0\n    /* \"#utility.yul\":1721:1741   */\n  shl\n    /* \"#utility.yul\":1718:1719   */\n  0x00\n    /* \"#utility.yul\":1711:1742   */\n  mstore\n    /* \"#utility.yul\":1765:1769   */\n  0x22\n    /* \"#utility.yul\":1762:1763   */\n  0x04\n    /* \"#utility.yul\":1755:1770   */\n  mstore\n    /* \"#utility.yul\":1793:1797   */\n  0x24\n    /* \"#utility.yul\":1790:1791   */\n  0x00\n    /* \"#utility.yul\":1783:1798   */\n  revert\n    /* \"#utility.yul\":1647:1808   */\ntag_38:\n  pop\n    /* \"#utility.yul\":1434:1814   */\n  swap2\n  swap1\n  pop\n  jump\t// out\n    /* \"#utility.yul\":1945:2463   */\ntag_19:\n    /* \"#utility.yul\":2047:2049   */\n  0x1f\n    /* \"#utility.yul\":2042:2045   */\n  dup3\n    /* \"#utility.yul\":2039:2050   */\n  gt\n    /* \"#utility.yul\":2036:2457   */\n  iszero\n  tag_41\n  jumpi\n    /* \"#utility.yul\":2083:2088   */\n  dup1\n    /* \"#utility.yul\":2080:2081   */\n  0x00\n    /* \"#utility.yul\":2073:2089   */\n  mstore\n    /* \"#utility.yul\":2127:2131   */\n  0x20\n    /* \"#utility.yul\":2124:2125   */\n  0x00\n    /* \"#utility.yul\":2114:2132   */\n  keccak256\n    /* \"#utility.yul\":2197:2199   */\n  0x1f\n    /* \"#utility.yul\":2185:2195   */\n  dup5\n    /* \"#utility.yul\":2181:2200   */\n  add\n    /* \"#utility.yul\":2178:2179   */\n  0x05\n    /* \"#utility.yul\":2174:2201   */\n  shr\n    /* \"#utility.yul\":2168:2172   */\n  dup2\n    /* \"#utility.yul\":2164:2202   */\n  add\n    /* \"#utility.yul\":2233:2237   */\n  0x20\n    /* \"#utility.yul\":2221:2231   */\n  dup6\n    /* \"#utility.yul\":2218:2238   */\n  lt\n    /* \"#utility.yul\":2215:2262   */\n  iszero\n  tag_42\n  jumpi\n  pop\n    /* \"#utility.yul\":2256:2260   */\n  dup1\n    /* \"#utility.yul\":2215:2262   */\ntag_42:\n    /* \"#utility.yul\":2311:2313   */\n  0x1f\n    /* \"#utility.yul\":2306:2309   */\n  dup5\n    /* \"#utility.yul\":2302:2314   */\n  add\n    /* \"#utility.yul\":2299:2300   */\n  0x05\n    /* \"#utility.yul\":2295:2315   */\n  shr\n    /* \"#utility.yul\":2289:2293   */\n  dup3\n    /* \"#utility.yul\":2285:2316   */\n  add\n    /* \"#utility.yul\":2275:2316   */\n  swap2\n  pop\n    /* \"#utility.yul\":2366:2447   */\ntag_43:\n    /* \"#utility.yul\":2384:2386   */\n  dup2\n    /* \"#utility.yul\":2377:2382   */\n  dup2\n    /* \"#utility.yul\":2374:2387   */\n  lt\n    /* \"#utility.yul\":2366:2447   */\n  iszero\n  tag_45\n  jumpi\n    /* \"#utility.yul\":2443:2444   */\n  0x00\n    /* \"#utility.yul\":2429:2445   */\n  dup2\n  sstore\n    /* \"#utility.yul\":2410:2411   */\n  0x01\n    /* \"#utility.yul\":2399:2412   */\n  add\n    /* \"#utility.yul\":2366:2447   */\n  jump(tag_43)\ntag_45:\n    /* \"#utility.yul\":2370:2373   */\n  pop\n  pop\n    /* \"#utility.yul\":2036:2457   */\ntag_41:\n    /* \"#utility.yul\":1945:2463   */\n  pop\n  pop\n  pop\n  jump\t// out\n    /* \"#utility.yul\":2639:3984   */\ntag_8:\n    /* \"#utility.yul\":2759:2769   */\n  dup2\n  mload\n  sub(shl(0x40, 0x01), 0x01)\n    /* \"#utility.yul\":2781:2811   */\n  dup2\n  gt\n    /* \"#utility.yul\":2778:2834   */\n  iszero\n  tag_49\n  jumpi\n    /* \"#utility.yul\":2814:2832   */\n  tag_49\n  tag_15\n  jump\t// in\ntag_49:\n    /* \"#utility.yul\":2843:2940   */\n  tag_50\n    /* \"#utility.yul\":2933:2939   */\n  dup2\n    /* \"#utility.yul\":2893:2931   */\n  tag_51\n    /* \"#utility.yul\":2925:2929   */\n  dup5\n    /* \"#utility.yul\":2919:2930   */\n  sload\n    /* \"#utility.yul\":2893:2931   */\n  tag_17\n  jump\t// in\ntag_51:\n    /* \"#utility.yul\":2887:2891   */\n  dup5\n    /* \"#utility.yul\":2843:2940   */\n  tag_19\n  jump\t// in\ntag_50:\n    /* \"#utility.yul\":2995:2999   */\n  0x20\n  dup1\n    /* \"#utility.yul\":3052:3054   */\n  0x1f\n    /* \"#utility.yul\":3041:3055   */\n  dup4\n  gt\n    /* \"#utility.yul\":3069:3070   */\n  0x01\n    /* \"#utility.yul\":3064:3727   */\n  dup2\n  eq\n  tag_53\n  jumpi\n    /* \"#utility.yul\":3771:3772   */\n  0x00\n    /* \"#utility.yul\":3788:3794   */\n  dup5\n    /* \"#utility.yul\":3785:3874   */\n  iszero\n  tag_54\n  jumpi\n  pop\n    /* \"#utility.yul\":3840:3859   */\n  dup6\n  dup4\n  add\n    /* \"#utility.yul\":3834:3860   */\n  mload\n    /* \"#utility.yul\":3785:3874   */\ntag_54:\n  not(0x00)\n    /* \"#utility.yul\":2596:2597   */\n  0x03\n    /* \"#utility.yul\":2592:2603   */\n  dup7\n  swap1\n  shl\n    /* \"#utility.yul\":2588:2612   */\n  shr\n    /* \"#utility.yul\":2584:2613   */\n  not\n    /* \"#utility.yul\":2574:2614   */\n  and\n    /* \"#utility.yul\":2620:2621   */\n  0x01\n    /* \"#utility.yul\":2616:2627   */\n  dup6\n  swap1\n  shl\n    /* \"#utility.yul\":2571:2628   */\n  or\n    /* \"#utility.yul\":3887:3968   */\n  dup6\n  sstore\n    /* \"#utility.yul\":3034:3978   */\n  jump(tag_52)\n    /* \"#utility.yul\":3064:3727   */\ntag_53:\n    /* \"#utility.yul\":1892:1893   */\n  0x00\n    /* \"#utility.yul\":1885:1899   */\n  dup6\n  dup2\n  mstore\n    /* \"#utility.yul\":1929:1933   */\n  0x20\n    /* \"#utility.yul\":1916:1934   */\n  dup2\n  keccak256\n  not(0x1f)\n    /* \"#utility.yul\":3100:3120   */\n  dup7\n  and\n  swap2\n    /* \"#utility.yul\":3218:3454   */\ntag_57:\n    /* \"#utility.yul\":3232:3239   */\n  dup3\n    /* \"#utility.yul\":3229:3230   */\n  dup2\n    /* \"#utility.yul\":3226:3240   */\n  lt\n    /* \"#utility.yul\":3218:3454   */\n  iszero\n  tag_59\n  jumpi\n    /* \"#utility.yul\":3321:3340   */\n  dup9\n  dup7\n  add\n    /* \"#utility.yul\":3315:3341   */\n  mload\n    /* \"#utility.yul\":3300:3342   */\n  dup3\n  sstore\n    /* \"#utility.yul\":3413:3440   */\n  swap5\n  dup5\n  add\n  swap5\n    /* \"#utility.yul\":3381:3382   */\n  0x01\n    /* \"#utility.yul\":3369:3383   */\n  swap1\n  swap2\n  add\n  swap1\n    /* \"#utility.yul\":3248:3267   */\n  dup5\n  add\n    /* \"#utility.yul\":3218:3454   */\n  jump(tag_57)\ntag_59:\n    /* \"#utility.yul\":3222:3225   */\n  pop\n    /* \"#utility.yul\":3482:3488   */\n  dup6\n    /* \"#utility.yul\":3473:3480   */\n  dup3\n    /* \"#utility.yul\":3470:3489   */\n  lt\n    /* \"#utility.yul\":3467:3668   */\n  iszero\n  tag_60\n  jumpi\n    /* \"#utility.yul\":3543:3562   */\n  dup8\n  dup6\n  add\n    /* \"#utility.yul\":3537:3563   */\n  mload\n  not(0x00)\n    /* \"#utility.yul\":3626:3627   */\n  0x03\n    /* \"#utility.yul\":3622:3636   */\n  dup9\n  swap1\n  shl\n    /* \"#utility.yul\":3638:3641   */\n  0xf8\n    /* \"#utility.yul\":3618:3642   */\n  and\n    /* \"#utility.yul\":3614:3651   */\n  shr\n    /* \"#utility.yul\":3610:3652   */\n  not\n    /* \"#utility.yul\":3595:3653   */\n  and\n    /* \"#utility.yul\":3580:3654   */\n  dup2\n  sstore\n    /* \"#utility.yul\":3467:3668   */\ntag_60:\n  pop\n  pop\n    /* \"#utility.yul\":3714:3715   */\n  0x01\n    /* \"#utility.yul\":3705:3711   */\n  dup5\n    /* \"#utility.yul\":3702:3703   */\n  0x01\n    /* \"#utility.yul\":3698:3712   */\n  shl\n    /* \"#utility.yul\":3694:3716   */\n  add\n    /* \"#utility.yul\":3688:3692   */\n  dup6\n    /* \"#utility.yul\":3681:3717   */\n  sstore\n    /* \"#utility.yul\":3034:3978   */\ntag_52:\n  pop\n  pop\n  pop\n  pop\n    /* \"#utility.yul\":2639:3984   */\n  pop\n  pop\n  jump\t// out\ntag_21:\n    /* \"StoryNFT.sol\":247:1314  contract StoryNFT is ERC721A, IMintableERC721 {... */\n  dataSize(sub_0)\n  dup1\n  dataOffset(sub_0)\n  0x00\n  codecopy\n  0x00\n  return\nstop\n\nsub_0: assembly {\n        /* \"StoryNFT.sol\":247:1314  contract StoryNFT is ERC721A, IMintableERC721 {... */\n      mstore(0x40, 0x80)\n      callvalue\n      dup1\n      iszero\n      tag_1\n      jumpi\n      0x00\n      dup1\n      revert\n    tag_1:\n      pop\n      jumpi(tag_2, lt(calldatasize, 0x04))\n      shr(0xe0, calldataload(0x00))\n      dup1\n      0x42842e0e\n      gt\n      tag_18\n      jumpi\n      dup1\n      0xa22cb465\n      gt\n      tag_19\n      jumpi\n      dup1\n      0xa22cb465\n      eq\n      tag_14\n      jumpi\n      dup1\n      0xb88d4fde\n      eq\n      tag_15\n      jumpi\n      dup1\n      0xc87b56dd\n      eq\n      tag_16\n      jumpi\n      dup1\n      0xe985e9c5\n      eq\n      tag_17\n      jumpi\n      0x00\n      dup1\n      revert\n    tag_19:\n      dup1\n      0x42842e0e\n      eq\n      tag_10\n      jumpi\n      dup1\n      0x6352211e\n      eq\n      tag_11\n      jumpi\n      dup1\n      0x70a08231\n      eq\n      tag_12\n      jumpi\n      dup1\n      0x95d89b41\n      eq\n      tag_13\n      jumpi\n      0x00\n      dup1\n      revert\n    tag_18:\n      dup1\n      0x081812fc\n      gt\n      tag_20\n      jumpi\n      dup1\n      0x081812fc\n      eq\n      tag_6\n      jumpi\n      dup1\n      0x095ea7b3\n      eq\n      tag_7\n      jumpi\n      dup1\n      0x18160ddd\n      eq\n      tag_8\n      jumpi\n      dup1\n      0x23b872dd\n      eq\n      tag_9\n      jumpi\n      0x00\n      dup1\n      revert\n    tag_20:\n      dup1\n      0x75a317\n      eq\n      tag_3\n      jumpi\n      dup1\n      0x01ffc9a7\n      eq\n      tag_4\n      jumpi\n      dup1\n      0x06fdde03\n      eq\n      tag_5\n      jumpi\n    tag_2:\n      0x00\n      dup1\n      revert\n        /* \"StoryNFT.sol\":496:897  function mintTo(address to, string calldata uri) external override returns (uint256) {... */\n    tag_3:\n      tag_21\n      tag_22\n      calldatasize\n      0x04\n      tag_23\n      jump\t// in\n    tag_22:\n      tag_24\n      jump\t// in\n    tag_21:\n      mload(0x40)\n        /* \"#utility.yul\":1032:1057   */\n      swap1\n      dup2\n      mstore\n        /* \"#utility.yul\":1020:1022   */\n      0x20\n        /* \"#utility.yul\":1005:1023   */\n      add\n        /* \"StoryNFT.sol\":496:897  function mintTo(address to, string calldata uri) external override returns (uint256) {... */\n    tag_25:\n      mload(0x40)\n      dup1\n      swap2\n      sub\n      swap1\n      return\n        /* \"@thirdweb-dev/contracts/eip/ERC721A.sol\":2991:3282   */\n    tag_4:\n      tag_27\n      tag_28\n      calldatasize\n      0x04\n      tag_29\n      jump\t// in\n    tag_28:\n      tag_30\n      jump\t// in\n    tag_27:\n      mload(0x40)\n        /* \"#utility.yul\":1619:1633   */\n      swap1\n      iszero\n        /* \"#utility.yul\":1612:1634   */\n      iszero\n        /* \"#utility.yul\":1594:1635   */\n      dup2\n      mstore\n        /* \"#utility.yul\":1582:1584   */\n      0x20\n        /* \"#utility.yul\":1567:1585   */\n      add\n        /* \"@thirdweb-dev/contracts/eip/ERC721A.sol\":2991:3282   */\n      tag_25\n        /* \"#utility.yul\":1454:1641   */\n      jump\n        /* \"@thirdweb-dev/contracts/eip/ERC721A.sol\":6100:6198   */\n    tag_5:\n      tag_33\n      tag_34\n      jump\t// in\n    tag_33:\n      mload(0x40)\n      tag_25\n      swap2\n      swap1\n      tag_36\n      jump\t// in\n        /* \"@thirdweb-dev/contracts/eip/ERC721A.sol\":7578:7778   */\n    tag_6:\n      tag_37\n      tag_38\n      calldatasize\n      0x04\n      tag_39\n      jump\t// in\n    tag_38:\n      tag_40\n      jump\t// in\n    tag_37:\n      mload(0x40)\n      sub(shl(0xa0, 0x01), 0x01)\n        /* \"#utility.yul\":2514:2569   */\n      swap1\n      swap2\n      and\n        /* \"#utility.yul\":2496:2570   */\n      dup2\n      mstore\n        /* \"#utility.yul\":2484:2486   */\n      0x20\n        /* \"#utility.yul\":2469:2487   */\n      add\n        /* \"@thirdweb-dev/contracts/eip/ERC721A.sol\":7578:7778   */\n      tag_25\n        /* \"#utility.yul\":2350:2576   */\n      jump\n        /* \"@thirdweb-dev/contracts/eip/ERC721A.sol\":7133:7517   */\n    tag_7:\n      tag_43\n      tag_44\n      calldatasize\n      0x04\n      tag_45\n      jump\t// in\n    tag_44:\n      tag_46\n      jump\t// in\n    tag_43:\n      stop\n        /* \"@thirdweb-dev/contracts/eip/ERC721A.sol\":2253:2559   */\n    tag_8:\n        /* \"StoryNFT.sol\":1304:1305  1 */\n      0x01\n        /* \"@thirdweb-dev/contracts/eip/ERC721A.sol\":2512:2524   */\n      sload\n        /* \"@thirdweb-dev/contracts/eip/ERC721A.sol\":2306:2313   */\n      0x00\n        /* \"@thirdweb-dev/contracts/eip/ERC721A.sol\":2496:2509   */\n      sload\n        /* \"@thirdweb-dev/contracts/eip/ERC721A.sol\":2496:2524   */\n      sub\n      not(0x00)\n        /* \"@thirdweb-dev/contracts/eip/ERC721A.sol\":2496:2542   */\n      add\n        /* \"@thirdweb-dev/contracts/eip/ERC721A.sol\":2253:2559   */\n      jump(tag_21)\n        /* \"@thirdweb-dev/contracts/eip/ERC721A.sol\":8417:8551   */\n    tag_9:\n      tag_43\n      tag_51\n      calldatasize\n      0x04\n      tag_52\n      jump\t// in\n    tag_51:\n      tag_53\n      jump\t// in\n        /* \"@thirdweb-dev/contracts/eip/ERC721A.sol\":8617:8766   */\n    tag_10:\n      tag_43\n      tag_55\n      calldatasize\n      0x04\n      tag_52\n      jump\t// in\n    tag_55:\n      tag_56\n      jump\t// in\n        /* \"@thirdweb-dev/contracts/eip/ERC721A.sol\":5915:6038   */\n    tag_11:\n      tag_37\n      tag_58\n      calldatasize\n      0x04\n      tag_39\n      jump\t// in\n    tag_58:\n      tag_59\n      jump\t// in\n        /* \"@thirdweb-dev/contracts/eip/ERC721A.sol\":3341:3544   */\n    tag_12:\n      tag_21\n      tag_62\n      calldatasize\n      0x04\n      tag_63\n      jump\t// in\n    tag_62:\n      tag_64\n      jump\t// in\n        /* \"@thirdweb-dev/contracts/eip/ERC721A.sol\":6262:6364   */\n    tag_13:\n      tag_33\n      tag_67\n      jump\t// in\n        /* \"@thirdweb-dev/contracts/eip/ERC721A.sol\":7845:8127   */\n    tag_14:\n      tag_43\n      tag_70\n      calldatasize\n      0x04\n      tag_71\n      jump\t// in\n    tag_70:\n      tag_72\n      jump\t// in\n        /* \"@thirdweb-dev/contracts/eip/ERC721A.sol\":8832:9175   */\n    tag_15:\n      tag_43\n      tag_74\n      calldatasize\n      0x04\n      tag_75\n      jump\t// in\n    tag_74:\n      tag_76\n      jump\t// in\n        /* \"StoryNFT.sol\":953:1163  function tokenURI(uint256 tokenId) public view virtual override returns (string memory) {... */\n    tag_16:\n      tag_33\n      tag_78\n      calldatasize\n      0x04\n      tag_39\n      jump\t// in\n    tag_78:\n      tag_79\n      jump\t// in\n        /* \"@thirdweb-dev/contracts/eip/ERC721A.sol\":8193:8355   */\n    tag_17:\n      tag_27\n      tag_82\n      calldatasize\n      0x04\n      tag_83\n      jump\t// in\n    tag_82:\n      sub(shl(0xa0, 0x01), 0x01)\n        /* \"@thirdweb-dev/contracts/eip/ERC721A.sol\":8313:8338   */\n      swap2\n      dup3\n      and\n        /* \"@thirdweb-dev/contracts/eip/ERC721A.sol\":8290:8294   */\n      0x00\n        /* \"@thirdweb-dev/contracts/eip/ERC721A.sol\":8313:8338   */\n      swap1\n      dup2\n      mstore\n        /* \"@thirdweb-dev/contracts/eip/ERC721A.sol\":8313:8331   */\n      0x07\n        /* \"@thirdweb-dev/contracts/eip/ERC721A.sol\":8313:8338   */\n      0x20\n      swap1\n      dup2\n      mstore\n      0x40\n      dup1\n      dup4\n      keccak256\n        /* \"@thirdweb-dev/contracts/eip/ERC721A.sol\":8313:8348   */\n      swap4\n      swap1\n      swap5\n      and\n      dup3\n      mstore\n      swap2\n      swap1\n      swap2\n      mstore\n      keccak256\n      sload\n      0xff\n      and\n      swap1\n        /* \"@thirdweb-dev/contracts/eip/ERC721A.sol\":8193:8355   */\n      jump\n        /* \"StoryNFT.sol\":496:897  function mintTo(address to, string calldata uri) external override returns (uint256) {... */\n    tag_24:\n        /* \"StoryNFT.sol\":572:579  uint256 */\n      0x00\n      sub(shl(0xa0, 0x01), 0x01)\n        /* \"StoryNFT.sol\":599:615  to != address(0) */\n      dup5\n      and\n        /* \"StoryNFT.sol\":591:647  require(to != address(0), \"Cannot mint to zero address\") */\n      tag_87\n      jumpi\n      mload(0x40)\n      shl(0xe5, 0x461bcd)\n      dup2\n      mstore\n        /* \"#utility.yul\":5458:5460   */\n      0x20\n        /* \"StoryNFT.sol\":591:647  require(to != address(0), \"Cannot mint to zero address\") */\n      0x04\n      dup3\n      add\n        /* \"#utility.yul\":5440:5461   */\n      mstore\n        /* \"#utility.yul\":5497:5499   */\n      0x1b\n        /* \"#utility.yul\":5477:5495   */\n      0x24\n      dup3\n      add\n        /* \"#utility.yul\":5470:5500   */\n      mstore\n        /* \"#utility.yul\":5536:5565   */\n      0x43616e6e6f74206d696e7420746f207a65726f20616464726573730000000000\n        /* \"#utility.yul\":5516:5534   */\n      0x44\n      dup3\n      add\n        /* \"#utility.yul\":5509:5566   */\n      mstore\n        /* \"#utility.yul\":5583:5601   */\n      0x64\n      add\n        /* \"StoryNFT.sol\":591:647  require(to != address(0), \"Cannot mint to zero address\") */\n    tag_88:\n      mload(0x40)\n      dup1\n      swap2\n      sub\n      swap1\n      revert\n    tag_87:\n        /* \"StoryNFT.sol\":657:672  uint256 tokenId */\n      0x00\n        /* \"StoryNFT.sol\":675:688  _currentIndex */\n      sload\n        /* \"StoryNFT.sol\":698:710  _mint(to, 1) */\n      tag_90\n        /* \"StoryNFT.sol\":704:706  to */\n      dup6\n        /* \"StoryNFT.sol\":708:709  1 */\n      0x01\n        /* \"StoryNFT.sol\":698:703  _mint */\n      tag_91\n        /* \"StoryNFT.sol\":698:710  _mint(to, 1) */\n      jump\t// in\n    tag_90:\n        /* \"StoryNFT.sol\":736:755  _tokenURIs[tokenId] */\n      0x00\n      dup2\n      dup2\n      mstore\n        /* \"StoryNFT.sol\":736:746  _tokenURIs */\n      0x08\n        /* \"StoryNFT.sol\":736:755  _tokenURIs[tokenId] */\n      0x20\n      mstore\n      0x40\n      swap1\n      keccak256\n        /* \"StoryNFT.sol\":736:761  _tokenURIs[tokenId] = uri */\n      tag_92\n        /* \"StoryNFT.sol\":758:761  uri */\n      dup5\n      dup7\n        /* \"StoryNFT.sol\":736:755  _tokenURIs[tokenId] */\n      dup4\n        /* \"StoryNFT.sol\":736:761  _tokenURIs[tokenId] = uri */\n      tag_93\n      jump\t// in\n    tag_92:\n      pop\n        /* \"StoryNFT.sol\":799:832  Transfer(address(0), to, tokenId) */\n      mload(0x40)\n        /* \"StoryNFT.sol\":824:831  tokenId */\n      dup2\n      swap1\n      sub(shl(0xa0, 0x01), 0x01)\n        /* \"StoryNFT.sol\":799:832  Transfer(address(0), to, tokenId) */\n      dup8\n      and\n      swap1\n        /* \"StoryNFT.sol\":816:817  0 */\n      0x00\n      swap1\n        /* \"StoryNFT.sol\":799:832  Transfer(address(0), to, tokenId) */\n      0xddf252ad1be2c89b69c2b068fc378daa952ba7f163c4a11628f55a4df523b3ef\n      swap1\n        /* \"StoryNFT.sol\":816:817  0 */\n      dup3\n      swap1\n        /* \"StoryNFT.sol\":799:832  Transfer(address(0), to, tokenId) */\n      log4\n        /* \"StoryNFT.sol\":883:890  tokenId */\n      swap5\n        /* \"StoryNFT.sol\":496:897  function mintTo(address to, string calldata uri) external override returns (uint256) {... */\n      swap4\n      pop\n      pop\n      pop\n      pop\n      jump\t// out\n        /* \"@thirdweb-dev/contracts/eip/ERC721A.sol\":2991:3282   */\n    tag_30:\n        /* \"@thirdweb-dev/contracts/eip/ERC721A.sol\":3084:3088   */\n      0x00\n      not(sub(shl(0xe0, 0x01), 0x01))\n        /* \"@thirdweb-dev/contracts/eip/ERC721A.sol\":3119:3159   */\n      dup3\n      and\n      shl(0xe0, 0x80ac58cd)\n      eq\n      dup1\n        /* \"@thirdweb-dev/contracts/eip/ERC721A.sol\":3119:3223   */\n      tag_95\n      jumpi\n      pop\n      not(sub(shl(0xe0, 0x01), 0x01))\n        /* \"@thirdweb-dev/contracts/eip/ERC721A.sol\":3175:3223   */\n      dup3\n      and\n      shl(0xe0, 0x5b5e139f)\n      eq\n        /* \"@thirdweb-dev/contracts/eip/ERC721A.sol\":3119:3223   */\n    tag_95:\n        /* \"@thirdweb-dev/contracts/eip/ERC721A.sol\":3119:3275   */\n      dup1\n      tag_97\n      jumpi\n      pop\n      shl(0xe0, 0x01ffc9a7)\n      not(sub(shl(0xe0, 0x01), 0x01))\n        /* \"@thirdweb-dev/contracts/eip/ERC165.sol\":947:987   */\n      dup4\n      and\n      eq\n        /* \"@thirdweb-dev/contracts/eip/ERC721A.sol\":3239:3275   */\n    tag_97:\n        /* \"@thirdweb-dev/contracts/eip/ERC721A.sol\":3100:3275   */\n      swap3\n        /* \"@thirdweb-dev/contracts/eip/ERC721A.sol\":2991:3282   */\n      swap2\n      pop\n      pop\n      jump\t// out\n        /* \"@thirdweb-dev/contracts/eip/ERC721A.sol\":6100:6198   */\n    tag_34:\n        /* \"@thirdweb-dev/contracts/eip/ERC721A.sol\":6154:6167   */\n      0x60\n        /* \"@thirdweb-dev/contracts/eip/ERC721A.sol\":6186:6191   */\n      0x02\n        /* \"@thirdweb-dev/contracts/eip/ERC721A.sol\":6179:6191   */\n      dup1\n      sload\n      tag_100\n      swap1\n      tag_101\n      jump\t// in\n    tag_100:\n      dup1\n      0x1f\n      add\n      0x20\n      dup1\n      swap2\n      div\n      mul\n      0x20\n      add\n      mload(0x40)\n      swap1\n      dup2\n      add\n      0x40\n      mstore\n      dup1\n      swap3\n      swap2\n      swap1\n      dup2\n      dup2\n      mstore\n      0x20\n      add\n      dup3\n      dup1\n      sload\n      tag_102\n      swap1\n      tag_101\n      jump\t// in\n    tag_102:\n      dup1\n      iszero\n      tag_103\n      jumpi\n      dup1\n      0x1f\n      lt\n      tag_104\n      jumpi\n      0x0100\n      dup1\n      dup4\n      sload\n      div\n      mul\n      dup4\n      mstore\n      swap2\n      0x20\n      add\n      swap2\n      jump(tag_103)\n    tag_104:\n      dup3\n      add\n      swap2\n      swap1\n      0x00\n      mstore\n      keccak256(0x00, 0x20)\n      swap1\n    tag_105:\n      dup2\n      sload\n      dup2\n      mstore\n      swap1\n      0x01\n      add\n      swap1\n      0x20\n      add\n      dup1\n      dup4\n      gt\n      tag_105\n      jumpi\n      dup3\n      swap1\n      sub\n      0x1f\n      and\n      dup3\n      add\n      swap2\n    tag_103:\n      pop\n      pop\n      pop\n      pop\n      pop\n      swap1\n      pop\n        /* \"@thirdweb-dev/contracts/eip/ERC721A.sol\":6100:6198   */\n      swap1\n      jump\t// out\n        /* \"@thirdweb-dev/contracts/eip/ERC721A.sol\":7578:7778   */\n    tag_40:\n        /* \"@thirdweb-dev/contracts/eip/ERC721A.sol\":7646:7653   */\n      0x00\n        /* \"@thirdweb-dev/contracts/eip/ERC721A.sol\":7670:7686   */\n      tag_107\n        /* \"@thirdweb-dev/contracts/eip/ERC721A.sol\":7678:7685   */\n      dup3\n        /* \"@thirdweb-dev/contracts/eip/ERC721A.sol\":7670:7677   */\n      tag_108\n        /* \"@thirdweb-dev/contracts/eip/ERC721A.sol\":7670:7686   */\n      jump\t// in\n    tag_107:\n        /* \"@thirdweb-dev/contracts/eip/ERC721A.sol\":7665:7729   */\n      tag_109\n      jumpi\n        /* \"@thirdweb-dev/contracts/eip/ERC721A.sol\":7695:7729   */\n      mload(0x40)\n      shl(0xe2, 0x33d1c039)\n      dup2\n      mstore\n      0x04\n      add\n      mload(0x40)\n      dup1\n      swap2\n      sub\n      swap1\n      revert\n        /* \"@thirdweb-dev/contracts/eip/ERC721A.sol\":7665:7729   */\n    tag_109:\n      pop\n        /* \"@thirdweb-dev/contracts/eip/ERC721A.sol\":7747:7771   */\n      0x00\n      swap1\n      dup2\n      mstore\n        /* \"@thirdweb-dev/contracts/eip/ERC721A.sol\":7747:7762   */\n      0x06\n        /* \"@thirdweb-dev/contracts/eip/ERC721A.sol\":7747:7771   */\n      0x20\n      mstore\n      0x40\n      swap1\n      keccak256\n      sload\n      sub(shl(0xa0, 0x01), 0x01)\n      and\n      swap1\n        /* \"@thirdweb-dev/contracts/eip/ERC721A.sol\":7578:7778   */\n      jump\t// out\n        /* \"@thirdweb-dev/contracts/eip/ERC721A.sol\":7133:7517   */\n    tag_46:\n        /* \"@thirdweb-dev/contracts/eip/ERC721A.sol\":7205:7218   */\n      0x00\n        /* \"@thirdweb-dev/contracts/eip/ERC721A.sol\":7221:7245   */\n      tag_111\n        /* \"@thirdweb-dev/contracts/eip/ERC721A.sol\":7237:7244   */\n      dup3\n        /* \"@thirdweb-dev/contracts/eip/ERC721A.sol\":7221:7236   */\n      tag_59\n        /* \"@thirdweb-dev/contracts/eip/ERC721A.sol\":7221:7245   */\n      jump\t// in\n    tag_111:\n        /* \"@thirdweb-dev/contracts/eip/ERC721A.sol\":7205:7245   */\n      swap1\n      pop\n        /* \"@thirdweb-dev/contracts/eip/ERC721A.sol\":7265:7270   */\n      dup1\n      sub(shl(0xa0, 0x01), 0x01)\n        /* \"@thirdweb-dev/contracts/eip/ERC721A.sol\":7259:7270   */\n      and\n        /* \"@thirdweb-dev/contracts/eip/ERC721A.sol\":7259:7261   */\n      dup4\n      sub(shl(0xa0, 0x01), 0x01)\n        /* \"@thirdweb-dev/contracts/eip/ERC721A.sol\":7259:7270   */\n      and\n      sub\n        /* \"@thirdweb-dev/contracts/eip/ERC721A.sol\":7255:7303   */\n      tag_112\n      jumpi\n        /* \"@thirdweb-dev/contracts/eip/ERC721A.sol\":7279:7303   */\n      mload(0x40)\n      shl(0xe2, 0x250fdee3)\n      dup2\n      mstore\n      0x04\n      add\n      mload(0x40)\n      dup1\n      swap2\n      sub\n      swap1\n      revert\n        /* \"@thirdweb-dev/contracts/eip/ERC721A.sol\":7255:7303   */\n    tag_112:\n        /* \"@thirdweb-dev/contracts/external-deps/openzeppelin/utils/Context.sol\":719:729   */\n      caller\n      sub(shl(0xa0, 0x01), 0x01)\n        /* \"@thirdweb-dev/contracts/eip/ERC721A.sol\":7318:7339   */\n      dup3\n      and\n      eq\n        /* \"@thirdweb-dev/contracts/eip/ERC721A.sol\":7314:7472   */\n      tag_118\n      jumpi\n        /* \"@thirdweb-dev/contracts/eip/ERC721A.sol\":7358:7395   */\n      tag_116\n        /* \"@thirdweb-dev/contracts/eip/ERC721A.sol\":7375:7380   */\n      dup2\n        /* \"@thirdweb-dev/contracts/external-deps/openzeppelin/utils/Context.sol\":719:729   */\n      caller\n        /* \"@thirdweb-dev/contracts/eip/ERC721A.sol\":8193:8355   */\n      tag_82\n      jump\t// in\n        /* \"@thirdweb-dev/contracts/eip/ERC721A.sol\":7358:7395   */\n    tag_116:\n        /* \"@thirdweb-dev/contracts/eip/ERC721A.sol\":7353:7472   */\n      tag_118\n      jumpi\n        /* \"@thirdweb-dev/contracts/eip/ERC721A.sol\":7422:7457   */\n      mload(0x40)\n      shl(0xe1, 0x67d9dca1)\n      dup2\n      mstore\n      0x04\n      add\n      mload(0x40)\n      dup1\n      swap2\n      sub\n      swap1\n      revert\n        /* \"@thirdweb-dev/contracts/eip/ERC721A.sol\":7353:7472   */\n    tag_118:\n        /* \"@thirdweb-dev/contracts/eip/ERC721A.sol\":7482:7510   */\n      tag_119\n        /* \"@thirdweb-dev/contracts/eip/ERC721A.sol\":7491:7493   */\n      dup4\n        /* \"@thirdweb-dev/contracts/eip/ERC721A.sol\":7495:7502   */\n      dup4\n        /* \"@thirdweb-dev/contracts/eip/ERC721A.sol\":7504:7509   */\n      dup4\n        /* \"@thirdweb-dev/contracts/eip/ERC721A.sol\":7482:7490   */\n      tag_120\n        /* \"@thirdweb-dev/contracts/eip/ERC721A.sol\":7482:7510   */\n      jump\t// in\n    tag_119:\n        /* \"@thirdweb-dev/contracts/eip/ERC721A.sol\":7195:7517   */\n      pop\n        /* \"@thirdweb-dev/contracts/eip/ERC721A.sol\":7133:7517   */\n      pop\n      pop\n      jump\t// out\n        /* \"@thirdweb-dev/contracts/eip/ERC721A.sol\":8417:8551   */\n    tag_53:\n        /* \"@thirdweb-dev/contracts/eip/ERC721A.sol\":8516:8544   */\n      tag_119\n        /* \"@thirdweb-dev/contracts/eip/ERC721A.sol\":8526:8530   */\n      dup4\n        /* \"@thirdweb-dev/contracts/eip/ERC721A.sol\":8532:8534   */\n      dup4\n        /* \"@thirdweb-dev/contracts/eip/ERC721A.sol\":8536:8543   */\n      dup4\n        /* \"@thirdweb-dev/contracts/eip/ERC721A.sol\":8516:8525   */\n      tag_126\n        /* \"@thirdweb-dev/contracts/eip/ERC721A.sol\":8516:8544   */\n      jump\t// in\n        /* \"@thirdweb-dev/contracts/eip/ERC721A.sol\":8617:8766   */\n    tag_56:\n        /* \"@thirdweb-dev/contracts/eip/ERC721A.sol\":8720:8759   */\n      tag_119\n        /* \"@thirdweb-dev/contracts/eip/ERC721A.sol\":8737:8741   */\n      dup4\n        /* \"@thirdweb-dev/contracts/eip/ERC721A.sol\":8743:8745   */\n      dup4\n        /* \"@thirdweb-dev/contracts/eip/ERC721A.sol\":8747:8754   */\n      dup4\n        /* \"@thirdweb-dev/contracts/eip/ERC721A.sol\":8720:8759   */\n      mload(0x40)\n      dup1\n      0x20\n      add\n      0x40\n      mstore\n      dup1\n      0x00\n      dup2\n      mstore\n      pop\n        /* \"@thirdweb-dev/contracts/eip/ERC721A.sol\":8720:8736   */\n      tag_76\n        /* \"@thirdweb-dev/contracts/eip/ERC721A.sol\":8720:8759   */\n      jump\t// in\n        /* \"@thirdweb-dev/contracts/eip/ERC721A.sol\":5915:6038   */\n    tag_59:\n        /* \"@thirdweb-dev/contracts/eip/ERC721A.sol\":5979:5986   */\n      0x00\n        /* \"@thirdweb-dev/contracts/eip/ERC721A.sol\":6005:6026   */\n      tag_130\n        /* \"@thirdweb-dev/contracts/eip/ERC721A.sol\":6018:6025   */\n      dup3\n        /* \"@thirdweb-dev/contracts/eip/ERC721A.sol\":6005:6017   */\n      tag_131\n        /* \"@thirdweb-dev/contracts/eip/ERC721A.sol\":6005:6026   */\n      jump\t// in\n    tag_130:\n        /* \"@thirdweb-dev/contracts/eip/ERC721A.sol\":6005:6031   */\n      mload\n      swap3\n        /* \"@thirdweb-dev/contracts/eip/ERC721A.sol\":5915:6038   */\n      swap2\n      pop\n      pop\n      jump\t// out\n        /* \"@thirdweb-dev/contracts/eip/ERC721A.sol\":3341:3544   */\n    tag_64:\n        /* \"@thirdweb-dev/contracts/eip/ERC721A.sol\":3405:3412   */\n      0x00\n      sub(shl(0xa0, 0x01), 0x01)\n        /* \"@thirdweb-dev/contracts/eip/ERC721A.sol\":3428:3447   */\n      dup3\n      and\n        /* \"@thirdweb-dev/contracts/eip/ERC721A.sol\":3424:3484   */\n      tag_133\n      jumpi\n        /* \"@thirdweb-dev/contracts/eip/ERC721A.sol\":3456:3484   */\n      mload(0x40)\n      shl(0xe2, 0x23d3ad81)\n      dup2\n      mstore\n      0x04\n      add\n      mload(0x40)\n      dup1\n      swap2\n      sub\n      swap1\n      revert\n        /* \"@thirdweb-dev/contracts/eip/ERC721A.sol\":3424:3484   */\n    tag_133:\n      pop\n      sub(shl(0xa0, 0x01), 0x01)\n        /* \"@thirdweb-dev/contracts/eip/ERC721A.sol\":3509:3528   */\n      and\n      0x00\n      swap1\n      dup2\n      mstore\n        /* \"@thirdweb-dev/contracts/eip/ERC721A.sol\":3509:3521   */\n      0x05\n        /* \"@thirdweb-dev/contracts/eip/ERC721A.sol\":3509:3528   */\n      0x20\n      mstore\n      0x40\n      swap1\n      keccak256\n        /* \"@thirdweb-dev/contracts/eip/ERC721A.sol\":3509:3536   */\n      sload\n      0xffffffffffffffff\n      and\n      swap1\n        /* \"@thirdweb-dev/contracts/eip/ERC721A.sol\":3341:3544   */\n      jump\t// out\n        /* \"@thirdweb-dev/contracts/eip/ERC721A.sol\":6262:6364   */\n    tag_67:\n        /* \"@thirdweb-dev/contracts/eip/ERC721A.sol\":6318:6331   */\n      0x60\n        /* \"@thirdweb-dev/contracts/eip/ERC721A.sol\":6350:6357   */\n      0x03\n        /* \"@thirdweb-dev/contracts/eip/ERC721A.sol\":6343:6357   */\n      dup1\n      sload\n      tag_100\n      swap1\n      tag_101\n      jump\t// in\n        /* \"@thirdweb-dev/contracts/eip/ERC721A.sol\":7845:8127   */\n    tag_72:\n        /* \"@thirdweb-dev/contracts/external-deps/openzeppelin/utils/Context.sol\":719:729   */\n      caller\n      sub(shl(0xa0, 0x01), 0x01)\n        /* \"@thirdweb-dev/contracts/eip/ERC721A.sol\":7943:7967   */\n      dup4\n      and\n      sub\n        /* \"@thirdweb-dev/contracts/eip/ERC721A.sol\":7939:7993   */\n      tag_142\n      jumpi\n        /* \"@thirdweb-dev/contracts/eip/ERC721A.sol\":7976:7993   */\n      mload(0x40)\n      shl(0xe0, 0xb06307db)\n      dup2\n      mstore\n      0x04\n      add\n      mload(0x40)\n      dup1\n      swap2\n      sub\n      swap1\n      revert\n        /* \"@thirdweb-dev/contracts/eip/ERC721A.sol\":7939:7993   */\n    tag_142:\n        /* \"@thirdweb-dev/contracts/external-deps/openzeppelin/utils/Context.sol\":719:729   */\n      caller\n        /* \"@thirdweb-dev/contracts/eip/ERC721A.sol\":8004:8036   */\n      0x00\n      dup2\n      dup2\n      mstore\n        /* \"@thirdweb-dev/contracts/eip/ERC721A.sol\":8004:8022   */\n      0x07\n        /* \"@thirdweb-dev/contracts/eip/ERC721A.sol\":8004:8036   */\n      0x20\n      swap1\n      dup2\n      mstore\n      0x40\n      dup1\n      dup4\n      keccak256\n      sub(shl(0xa0, 0x01), 0x01)\n        /* \"@thirdweb-dev/contracts/eip/ERC721A.sol\":8004:8046   */\n      dup8\n      and\n      dup1\n      dup6\n      mstore\n      swap1\n      dup4\n      mstore\n      swap3\n      dup2\n      swap1\n      keccak256\n        /* \"@thirdweb-dev/contracts/eip/ERC721A.sol\":8004:8057   */\n      dup1\n      sload\n      not(0xff)\n      and\n      dup7\n      iszero\n      iszero\n      swap1\n      dup2\n      or\n      swap1\n      swap2\n      sstore\n        /* \"@thirdweb-dev/contracts/eip/ERC721A.sol\":8072:8120   */\n      swap1\n      mload\n        /* \"#utility.yul\":1594:1635   */\n      swap1\n      dup2\n      mstore\n        /* \"@thirdweb-dev/contracts/eip/ERC721A.sol\":8004:8046   */\n      swap2\n      swap3\n        /* \"@thirdweb-dev/contracts/external-deps/openzeppelin/utils/Context.sol\":719:729   */\n      swap2\n        /* \"@thirdweb-dev/contracts/eip/ERC721A.sol\":8072:8120   */\n      0x17307eab39ab6107e8899845ad3d59bd9653f200f220920489ca2b5937696c31\n      swap2\n        /* \"#utility.yul\":1567:1585   */\n      add\n        /* \"@thirdweb-dev/contracts/eip/ERC721A.sol\":8072:8120   */\n      mload(0x40)\n      dup1\n      swap2\n      sub\n      swap1\n      log3\n        /* \"@thirdweb-dev/contracts/eip/ERC721A.sol\":7845:8127   */\n      pop\n      pop\n      jump\t// out\n        /* \"@thirdweb-dev/contracts/eip/ERC721A.sol\":8832:9175   */\n    tag_76:\n        /* \"@thirdweb-dev/contracts/eip/ERC721A.sol\":8955:8983   */\n      tag_147\n        /* \"@thirdweb-dev/contracts/eip/ERC721A.sol\":8965:8969   */\n      dup5\n        /* \"@thirdweb-dev/contracts/eip/ERC721A.sol\":8971:8973   */\n      dup5\n        /* \"@thirdweb-dev/contracts/eip/ERC721A.sol\":8975:8982   */\n      dup5\n        /* \"@thirdweb-dev/contracts/eip/ERC721A.sol\":8955:8964   */\n      tag_126\n        /* \"@thirdweb-dev/contracts/eip/ERC721A.sol\":8955:8983   */\n      jump\t// in\n    tag_147:\n      sub(shl(0xa0, 0x01), 0x01)\n        /* \"@thirdweb-dev/contracts/eip/ERC721A.sol\":8997:9010   */\n      dup4\n      and\n        /* \"@thirdweb-dev/contracts/lib/Address.sol\":1695:1714   */\n      extcodesize\n        /* \"@thirdweb-dev/contracts/lib/Address.sol\":1695:1718   */\n      iszero\n        /* \"@thirdweb-dev/contracts/eip/ERC721A.sol\":8993:9169   */\n      tag_153\n      jumpi\n        /* \"@thirdweb-dev/contracts/eip/ERC721A.sol\":9031:9087   */\n      tag_151\n        /* \"@thirdweb-dev/contracts/eip/ERC721A.sol\":9062:9066   */\n      dup5\n        /* \"@thirdweb-dev/contracts/eip/ERC721A.sol\":9068:9070   */\n      dup5\n        /* \"@thirdweb-dev/contracts/eip/ERC721A.sol\":9072:9079   */\n      dup5\n        /* \"@thirdweb-dev/contracts/eip/ERC721A.sol\":9081:9086   */\n      dup5\n        /* \"@thirdweb-dev/contracts/eip/ERC721A.sol\":9031:9061   */\n      tag_152\n        /* \"@thirdweb-dev/contracts/eip/ERC721A.sol\":9031:9087   */\n      jump\t// in\n    tag_151:\n        /* \"@thirdweb-dev/contracts/eip/ERC721A.sol\":9026:9169   */\n      tag_153\n      jumpi\n        /* \"@thirdweb-dev/contracts/eip/ERC721A.sol\":9114:9154   */\n      mload(0x40)\n      shl(0xe1, 0x68d2bf6b)\n      dup2\n      mstore\n      0x04\n      add\n      mload(0x40)\n      dup1\n      swap2\n      sub\n      swap1\n      revert\n        /* \"@thirdweb-dev/contracts/eip/ERC721A.sol\":9026:9169   */\n    tag_153:\n        /* \"@thirdweb-dev/contracts/eip/ERC721A.sol\":8832:9175   */\n      pop\n      pop\n      pop\n      pop\n      jump\t// out\n        /* \"StoryNFT.sol\":953:1163  function tokenURI(uint256 tokenId) public view virtual override returns (string memory) {... */\n    tag_79:\n        /* \"StoryNFT.sol\":1026:1039  string memory */\n      0x60\n        /* \"StoryNFT.sol\":1059:1075  _exists(tokenId) */\n      tag_155\n        /* \"StoryNFT.sol\":1067:1074  tokenId */\n      dup3\n        /* \"StoryNFT.sol\":1059:1066  _exists */\n      tag_108\n        /* \"StoryNFT.sol\":1059:1075  _exists(tokenId) */\n      jump\t// in\n    tag_155:\n        /* \"StoryNFT.sol\":1051:1120  require(_exists(tokenId), \"ERC721A: URI query for nonexistent token\") */\n      tag_156\n      jumpi\n      mload(0x40)\n      shl(0xe5, 0x461bcd)\n      dup2\n      mstore\n        /* \"#utility.yul\":8222:8224   */\n      0x20\n        /* \"StoryNFT.sol\":1051:1120  require(_exists(tokenId), \"ERC721A: URI query for nonexistent token\") */\n      0x04\n      dup3\n      add\n        /* \"#utility.yul\":8204:8225   */\n      mstore\n        /* \"#utility.yul\":8261:8263   */\n      0x28\n        /* \"#utility.yul\":8241:8259   */\n      0x24\n      dup3\n      add\n        /* \"#utility.yul\":8234:8264   */\n      mstore\n        /* \"#utility.yul\":8300:8334   */\n      0x455243373231413a2055524920717565727920666f72206e6f6e657869737465\n        /* \"#utility.yul\":8280:8298   */\n      0x44\n      dup3\n      add\n        /* \"#utility.yul\":8273:8335   */\n      mstore\n        /* \"#utility.yul\":8371:8381   */\n      0x6e7420746f6b656e000000000000000000000000000000000000000000000000\n        /* \"#utility.yul\":8351:8369   */\n      0x64\n      dup3\n      add\n        /* \"#utility.yul\":8344:8382   */\n      mstore\n        /* \"#utility.yul\":8399:8418   */\n      0x84\n      add\n        /* \"StoryNFT.sol\":1051:1120  require(_exists(tokenId), \"ERC721A: URI query for nonexistent token\") */\n      tag_88\n        /* \"#utility.yul\":8020:8424   */\n      jump\n        /* \"StoryNFT.sol\":1051:1120  require(_exists(tokenId), \"ERC721A: URI query for nonexistent token\") */\n    tag_156:\n        /* \"StoryNFT.sol\":1137:1156  _tokenURIs[tokenId] */\n      0x00\n      dup3\n      dup2\n      mstore\n        /* \"StoryNFT.sol\":1137:1147  _tokenURIs */\n      0x08\n        /* \"StoryNFT.sol\":1137:1156  _tokenURIs[tokenId] */\n      0x20\n      mstore\n      0x40\n      swap1\n      keccak256\n        /* \"StoryNFT.sol\":1130:1156  return _tokenURIs[tokenId] */\n      dup1\n      sload\n      tag_159\n      swap1\n      tag_101\n      jump\t// in\n    tag_159:\n      dup1\n      0x1f\n      add\n      0x20\n      dup1\n      swap2\n      div\n      mul\n      0x20\n      add\n      mload(0x40)\n      swap1\n      dup2\n      add\n      0x40\n      mstore\n      dup1\n      swap3\n      swap2\n      swap1\n      dup2\n      dup2\n      mstore\n      0x20\n      add\n      dup3\n      dup1\n      sload\n      tag_160\n      swap1\n      tag_101\n      jump\t// in\n    tag_160:\n      dup1\n      iszero\n      tag_161\n      jumpi\n      dup1\n      0x1f\n      lt\n      tag_162\n      jumpi\n      0x0100\n      dup1\n      dup4\n      sload\n      div\n      mul\n      dup4\n      mstore\n      swap2\n      0x20\n      add\n      swap2\n      jump(tag_161)\n    tag_162:\n      dup3\n      add\n      swap2\n      swap1\n      0x00\n      mstore\n      keccak256(0x00, 0x20)\n      swap1\n    tag_163:\n      dup2\n      sload\n      dup2\n      mstore\n      swap1\n      0x01\n      add\n      swap1\n      0x20\n      add\n      dup1\n      dup4\n      gt\n      tag_163\n      jumpi\n      dup3\n      swap1\n      sub\n      0x1f\n      and\n      dup3\n      add\n      swap2\n    tag_161:\n      pop\n      pop\n      pop\n      pop\n      pop\n      swap1\n      pop\n        /* \"StoryNFT.sol\":953:1163  function tokenURI(uint256 tokenId) public view virtual override returns (string memory) {... */\n      swap2\n      swap1\n      pop\n      jump\t// out\n        /* \"@thirdweb-dev/contracts/eip/ERC721A.sol\":12059:13205   */\n    tag_91:\n        /* \"@thirdweb-dev/contracts/eip/ERC721A.sol\":12123:12143   */\n      0x00\n        /* \"@thirdweb-dev/contracts/eip/ERC721A.sol\":12146:12159   */\n      sload\n      sub(shl(0xa0, 0x01), 0x01)\n        /* \"@thirdweb-dev/contracts/eip/ERC721A.sol\":12173:12189   */\n      dup4\n      and\n        /* \"@thirdweb-dev/contracts/eip/ERC721A.sol\":12169:12217   */\n      tag_166\n      jumpi\n        /* \"@thirdweb-dev/contracts/eip/ERC721A.sol\":12198:12217   */\n      mload(0x40)\n      shl(0xe8, 0x2e0763)\n      dup2\n      mstore\n      0x04\n      add\n      mload(0x40)\n      dup1\n      swap2\n      sub\n      swap1\n      revert\n        /* \"@thirdweb-dev/contracts/eip/ERC721A.sol\":12169:12217   */\n    tag_166:\n        /* \"@thirdweb-dev/contracts/eip/ERC721A.sol\":12231:12239   */\n      dup2\n        /* \"@thirdweb-dev/contracts/eip/ERC721A.sol\":12243:12244   */\n      0x00\n        /* \"@thirdweb-dev/contracts/eip/ERC721A.sol\":12231:12244   */\n      sub\n        /* \"@thirdweb-dev/contracts/eip/ERC721A.sol\":12227:12271   */\n      tag_167\n      jumpi\n        /* \"@thirdweb-dev/contracts/eip/ERC721A.sol\":12253:12271   */\n      mload(0x40)\n      shl(0xe0, 0xb562e8dd)\n      dup2\n      mstore\n      0x04\n      add\n      mload(0x40)\n      dup1\n      swap2\n      sub\n      swap1\n      revert\n        /* \"@thirdweb-dev/contracts/eip/ERC721A.sol\":12227:12271   */\n    tag_167:\n      sub(shl(0xa0, 0x01), 0x01)\n        /* \"@thirdweb-dev/contracts/eip/ERC721A.sol\":12614:12630   */\n      dup4\n      and\n      0x00\n      dup2\n      dup2\n      mstore\n        /* \"@thirdweb-dev/contracts/eip/ERC721A.sol\":12614:12626   */\n      0x05\n        /* \"@thirdweb-dev/contracts/eip/ERC721A.sol\":12614:12630   */\n      0x20\n      swap1\n      dup2\n      mstore\n      0x40\n      dup1\n      dup4\n      keccak256\n        /* \"@thirdweb-dev/contracts/eip/ERC721A.sol\":12614:12658   */\n      dup1\n      sload\n      not(0xffffffffffffffffffffffffffffffff)\n        /* \"@thirdweb-dev/contracts/eip/ERC721A.sol\":12672:12721   */\n      dup2\n      and\n        /* \"@thirdweb-dev/contracts/eip/ERC721A.sol\":12614:12658   */\n      0xffffffffffffffff\n      dup1\n      dup4\n      and\n      dup11\n      add\n      dup2\n      and\n        /* \"@thirdweb-dev/contracts/eip/ERC721A.sol\":12672:12721   */\n      swap2\n      dup3\n      or\n      0x010000000000000000\n      not(0xffffffffffffffff)\n        /* \"@thirdweb-dev/contracts/eip/ERC721A.sol\":12614:12658   */\n      swap1\n      swap5\n      and\n      swap1\n      swap3\n      or\n        /* \"@thirdweb-dev/contracts/eip/ERC721A.sol\":12672:12721   */\n      dup4\n      swap1\n      div\n      dup2\n      and\n      dup11\n      add\n      dup2\n      and\n      swap1\n      swap3\n      mul\n      or\n      swap1\n      swap2\n      sstore\n        /* \"@thirdweb-dev/contracts/eip/ERC721A.sol\":12736:12761   */\n      dup6\n      dup5\n      mstore\n        /* \"@thirdweb-dev/contracts/eip/ERC721A.sol\":12736:12747   */\n      0x04\n        /* \"@thirdweb-dev/contracts/eip/ERC721A.sol\":12736:12761   */\n      swap1\n      swap3\n      mstore\n      swap1\n      swap2\n      keccak256\n        /* \"@thirdweb-dev/contracts/eip/ERC721A.sol\":12736:12771   */\n      dup1\n      sload\n      not(sub(shl(0xe0, 0x01), 0x01))\n        /* \"@thirdweb-dev/contracts/eip/ERC721A.sol\":12785:12851   */\n      and\n      swap1\n      swap3\n      or\n      shl(0xa0, 0x01)\n        /* \"@thirdweb-dev/contracts/eip/ERC721A.sol\":12835:12850   */\n      timestamp\n        /* \"@thirdweb-dev/contracts/eip/ERC721A.sol\":12785:12851   */\n      swap1\n      swap3\n      and\n      swap2\n      swap1\n      swap2\n      mul\n      or\n      swap1\n      sstore\n        /* \"@thirdweb-dev/contracts/eip/ERC721A.sol\":12736:12761   */\n      dup1\n        /* \"@thirdweb-dev/contracts/eip/ERC721A.sol\":12929:12952   */\n      dup1\n      dup4\n      add\n        /* \"@thirdweb-dev/contracts/eip/ERC721A.sol\":12967:13076   */\n    tag_170:\n        /* \"@thirdweb-dev/contracts/eip/ERC721A.sol\":12993:13033   */\n      mload(0x40)\n        /* \"@thirdweb-dev/contracts/eip/ERC721A.sol\":13018:13032   */\n      0x01\n      dup4\n      add\n      swap3\n      swap1\n      sub(shl(0xa0, 0x01), 0x01)\n        /* \"@thirdweb-dev/contracts/eip/ERC721A.sol\":12993:13033   */\n      dup8\n      and\n      swap1\n        /* \"@thirdweb-dev/contracts/eip/ERC721A.sol\":13010:13011   */\n      0x00\n      swap1\n        /* \"@thirdweb-dev/contracts/eip/ERC721A.sol\":12993:13033   */\n      0xddf252ad1be2c89b69c2b068fc378daa952ba7f163c4a11628f55a4df523b3ef\n      swap1\n        /* \"@thirdweb-dev/contracts/eip/ERC721A.sol\":13010:13011   */\n      dup3\n      swap1\n        /* \"@thirdweb-dev/contracts/eip/ERC721A.sol\":12993:13033   */\n      log4\n        /* \"@thirdweb-dev/contracts/eip/ERC721A.sol\":13071:13074   */\n      dup1\n        /* \"@thirdweb-dev/contracts/eip/ERC721A.sol\":13056:13068   */\n      dup3\n        /* \"@thirdweb-dev/contracts/eip/ERC721A.sol\":13056:13074   */\n      lt\n        /* \"@thirdweb-dev/contracts/eip/ERC721A.sol\":12967:13076   */\n      tag_170\n      jumpi\n      pop\n        /* \"@thirdweb-dev/contracts/eip/ERC721A.sol\":13090:13103   */\n      0x00\n        /* \"@thirdweb-dev/contracts/eip/ERC721A.sol\":13090:13118   */\n      sstore\n        /* \"@thirdweb-dev/contracts/eip/ERC721A.sol\":7195:7517   */\n      pop\n        /* \"@thirdweb-dev/contracts/eip/ERC721A.sol\":7133:7517   */\n      pop\n      pop\n      jump\t// out\n        /* \"@thirdweb-dev/contracts/eip/ERC721A.sol\":9421:9593   */\n    tag_108:\n        /* \"@thirdweb-dev/contracts/eip/ERC721A.sol\":9478:9482   */\n      0x00\n        /* \"@thirdweb-dev/contracts/eip/ERC721A.sol\":9520:9527   */\n      dup2\n        /* \"StoryNFT.sol\":1304:1305  1 */\n      0x01\n        /* \"@thirdweb-dev/contracts/eip/ERC721A.sol\":9501:9527   */\n      gt\n      iszero\n        /* \"@thirdweb-dev/contracts/eip/ERC721A.sol\":9501:9554   */\n      dup1\n      iszero\n      tag_178\n      jumpi\n      pop\n        /* \"@thirdweb-dev/contracts/eip/ERC721A.sol\":9541:9554   */\n      sload(0x00)\n        /* \"@thirdweb-dev/contracts/eip/ERC721A.sol\":9531:9538   */\n      dup3\n        /* \"@thirdweb-dev/contracts/eip/ERC721A.sol\":9531:9554   */\n      lt\n        /* \"@thirdweb-dev/contracts/eip/ERC721A.sol\":9501:9554   */\n    tag_178:\n        /* \"@thirdweb-dev/contracts/eip/ERC721A.sol\":9501:9586   */\n      dup1\n      iszero\n      tag_97\n      jumpi\n      pop\n      pop\n        /* \"@thirdweb-dev/contracts/eip/ERC721A.sol\":9559:9579   */\n      0x00\n      swap1\n      dup2\n      mstore\n        /* \"@thirdweb-dev/contracts/eip/ERC721A.sol\":9559:9570   */\n      0x04\n        /* \"@thirdweb-dev/contracts/eip/ERC721A.sol\":9559:9579   */\n      0x20\n      mstore\n      0x40\n      swap1\n      keccak256\n        /* \"@thirdweb-dev/contracts/eip/ERC721A.sol\":9559:9586   */\n      sload\n      shl(0xe0, 0x01)\n      swap1\n      div\n      0xff\n      and\n        /* \"@thirdweb-dev/contracts/eip/ERC721A.sol\":9558:9586   */\n      iszero\n      swap1\n        /* \"@thirdweb-dev/contracts/eip/ERC721A.sol\":9421:9593   */\n      jump\t// out\n        /* \"@thirdweb-dev/contracts/eip/ERC721A.sol\":18342:18501   */\n    tag_120:\n        /* \"@thirdweb-dev/contracts/eip/ERC721A.sol\":18422:18446   */\n      0x00\n      dup3\n      dup2\n      mstore\n        /* \"@thirdweb-dev/contracts/eip/ERC721A.sol\":18422:18437   */\n      0x06\n        /* \"@thirdweb-dev/contracts/eip/ERC721A.sol\":18422:18446   */\n      0x20\n      mstore\n      0x40\n      dup1\n      dup3\n      keccak256\n        /* \"@thirdweb-dev/contracts/eip/ERC721A.sol\":18422:18451   */\n      dup1\n      sload\n      0xffffffffffffffffffffffff0000000000000000000000000000000000000000\n      and\n      sub(shl(0xa0, 0x01), 0x01)\n      dup8\n      dup2\n      and\n      swap2\n      dup3\n      or\n      swap1\n      swap3\n      sstore\n        /* \"@thirdweb-dev/contracts/eip/ERC721A.sol\":18466:18494   */\n      swap2\n      mload\n        /* \"@thirdweb-dev/contracts/eip/ERC721A.sol\":18422:18446   */\n      dup6\n      swap4\n        /* \"@thirdweb-dev/contracts/eip/ERC721A.sol\":18466:18494   */\n      swap2\n      dup6\n      and\n      swap2\n      0x8c5be1e5ebec7d5bd14f71427d1e84f3dd0314c0f7b2291e5b200ac8c7c3b925\n      swap2\n      log4\n        /* \"@thirdweb-dev/contracts/eip/ERC721A.sol\":18342:18501   */\n      pop\n      pop\n      pop\n      jump\t// out\n        /* \"@thirdweb-dev/contracts/eip/ERC721A.sol\":13447:15499   */\n    tag_126:\n        /* \"@thirdweb-dev/contracts/eip/ERC721A.sol\":13527:13562   */\n      0x00\n        /* \"@thirdweb-dev/contracts/eip/ERC721A.sol\":13565:13586   */\n      tag_184\n        /* \"@thirdweb-dev/contracts/eip/ERC721A.sol\":13578:13585   */\n      dup3\n        /* \"@thirdweb-dev/contracts/eip/ERC721A.sol\":13565:13577   */\n      tag_131\n        /* \"@thirdweb-dev/contracts/eip/ERC721A.sol\":13565:13586   */\n      jump\t// in\n    tag_184:\n        /* \"@thirdweb-dev/contracts/eip/ERC721A.sol\":13527:13586   */\n      swap1\n      pop\n        /* \"@thirdweb-dev/contracts/eip/ERC721A.sol\":13623:13627   */\n      dup4\n      sub(shl(0xa0, 0x01), 0x01)\n        /* \"@thirdweb-dev/contracts/eip/ERC721A.sol\":13601:13627   */\n      and\n        /* \"@thirdweb-dev/contracts/eip/ERC721A.sol\":13601:13614   */\n      dup2\n        /* \"@thirdweb-dev/contracts/eip/ERC721A.sol\":13601:13619   */\n      0x00\n      add\n      mload\n      sub(shl(0xa0, 0x01), 0x01)\n        /* \"@thirdweb-dev/contracts/eip/ERC721A.sol\":13601:13627   */\n      and\n      eq\n        /* \"@thirdweb-dev/contracts/eip/ERC721A.sol\":13597:13664   */\n      tag_185\n      jumpi\n        /* \"@thirdweb-dev/contracts/eip/ERC721A.sol\":13636:13664   */\n      mload(0x40)\n      shl(0xe8, 0xa11481)\n      dup2\n      mstore\n      0x04\n      add\n      mload(0x40)\n      dup1\n      swap2\n      sub\n      swap1\n      revert\n        /* \"@thirdweb-dev/contracts/eip/ERC721A.sol\":13597:13664   */\n    tag_185:\n        /* \"@thirdweb-dev/contracts/eip/ERC721A.sol\":13675:13697   */\n      0x00\n        /* \"@thirdweb-dev/contracts/external-deps/openzeppelin/utils/Context.sol\":719:729   */\n      caller\n      sub(shl(0xa0, 0x01), 0x01)\n        /* \"@thirdweb-dev/contracts/eip/ERC721A.sol\":13701:13721   */\n      dup7\n      and\n      eq\n      dup1\n        /* \"@thirdweb-dev/contracts/eip/ERC721A.sol\":13701:13773   */\n      tag_188\n      jumpi\n      pop\n        /* \"@thirdweb-dev/contracts/eip/ERC721A.sol\":13737:13773   */\n      tag_188\n        /* \"@thirdweb-dev/contracts/eip/ERC721A.sol\":13754:13758   */\n      dup6\n        /* \"@thirdweb-dev/contracts/external-deps/openzeppelin/utils/Context.sol\":719:729   */\n      caller\n        /* \"@thirdweb-dev/contracts/eip/ERC721A.sol\":8193:8355   */\n      tag_82\n      jump\t// in\n        /* \"@thirdweb-dev/contracts/eip/ERC721A.sol\":13737:13773   */\n    tag_188:\n        /* \"@thirdweb-dev/contracts/eip/ERC721A.sol\":13701:13825   */\n      dup1\n      tag_190\n      jumpi\n      pop\n        /* \"@thirdweb-dev/contracts/external-deps/openzeppelin/utils/Context.sol\":719:729   */\n      caller\n        /* \"@thirdweb-dev/contracts/eip/ERC721A.sol\":13789:13809   */\n      tag_192\n        /* \"@thirdweb-dev/contracts/eip/ERC721A.sol\":13801:13808   */\n      dup5\n        /* \"@thirdweb-dev/contracts/eip/ERC721A.sol\":13789:13800   */\n      tag_40\n        /* \"@thirdweb-dev/contracts/eip/ERC721A.sol\":13789:13809   */\n      jump\t// in\n    tag_192:\n      sub(shl(0xa0, 0x01), 0x01)\n        /* \"@thirdweb-dev/contracts/eip/ERC721A.sol\":13789:13825   */\n      and\n      eq\n        /* \"@thirdweb-dev/contracts/eip/ERC721A.sol\":13701:13825   */\n    tag_190:\n        /* \"@thirdweb-dev/contracts/eip/ERC721A.sol\":13675:13826   */\n      swap1\n      pop\n        /* \"@thirdweb-dev/contracts/eip/ERC721A.sol\":13842:13859   */\n      dup1\n        /* \"@thirdweb-dev/contracts/eip/ERC721A.sol\":13837:13903   */\n      tag_193\n      jumpi\n        /* \"@thirdweb-dev/contracts/eip/ERC721A.sol\":13868:13903   */\n      mload(0x40)\n      shl(0xe1, 0x2ce44b5f)\n      dup2\n      mstore\n      0x04\n      add\n      mload(0x40)\n      dup1\n      swap2\n      sub\n      swap1\n      revert\n        /* \"@thirdweb-dev/contracts/eip/ERC721A.sol\":13837:13903   */\n    tag_193:\n      sub(shl(0xa0, 0x01), 0x01)\n        /* \"@thirdweb-dev/contracts/eip/ERC721A.sol\":13917:13933   */\n      dup5\n      and\n        /* \"@thirdweb-dev/contracts/eip/ERC721A.sol\":13913:13965   */\n      tag_194\n      jumpi\n        /* \"@thirdweb-dev/contracts/eip/ERC721A.sol\":13942:13965   */\n      mload(0x40)\n      shl(0xe2, 0x3a954ecd)\n      dup2\n      mstore\n      0x04\n      add\n      mload(0x40)\n      dup1\n      swap2\n      sub\n      swap1\n      revert\n        /* \"@thirdweb-dev/contracts/eip/ERC721A.sol\":13913:13965   */\n    tag_194:\n        /* \"@thirdweb-dev/contracts/eip/ERC721A.sol\":14081:14116   */\n      tag_196\n        /* \"@thirdweb-dev/contracts/eip/ERC721A.sol\":14098:14099   */\n      0x00\n        /* \"@thirdweb-dev/contracts/eip/ERC721A.sol\":14102:14109   */\n      dup5\n        /* \"@thirdweb-dev/contracts/eip/ERC721A.sol\":14111:14115   */\n      dup8\n        /* \"@thirdweb-dev/contracts/eip/ERC721A.sol\":14081:14089   */\n      tag_120\n        /* \"@thirdweb-dev/contracts/eip/ERC721A.sol\":14081:14116   */\n      jump\t// in\n    tag_196:\n      sub(shl(0xa0, 0x01), 0x01)\n        /* \"@thirdweb-dev/contracts/eip/ERC721A.sol\":14406:14424   */\n      dup6\n      dup2\n      and\n      0x00\n      swap1\n      dup2\n      mstore\n        /* \"@thirdweb-dev/contracts/eip/ERC721A.sol\":14406:14418   */\n      0x05\n        /* \"@thirdweb-dev/contracts/eip/ERC721A.sol\":14406:14424   */\n      0x20\n      swap1\n      dup2\n      mstore\n      0x40\n      dup1\n      dup4\n      keccak256\n        /* \"@thirdweb-dev/contracts/eip/ERC721A.sol\":14406:14437   */\n      dup1\n      sload\n      not(0xffffffffffffffff)\n      dup1\n      dup3\n      and\n      0xffffffffffffffff\n      swap3\n      dup4\n      and\n      not(0x00)\n      add\n      dup4\n      and\n      or\n      swap1\n      swap3\n      sstore\n        /* \"@thirdweb-dev/contracts/eip/ERC721A.sol\":14451:14467   */\n      dup10\n      dup7\n      and\n      dup1\n      dup7\n      mstore\n      dup4\n      dup7\n      keccak256\n        /* \"@thirdweb-dev/contracts/eip/ERC721A.sol\":14451:14480   */\n      dup1\n      sload\n      swap4\n      dup5\n      and\n      swap4\n      dup4\n      and\n      0x01\n      swap1\n      dup2\n      add\n      dup5\n      and\n      swap5\n      swap1\n      swap5\n      or\n      swap1\n      sstore\n        /* \"@thirdweb-dev/contracts/eip/ERC721A.sol\":14529:14549   */\n      dup10\n      dup7\n      mstore\n        /* \"@thirdweb-dev/contracts/eip/ERC721A.sol\":14529:14540   */\n      0x04\n        /* \"@thirdweb-dev/contracts/eip/ERC721A.sol\":14529:14549   */\n      swap1\n      swap5\n      mstore\n      dup3\n      dup6\n      keccak256\n        /* \"@thirdweb-dev/contracts/eip/ERC721A.sol\":14563:14581   */\n      dup1\n      sload\n      not(sub(shl(0xe0, 0x01), 0x01))\n        /* \"@thirdweb-dev/contracts/eip/ERC721A.sol\":14595:14644   */\n      and\n      swap1\n      swap5\n      or\n      shl(0xa0, 0x01)\n        /* \"@thirdweb-dev/contracts/eip/ERC721A.sol\":14628:14643   */\n      timestamp\n        /* \"@thirdweb-dev/contracts/eip/ERC721A.sol\":14595:14644   */\n      swap1\n      swap3\n      and\n      swap2\n      swap1\n      swap2\n      mul\n      or\n      dup4\n      sstore\n        /* \"@thirdweb-dev/contracts/eip/ERC721A.sol\":14914:14925   */\n      dup8\n      add\n        /* \"@thirdweb-dev/contracts/eip/ERC721A.sol\":14973:14997   */\n      dup1\n      dup5\n      mstore\n      swap3\n      keccak256\n        /* \"@thirdweb-dev/contracts/eip/ERC721A.sol\":15015:15028   */\n      dup1\n      sload\n        /* \"@thirdweb-dev/contracts/eip/ERC721A.sol\":14529:14549   */\n      swap2\n      swap4\n        /* \"@thirdweb-dev/contracts/eip/ERC721A.sol\":14973:14997   */\n      swap1\n      swap2\n        /* \"@thirdweb-dev/contracts/eip/ERC721A.sol\":15015:15028   */\n      and\n        /* \"@thirdweb-dev/contracts/eip/ERC721A.sol\":15011:15388   */\n      tag_198\n      jumpi\n        /* \"@thirdweb-dev/contracts/eip/ERC721A.sol\":15222:15235   */\n      sload(0x00)\n        /* \"@thirdweb-dev/contracts/eip/ERC721A.sol\":15207:15218   */\n      dup3\n        /* \"@thirdweb-dev/contracts/eip/ERC721A.sol\":15207:15235   */\n      eq\n        /* \"@thirdweb-dev/contracts/eip/ERC721A.sol\":15203:15374   */\n      tag_198\n      jumpi\n        /* \"@thirdweb-dev/contracts/eip/ERC721A.sol\":15259:15279   */\n      dup1\n      sload\n        /* \"@thirdweb-dev/contracts/eip/ERC721A.sol\":15327:15355   */\n      0x20\n      dup7\n      add\n      mload\n        /* \"@thirdweb-dev/contracts/eip/ERC721A.sol\":15301:15355   */\n      0xffffffffffffffff\n      and\n      shl(0xa0, 0x01)\n      mul\n      not(sub(shl(0xe0, 0x01), 0x01))\n      swap1\n      swap2\n      and\n      sub(shl(0xa0, 0x01), 0x01)\n        /* \"@thirdweb-dev/contracts/eip/ERC721A.sol\":15259:15279   */\n      dup11\n      and\n        /* \"@thirdweb-dev/contracts/eip/ERC721A.sol\":15301:15355   */\n      or\n      or\n      dup2\n      sstore\n        /* \"@thirdweb-dev/contracts/eip/ERC721A.sol\":15203:15374   */\n    tag_198:\n        /* \"@thirdweb-dev/contracts/eip/ERC721A.sol\":14382:15398   */\n      pop\n      pop\n      pop\n        /* \"@thirdweb-dev/contracts/eip/ERC721A.sol\":15432:15439   */\n      dup3\n        /* \"@thirdweb-dev/contracts/eip/ERC721A.sol\":15428:15430   */\n      dup5\n      sub(shl(0xa0, 0x01), 0x01)\n        /* \"@thirdweb-dev/contracts/eip/ERC721A.sol\":15413:15440   */\n      and\n        /* \"@thirdweb-dev/contracts/eip/ERC721A.sol\":15422:15426   */\n      dup7\n      sub(shl(0xa0, 0x01), 0x01)\n        /* \"@thirdweb-dev/contracts/eip/ERC721A.sol\":15413:15440   */\n      and\n      0xddf252ad1be2c89b69c2b068fc378daa952ba7f163c4a11628f55a4df523b3ef\n      mload(0x40)\n      mload(0x40)\n      dup1\n      swap2\n      sub\n      swap1\n      log4\n        /* \"@thirdweb-dev/contracts/eip/ERC721A.sol\":15450:15492   */\n    tag_199:\n        /* \"@thirdweb-dev/contracts/eip/ERC721A.sol\":13517:15499   */\n      pop\n      pop\n        /* \"@thirdweb-dev/contracts/eip/ERC721A.sol\":13447:15499   */\n      pop\n      pop\n      pop\n      jump\t// out\n        /* \"@thirdweb-dev/contracts/eip/ERC721A.sol\":4684:5858   */\n    tag_131:\n      0x40\n      dup1\n      mload\n      0x60\n      dup2\n      add\n      dup3\n      mstore\n      0x00\n      dup1\n      dup3\n      mstore\n      0x20\n      dup3\n      add\n      dup2\n      swap1\n      mstore\n      swap2\n      dup2\n      add\n      swap2\n      swap1\n      swap2\n      mstore\n        /* \"@thirdweb-dev/contracts/eip/ERC721A.sol\":4794:4801   */\n      dup2\n      dup1\n        /* \"StoryNFT.sol\":1304:1305  1 */\n      0x01\n        /* \"@thirdweb-dev/contracts/eip/ERC721A.sol\":4840:4863   */\n      gt\n        /* \"@thirdweb-dev/contracts/eip/ERC721A.sol\":4836:5794   */\n      tag_205\n      jumpi\n        /* \"@thirdweb-dev/contracts/eip/ERC721A.sol\":4892:4905   */\n      sload(0x00)\n        /* \"@thirdweb-dev/contracts/eip/ERC721A.sol\":4885:4889   */\n      dup2\n        /* \"@thirdweb-dev/contracts/eip/ERC721A.sol\":4885:4905   */\n      lt\n        /* \"@thirdweb-dev/contracts/eip/ERC721A.sol\":4881:5794   */\n      iszero\n      tag_205\n      jumpi\n        /* \"@thirdweb-dev/contracts/eip/ERC721A.sol\":4929:4960   */\n      0x00\n        /* \"@thirdweb-dev/contracts/eip/ERC721A.sol\":4963:4980   */\n      dup2\n      dup2\n      mstore\n        /* \"@thirdweb-dev/contracts/eip/ERC721A.sol\":4963:4974   */\n      0x04\n        /* \"@thirdweb-dev/contracts/eip/ERC721A.sol\":4963:4980   */\n      0x20\n      swap1\n      dup2\n      mstore\n      0x40\n      swap2\n      dup3\n      swap1\n      keccak256\n        /* \"@thirdweb-dev/contracts/eip/ERC721A.sol\":4929:4980   */\n      dup3\n      mload\n      0x60\n      dup2\n      add\n      dup5\n      mstore\n      swap1\n      sload\n      sub(shl(0xa0, 0x01), 0x01)\n      dup2\n      and\n      dup3\n      mstore\n      shl(0xa0, 0x01)\n      dup2\n      div\n      0xffffffffffffffff\n      and\n      swap3\n      dup3\n      add\n      swap3\n      swap1\n      swap3\n      mstore\n      shl(0xe0, 0x01)\n      swap1\n      swap2\n      div\n      0xff\n      and\n      iszero\n      iszero\n      swap2\n      dup2\n      add\n      dup3\n      swap1\n      mstore\n      swap1\n        /* \"@thirdweb-dev/contracts/eip/ERC721A.sol\":5002:5776   */\n      tag_209\n      jumpi\n        /* \"@thirdweb-dev/contracts/eip/ERC721A.sol\":5055:5069   */\n      dup1\n      mload\n      sub(shl(0xa0, 0x01), 0x01)\n        /* \"@thirdweb-dev/contracts/eip/ERC721A.sol\":5055:5083   */\n      and\n      iszero\n        /* \"@thirdweb-dev/contracts/eip/ERC721A.sol\":5051:5158   */\n      tag_207\n      jumpi\n        /* \"@thirdweb-dev/contracts/eip/ERC721A.sol\":5122:5131   */\n      swap4\n        /* \"@thirdweb-dev/contracts/eip/ERC721A.sol\":4684:5858   */\n      swap3\n      pop\n      pop\n      pop\n      jump\t// out\n        /* \"@thirdweb-dev/contracts/eip/ERC721A.sol\":5051:5158   */\n    tag_207:\n      pop\n      not(0x00)\n        /* \"@thirdweb-dev/contracts/eip/ERC721A.sol\":5518:5524   */\n      add\n        /* \"@thirdweb-dev/contracts/eip/ERC721A.sol\":5566:5583   */\n      0x00\n      dup2\n      dup2\n      mstore\n        /* \"@thirdweb-dev/contracts/eip/ERC721A.sol\":5566:5577   */\n      0x04\n        /* \"@thirdweb-dev/contracts/eip/ERC721A.sol\":5566:5583   */\n      0x20\n      swap1\n      dup2\n      mstore\n      0x40\n      swap2\n      dup3\n      swap1\n      keccak256\n        /* \"@thirdweb-dev/contracts/eip/ERC721A.sol\":5554:5583   */\n      dup3\n      mload\n      0x60\n      dup2\n      add\n      dup5\n      mstore\n      swap1\n      sload\n      sub(shl(0xa0, 0x01), 0x01)\n      dup2\n      and\n      dup1\n      dup4\n      mstore\n      shl(0xa0, 0x01)\n      dup3\n      div\n      0xffffffffffffffff\n      and\n      swap4\n      dup4\n      add\n      swap4\n      swap1\n      swap4\n      mstore\n      shl(0xe0, 0x01)\n      swap1\n      div\n      0xff\n      and\n      iszero\n      iszero\n      swap3\n      dup2\n      add\n      swap3\n      swap1\n      swap3\n      mstore\n        /* \"@thirdweb-dev/contracts/eip/ERC721A.sol\":5617:5645   */\n      iszero\n        /* \"@thirdweb-dev/contracts/eip/ERC721A.sol\":5613:5728   */\n      tag_210\n      jumpi\n        /* \"@thirdweb-dev/contracts/eip/ERC721A.sol\":5688:5697   */\n      swap4\n        /* \"@thirdweb-dev/contracts/eip/ERC721A.sol\":4684:5858   */\n      swap3\n      pop\n      pop\n      pop\n      jump\t// out\n        /* \"@thirdweb-dev/contracts/eip/ERC721A.sol\":5613:5728   */\n    tag_210:\n        /* \"@thirdweb-dev/contracts/eip/ERC721A.sol\":5475:5754   */\n      jump(tag_207)\n    tag_209:\n        /* \"@thirdweb-dev/contracts/eip/ERC721A.sol\":4907:5794   */\n      pop\n        /* \"@thirdweb-dev/contracts/eip/ERC721A.sol\":4881:5794   */\n    tag_205:\n        /* \"@thirdweb-dev/contracts/eip/ERC721A.sol\":5820:5851   */\n      mload(0x40)\n      shl(0xe1, 0x6f96cda1)\n      dup2\n      mstore\n      0x04\n      add\n      mload(0x40)\n      dup1\n      swap2\n      sub\n      swap1\n      revert\n        /* \"@thirdweb-dev/contracts/eip/ERC721A.sol\":18982:19632   */\n    tag_152:\n        /* \"@thirdweb-dev/contracts/eip/ERC721A.sol\":19160:19232   */\n      mload(0x40)\n      shl(0xe1, 0x0a85bd01)\n      dup2\n      mstore\n        /* \"@thirdweb-dev/contracts/eip/ERC721A.sol\":19140:19144   */\n      0x00\n      swap1\n      sub(shl(0xa0, 0x01), 0x01)\n        /* \"@thirdweb-dev/contracts/eip/ERC721A.sol\":19160:19196   */\n      dup6\n      and\n      swap1\n      0x150b7a02\n      swap1\n        /* \"@thirdweb-dev/contracts/eip/ERC721A.sol\":19160:19232   */\n      tag_214\n      swap1\n        /* \"@thirdweb-dev/contracts/external-deps/openzeppelin/utils/Context.sol\":719:729   */\n      caller\n      swap1\n        /* \"@thirdweb-dev/contracts/eip/ERC721A.sol\":19211:19215   */\n      dup10\n      swap1\n        /* \"@thirdweb-dev/contracts/eip/ERC721A.sol\":19217:19224   */\n      dup9\n      swap1\n        /* \"@thirdweb-dev/contracts/eip/ERC721A.sol\":19226:19231   */\n      dup9\n      swap1\n        /* \"@thirdweb-dev/contracts/eip/ERC721A.sol\":19160:19232   */\n      0x04\n      add\n      tag_215\n      jump\t// in\n    tag_214:\n      0x20\n      mload(0x40)\n      dup1\n      dup4\n      sub\n      dup2\n      0x00\n      dup8\n      gas\n      call\n      swap3\n      pop\n      pop\n      pop\n      dup1\n      iszero\n      tag_216\n      jumpi\n      pop\n      0x40\n      dup1\n      mload\n      0x1f\n      returndatasize\n      swap1\n      dup2\n      add\n      not(0x1f)\n      and\n      dup3\n      add\n      swap1\n      swap3\n      mstore\n      tag_217\n      swap2\n      dup2\n      add\n      swap1\n      tag_218\n      jump\t// in\n    tag_217:\n      0x01\n    tag_216:\n        /* \"@thirdweb-dev/contracts/eip/ERC721A.sol\":19156:19626   */\n      tag_219\n      jumpi\n      returndatasize\n      dup1\n      dup1\n      iszero\n      tag_224\n      jumpi\n      mload(0x40)\n      swap2\n      pop\n      and(add(returndatasize, 0x3f), not(0x1f))\n      dup3\n      add\n      0x40\n      mstore\n      returndatasize\n      dup3\n      mstore\n      returndatasize\n      0x00\n      0x20\n      dup5\n      add\n      returndatacopy\n      jump(tag_223)\n    tag_224:\n      0x60\n      swap2\n      pop\n    tag_223:\n      pop\n        /* \"@thirdweb-dev/contracts/eip/ERC721A.sol\":19391:19397   */\n      dup1\n        /* \"@thirdweb-dev/contracts/eip/ERC721A.sol\":19391:19404   */\n      mload\n        /* \"@thirdweb-dev/contracts/eip/ERC721A.sol\":19408:19409   */\n      0x00\n        /* \"@thirdweb-dev/contracts/eip/ERC721A.sol\":19391:19409   */\n      sub\n        /* \"@thirdweb-dev/contracts/eip/ERC721A.sol\":19387:19616   */\n      tag_225\n      jumpi\n        /* \"@thirdweb-dev/contracts/eip/ERC721A.sol\":19436:19476   */\n      mload(0x40)\n      shl(0xe1, 0x68d2bf6b)\n      dup2\n      mstore\n      0x04\n      add\n      mload(0x40)\n      dup1\n      swap2\n      sub\n      swap1\n      revert\n        /* \"@thirdweb-dev/contracts/eip/ERC721A.sol\":19387:19616   */\n    tag_225:\n        /* \"@thirdweb-dev/contracts/eip/ERC721A.sol\":19576:19582   */\n      dup1\n        /* \"@thirdweb-dev/contracts/eip/ERC721A.sol\":19570:19583   */\n      mload\n        /* \"@thirdweb-dev/contracts/eip/ERC721A.sol\":19561:19567   */\n      dup2\n        /* \"@thirdweb-dev/contracts/eip/ERC721A.sol\":19557:19559   */\n      0x20\n        /* \"@thirdweb-dev/contracts/eip/ERC721A.sol\":19553:19568   */\n      add\n        /* \"@thirdweb-dev/contracts/eip/ERC721A.sol\":19546:19584   */\n      revert\n        /* \"@thirdweb-dev/contracts/eip/ERC721A.sol\":19156:19626   */\n    tag_219:\n      not(sub(shl(0xe0, 0x01), 0x01))\n        /* \"@thirdweb-dev/contracts/eip/ERC721A.sol\":19278:19333   */\n      and\n      shl(0xe1, 0x0a85bd01)\n      eq\n      swap1\n      pop\n        /* \"@thirdweb-dev/contracts/eip/ERC721A.sol\":18982:19632   */\n      swap5\n      swap4\n      pop\n      pop\n      pop\n      pop\n      jump\t// out\n        /* \"#utility.yul\":14:210   */\n    tag_230:\n        /* \"#utility.yul\":82:102   */\n      dup1\n      calldataload\n      sub(shl(0xa0, 0x01), 0x01)\n        /* \"#utility.yul\":131:185   */\n      dup2\n      and\n        /* \"#utility.yul\":121:186   */\n      dup2\n      eq\n        /* \"#utility.yul\":111:204   */\n      tag_239\n      jumpi\n        /* \"#utility.yul\":200:201   */\n      0x00\n        /* \"#utility.yul\":197:198   */\n      dup1\n        /* \"#utility.yul\":190:202   */\n      revert\n        /* \"#utility.yul\":111:204   */\n    tag_239:\n        /* \"#utility.yul\":14:210   */\n      swap2\n      swap1\n      pop\n      jump\t// out\n        /* \"#utility.yul\":215:881   */\n    tag_23:\n        /* \"#utility.yul\":295:301   */\n      0x00\n        /* \"#utility.yul\":303:309   */\n      dup1\n        /* \"#utility.yul\":311:317   */\n      0x00\n        /* \"#utility.yul\":364:366   */\n      0x40\n        /* \"#utility.yul\":352:361   */\n      dup5\n        /* \"#utility.yul\":343:350   */\n      dup7\n        /* \"#utility.yul\":339:362   */\n      sub\n        /* \"#utility.yul\":335:367   */\n      slt\n        /* \"#utility.yul\":332:384   */\n      iszero\n      tag_241\n      jumpi\n        /* \"#utility.yul\":380:381   */\n      0x00\n        /* \"#utility.yul\":377:378   */\n      dup1\n        /* \"#utility.yul\":370:382   */\n      revert\n        /* \"#utility.yul\":332:384   */\n    tag_241:\n        /* \"#utility.yul\":403:432   */\n      tag_242\n        /* \"#utility.yul\":422:431   */\n      dup5\n        /* \"#utility.yul\":403:432   */\n      tag_230\n      jump\t// in\n    tag_242:\n        /* \"#utility.yul\":393:432   */\n      swap3\n      pop\n        /* \"#utility.yul\":483:485   */\n      0x20\n        /* \"#utility.yul\":472:481   */\n      dup5\n        /* \"#utility.yul\":468:486   */\n      add\n        /* \"#utility.yul\":455:487   */\n      calldataload\n        /* \"#utility.yul\":506:524   */\n      0xffffffffffffffff\n        /* \"#utility.yul\":547:549   */\n      dup1\n        /* \"#utility.yul\":539:545   */\n      dup3\n        /* \"#utility.yul\":536:550   */\n      gt\n        /* \"#utility.yul\":533:567   */\n      iszero\n      tag_243\n      jumpi\n        /* \"#utility.yul\":563:564   */\n      0x00\n        /* \"#utility.yul\":560:561   */\n      dup1\n        /* \"#utility.yul\":553:565   */\n      revert\n        /* \"#utility.yul\":533:567   */\n    tag_243:\n        /* \"#utility.yul\":601:607   */\n      dup2\n        /* \"#utility.yul\":590:599   */\n      dup7\n        /* \"#utility.yul\":586:608   */\n      add\n        /* \"#utility.yul\":576:608   */\n      swap2\n      pop\n        /* \"#utility.yul\":646:653   */\n      dup7\n        /* \"#utility.yul\":639:643   */\n      0x1f\n        /* \"#utility.yul\":635:637   */\n      dup4\n        /* \"#utility.yul\":631:644   */\n      add\n        /* \"#utility.yul\":627:654   */\n      slt\n        /* \"#utility.yul\":617:672   */\n      tag_244\n      jumpi\n        /* \"#utility.yul\":668:669   */\n      0x00\n        /* \"#utility.yul\":665:666   */\n      dup1\n        /* \"#utility.yul\":658:670   */\n      revert\n        /* \"#utility.yul\":617:672   */\n    tag_244:\n        /* \"#utility.yul\":708:710   */\n      dup2\n        /* \"#utility.yul\":695:711   */\n      calldataload\n        /* \"#utility.yul\":734:736   */\n      dup2\n        /* \"#utility.yul\":726:732   */\n      dup2\n        /* \"#utility.yul\":723:737   */\n      gt\n        /* \"#utility.yul\":720:754   */\n      iszero\n      tag_245\n      jumpi\n        /* \"#utility.yul\":750:751   */\n      0x00\n        /* \"#utility.yul\":747:748   */\n      dup1\n        /* \"#utility.yul\":740:752   */\n      revert\n        /* \"#utility.yul\":720:754   */\n    tag_245:\n        /* \"#utility.yul\":795:802   */\n      dup8\n        /* \"#utility.yul\":790:792   */\n      0x20\n        /* \"#utility.yul\":781:787   */\n      dup3\n        /* \"#utility.yul\":777:779   */\n      dup6\n        /* \"#utility.yul\":773:788   */\n      add\n        /* \"#utility.yul\":769:793   */\n      add\n        /* \"#utility.yul\":766:803   */\n      gt\n        /* \"#utility.yul\":763:820   */\n      iszero\n      tag_246\n      jumpi\n        /* \"#utility.yul\":816:817   */\n      0x00\n        /* \"#utility.yul\":813:814   */\n      dup1\n        /* \"#utility.yul\":806:818   */\n      revert\n        /* \"#utility.yul\":763:820   */\n    tag_246:\n        /* \"#utility.yul\":847:849   */\n      0x20\n        /* \"#utility.yul\":843:845   */\n      dup4\n        /* \"#utility.yul\":839:850   */\n      add\n        /* \"#utility.yul\":829:850   */\n      swap5\n      pop\n        /* \"#utility.yul\":869:875   */\n      dup1\n        /* \"#utility.yul\":859:875   */\n      swap4\n      pop\n      pop\n      pop\n      pop\n        /* \"#utility.yul\":215:881   */\n      swap3\n      pop\n      swap3\n      pop\n      swap3\n      jump\t// out\n        /* \"#utility.yul\":1068:1199   */\n    tag_231:\n      not(sub(shl(0xe0, 0x01), 0x01))\n        /* \"#utility.yul\":1142:1174   */\n      dup2\n      and\n        /* \"#utility.yul\":1132:1175   */\n      dup2\n      eq\n        /* \"#utility.yul\":1122:1193   */\n      tag_249\n      jumpi\n        /* \"#utility.yul\":1189:1190   */\n      0x00\n        /* \"#utility.yul\":1186:1187   */\n      dup1\n        /* \"#utility.yul\":1179:1191   */\n      revert\n        /* \"#utility.yul\":1122:1193   */\n    tag_249:\n        /* \"#utility.yul\":1068:1199   */\n      pop\n      jump\t// out\n        /* \"#utility.yul\":1204:1449   */\n    tag_29:\n        /* \"#utility.yul\":1262:1268   */\n      0x00\n        /* \"#utility.yul\":1315:1317   */\n      0x20\n        /* \"#utility.yul\":1303:1312   */\n      dup3\n        /* \"#utility.yul\":1294:1301   */\n      dup5\n        /* \"#utility.yul\":1290:1313   */\n      sub\n        /* \"#utility.yul\":1286:1318   */\n      slt\n        /* \"#utility.yul\":1283:1335   */\n      iszero\n      tag_251\n      jumpi\n        /* \"#utility.yul\":1331:1332   */\n      0x00\n        /* \"#utility.yul\":1328:1329   */\n      dup1\n        /* \"#utility.yul\":1321:1333   */\n      revert\n        /* \"#utility.yul\":1283:1335   */\n    tag_251:\n        /* \"#utility.yul\":1370:1379   */\n      dup2\n        /* \"#utility.yul\":1357:1380   */\n      calldataload\n        /* \"#utility.yul\":1389:1419   */\n      tag_252\n        /* \"#utility.yul\":1413:1418   */\n      dup2\n        /* \"#utility.yul\":1389:1419   */\n      tag_231\n      jump\t// in\n    tag_252:\n        /* \"#utility.yul\":1438:1443   */\n      swap4\n        /* \"#utility.yul\":1204:1449   */\n      swap3\n      pop\n      pop\n      pop\n      jump\t// out\n        /* \"#utility.yul\":1646:1935   */\n    tag_232:\n        /* \"#utility.yul\":1688:1691   */\n      0x00\n        /* \"#utility.yul\":1726:1731   */\n      dup2\n        /* \"#utility.yul\":1720:1732   */\n      mload\n        /* \"#utility.yul\":1753:1759   */\n      dup1\n        /* \"#utility.yul\":1748:1751   */\n      dup5\n        /* \"#utility.yul\":1741:1760   */\n      mstore\n        /* \"#utility.yul\":1809:1815   */\n      dup1\n        /* \"#utility.yul\":1802:1806   */\n      0x20\n        /* \"#utility.yul\":1795:1800   */\n      dup5\n        /* \"#utility.yul\":1791:1807   */\n      add\n        /* \"#utility.yul\":1784:1788   */\n      0x20\n        /* \"#utility.yul\":1779:1782   */\n      dup7\n        /* \"#utility.yul\":1775:1789   */\n      add\n        /* \"#utility.yul\":1769:1816   */\n      mcopy\n        /* \"#utility.yul\":1861:1862   */\n      0x00\n        /* \"#utility.yul\":1854:1858   */\n      0x20\n        /* \"#utility.yul\":1845:1851   */\n      dup3\n        /* \"#utility.yul\":1840:1843   */\n      dup7\n        /* \"#utility.yul\":1836:1852   */\n      add\n        /* \"#utility.yul\":1832:1859   */\n      add\n        /* \"#utility.yul\":1825:1863   */\n      mstore\n        /* \"#utility.yul\":1924:1928   */\n      0x20\n        /* \"#utility.yul\":1917:1919   */\n      0x1f\n        /* \"#utility.yul\":1913:1920   */\n      not\n        /* \"#utility.yul\":1908:1910   */\n      0x1f\n        /* \"#utility.yul\":1900:1906   */\n      dup4\n        /* \"#utility.yul\":1896:1911   */\n      add\n        /* \"#utility.yul\":1892:1921   */\n      and\n        /* \"#utility.yul\":1887:1890   */\n      dup6\n        /* \"#utility.yul\":1883:1922   */\n      add\n        /* \"#utility.yul\":1879:1929   */\n      add\n        /* \"#utility.yul\":1872:1929   */\n      swap2\n      pop\n      pop\n        /* \"#utility.yul\":1646:1935   */\n      swap3\n      swap2\n      pop\n      pop\n      jump\t// out\n        /* \"#utility.yul\":1940:2160   */\n    tag_36:\n        /* \"#utility.yul\":2089:2091   */\n      0x20\n        /* \"#utility.yul\":2078:2087   */\n      dup2\n        /* \"#utility.yul\":2071:2092   */\n      mstore\n        /* \"#utility.yul\":2052:2056   */\n      0x00\n        /* \"#utility.yul\":2109:2154   */\n      tag_252\n        /* \"#utility.yul\":2150:2152   */\n      0x20\n        /* \"#utility.yul\":2139:2148   */\n      dup4\n        /* \"#utility.yul\":2135:2153   */\n      add\n        /* \"#utility.yul\":2127:2133   */\n      dup5\n        /* \"#utility.yul\":2109:2154   */\n      tag_232\n      jump\t// in\n        /* \"#utility.yul\":2165:2345   */\n    tag_39:\n        /* \"#utility.yul\":2224:2230   */\n      0x00\n        /* \"#utility.yul\":2277:2279   */\n      0x20\n        /* \"#utility.yul\":2265:2274   */\n      dup3\n        /* \"#utility.yul\":2256:2263   */\n      dup5\n        /* \"#utility.yul\":2252:2275   */\n      sub\n        /* \"#utility.yul\":2248:2280   */\n      slt\n        /* \"#utility.yul\":2245:2297   */\n      iszero\n      tag_258\n      jumpi\n        /* \"#utility.yul\":2293:2294   */\n      0x00\n        /* \"#utility.yul\":2290:2291   */\n      dup1\n        /* \"#utility.yul\":2283:2295   */\n      revert\n        /* \"#utility.yul\":2245:2297   */\n    tag_258:\n      pop\n        /* \"#utility.yul\":2316:2339   */\n      calldataload\n      swap2\n        /* \"#utility.yul\":2165:2345   */\n      swap1\n      pop\n      jump\t// out\n        /* \"#utility.yul\":2581:2835   */\n    tag_45:\n        /* \"#utility.yul\":2649:2655   */\n      0x00\n        /* \"#utility.yul\":2657:2663   */\n      dup1\n        /* \"#utility.yul\":2710:2712   */\n      0x40\n        /* \"#utility.yul\":2698:2707   */\n      dup4\n        /* \"#utility.yul\":2689:2696   */\n      dup6\n        /* \"#utility.yul\":2685:2708   */\n      sub\n        /* \"#utility.yul\":2681:2713   */\n      slt\n        /* \"#utility.yul\":2678:2730   */\n      iszero\n      tag_261\n      jumpi\n        /* \"#utility.yul\":2726:2727   */\n      0x00\n        /* \"#utility.yul\":2723:2724   */\n      dup1\n        /* \"#utility.yul\":2716:2728   */\n      revert\n        /* \"#utility.yul\":2678:2730   */\n    tag_261:\n        /* \"#utility.yul\":2749:2778   */\n      tag_262\n        /* \"#utility.yul\":2768:2777   */\n      dup4\n        /* \"#utility.yul\":2749:2778   */\n      tag_230\n      jump\t// in\n    tag_262:\n        /* \"#utility.yul\":2739:2778   */\n      swap5\n        /* \"#utility.yul\":2825:2827   */\n      0x20\n        /* \"#utility.yul\":2810:2828   */\n      swap4\n      swap1\n      swap4\n      add\n        /* \"#utility.yul\":2797:2829   */\n      calldataload\n      swap4\n      pop\n      pop\n      pop\n        /* \"#utility.yul\":2581:2835   */\n      jump\t// out\n        /* \"#utility.yul\":2840:3168   */\n    tag_52:\n        /* \"#utility.yul\":2917:2923   */\n      0x00\n        /* \"#utility.yul\":2925:2931   */\n      dup1\n        /* \"#utility.yul\":2933:2939   */\n      0x00\n        /* \"#utility.yul\":2986:2988   */\n      0x60\n        /* \"#utility.yul\":2974:2983   */\n      dup5\n        /* \"#utility.yul\":2965:2972   */\n      dup7\n        /* \"#utility.yul\":2961:2984   */\n      sub\n        /* \"#utility.yul\":2957:2989   */\n      slt\n        /* \"#utility.yul\":2954:3006   */\n      iszero\n      tag_264\n      jumpi\n        /* \"#utility.yul\":3002:3003   */\n      0x00\n        /* \"#utility.yul\":2999:3000   */\n      dup1\n        /* \"#utility.yul\":2992:3004   */\n      revert\n        /* \"#utility.yul\":2954:3006   */\n    tag_264:\n        /* \"#utility.yul\":3025:3054   */\n      tag_265\n        /* \"#utility.yul\":3044:3053   */\n      dup5\n        /* \"#utility.yul\":3025:3054   */\n      tag_230\n      jump\t// in\n    tag_265:\n        /* \"#utility.yul\":3015:3054   */\n      swap3\n      pop\n        /* \"#utility.yul\":3073:3111   */\n      tag_266\n        /* \"#utility.yul\":3107:3109   */\n      0x20\n        /* \"#utility.yul\":3096:3105   */\n      dup6\n        /* \"#utility.yul\":3092:3110   */\n      add\n        /* \"#utility.yul\":3073:3111   */\n      tag_230\n      jump\t// in\n    tag_266:\n        /* \"#utility.yul\":3063:3111   */\n      swap2\n      pop\n        /* \"#utility.yul\":3158:3160   */\n      0x40\n        /* \"#utility.yul\":3147:3156   */\n      dup5\n        /* \"#utility.yul\":3143:3161   */\n      add\n        /* \"#utility.yul\":3130:3162   */\n      calldataload\n        /* \"#utility.yul\":3120:3162   */\n      swap1\n      pop\n        /* \"#utility.yul\":2840:3168   */\n      swap3\n      pop\n      swap3\n      pop\n      swap3\n      jump\t// out\n        /* \"#utility.yul\":3173:3359   */\n    tag_63:\n        /* \"#utility.yul\":3232:3238   */\n      0x00\n        /* \"#utility.yul\":3285:3287   */\n      0x20\n        /* \"#utility.yul\":3273:3282   */\n      dup3\n        /* \"#utility.yul\":3264:3271   */\n      dup5\n        /* \"#utility.yul\":3260:3283   */\n      sub\n        /* \"#utility.yul\":3256:3288   */\n      slt\n        /* \"#utility.yul\":3253:3305   */\n      iszero\n      tag_268\n      jumpi\n        /* \"#utility.yul\":3301:3302   */\n      0x00\n        /* \"#utility.yul\":3298:3299   */\n      dup1\n        /* \"#utility.yul\":3291:3303   */\n      revert\n        /* \"#utility.yul\":3253:3305   */\n    tag_268:\n        /* \"#utility.yul\":3324:3353   */\n      tag_252\n        /* \"#utility.yul\":3343:3352   */\n      dup3\n        /* \"#utility.yul\":3324:3353   */\n      tag_230\n      jump\t// in\n        /* \"#utility.yul\":3364:3711   */\n    tag_71:\n        /* \"#utility.yul\":3429:3435   */\n      0x00\n        /* \"#utility.yul\":3437:3443   */\n      dup1\n        /* \"#utility.yul\":3490:3492   */\n      0x40\n        /* \"#utility.yul\":3478:3487   */\n      dup4\n        /* \"#utility.yul\":3469:3476   */\n      dup6\n        /* \"#utility.yul\":3465:3488   */\n      sub\n        /* \"#utility.yul\":3461:3493   */\n      slt\n        /* \"#utility.yul\":3458:3510   */\n      iszero\n      tag_271\n      jumpi\n        /* \"#utility.yul\":3506:3507   */\n      0x00\n        /* \"#utility.yul\":3503:3504   */\n      dup1\n        /* \"#utility.yul\":3496:3508   */\n      revert\n        /* \"#utility.yul\":3458:3510   */\n    tag_271:\n        /* \"#utility.yul\":3529:3558   */\n      tag_272\n        /* \"#utility.yul\":3548:3557   */\n      dup4\n        /* \"#utility.yul\":3529:3558   */\n      tag_230\n      jump\t// in\n    tag_272:\n        /* \"#utility.yul\":3519:3558   */\n      swap2\n      pop\n        /* \"#utility.yul\":3608:3610   */\n      0x20\n        /* \"#utility.yul\":3597:3606   */\n      dup4\n        /* \"#utility.yul\":3593:3611   */\n      add\n        /* \"#utility.yul\":3580:3612   */\n      calldataload\n        /* \"#utility.yul\":3655:3660   */\n      dup1\n        /* \"#utility.yul\":3648:3661   */\n      iszero\n        /* \"#utility.yul\":3641:3662   */\n      iszero\n        /* \"#utility.yul\":3634:3639   */\n      dup2\n        /* \"#utility.yul\":3631:3663   */\n      eq\n        /* \"#utility.yul\":3621:3681   */\n      tag_273\n      jumpi\n        /* \"#utility.yul\":3677:3678   */\n      0x00\n        /* \"#utility.yul\":3674:3675   */\n      dup1\n        /* \"#utility.yul\":3667:3679   */\n      revert\n        /* \"#utility.yul\":3621:3681   */\n    tag_273:\n        /* \"#utility.yul\":3700:3705   */\n      dup1\n        /* \"#utility.yul\":3690:3705   */\n      swap2\n      pop\n      pop\n        /* \"#utility.yul\":3364:3711   */\n      swap3\n      pop\n      swap3\n      swap1\n      pop\n      jump\t// out\n        /* \"#utility.yul\":3716:3843   */\n    tag_233:\n        /* \"#utility.yul\":3777:3787   */\n      0x4e487b71\n        /* \"#utility.yul\":3772:3775   */\n      0xe0\n        /* \"#utility.yul\":3768:3788   */\n      shl\n        /* \"#utility.yul\":3765:3766   */\n      0x00\n        /* \"#utility.yul\":3758:3789   */\n      mstore\n        /* \"#utility.yul\":3808:3812   */\n      0x41\n        /* \"#utility.yul\":3805:3806   */\n      0x04\n        /* \"#utility.yul\":3798:3813   */\n      mstore\n        /* \"#utility.yul\":3832:3836   */\n      0x24\n        /* \"#utility.yul\":3829:3830   */\n      0x00\n        /* \"#utility.yul\":3822:3837   */\n      revert\n        /* \"#utility.yul\":3848:4986   */\n    tag_75:\n        /* \"#utility.yul\":3943:3949   */\n      0x00\n        /* \"#utility.yul\":3951:3957   */\n      dup1\n        /* \"#utility.yul\":3959:3965   */\n      0x00\n        /* \"#utility.yul\":3967:3973   */\n      dup1\n        /* \"#utility.yul\":4020:4023   */\n      0x80\n        /* \"#utility.yul\":4008:4017   */\n      dup6\n        /* \"#utility.yul\":3999:4006   */\n      dup8\n        /* \"#utility.yul\":3995:4018   */\n      sub\n        /* \"#utility.yul\":3991:4024   */\n      slt\n        /* \"#utility.yul\":3988:4041   */\n      iszero\n      tag_276\n      jumpi\n        /* \"#utility.yul\":4037:4038   */\n      0x00\n        /* \"#utility.yul\":4034:4035   */\n      dup1\n        /* \"#utility.yul\":4027:4039   */\n      revert\n        /* \"#utility.yul\":3988:4041   */\n    tag_276:\n        /* \"#utility.yul\":4060:4089   */\n      tag_277\n        /* \"#utility.yul\":4079:4088   */\n      dup6\n        /* \"#utility.yul\":4060:4089   */\n      tag_230\n      jump\t// in\n    tag_277:\n        /* \"#utility.yul\":4050:4089   */\n      swap4\n      pop\n        /* \"#utility.yul\":4108:4146   */\n      tag_278\n        /* \"#utility.yul\":4142:4144   */\n      0x20\n        /* \"#utility.yul\":4131:4140   */\n      dup7\n        /* \"#utility.yul\":4127:4145   */\n      add\n        /* \"#utility.yul\":4108:4146   */\n      tag_230\n      jump\t// in\n    tag_278:\n        /* \"#utility.yul\":4098:4146   */\n      swap3\n      pop\n        /* \"#utility.yul\":4193:4195   */\n      0x40\n        /* \"#utility.yul\":4182:4191   */\n      dup6\n        /* \"#utility.yul\":4178:4196   */\n      add\n        /* \"#utility.yul\":4165:4197   */\n      calldataload\n        /* \"#utility.yul\":4155:4197   */\n      swap2\n      pop\n        /* \"#utility.yul\":4248:4250   */\n      0x60\n        /* \"#utility.yul\":4237:4246   */\n      dup6\n        /* \"#utility.yul\":4233:4251   */\n      add\n        /* \"#utility.yul\":4220:4252   */\n      calldataload\n        /* \"#utility.yul\":4271:4289   */\n      0xffffffffffffffff\n        /* \"#utility.yul\":4312:4314   */\n      dup1\n        /* \"#utility.yul\":4304:4310   */\n      dup3\n        /* \"#utility.yul\":4301:4315   */\n      gt\n        /* \"#utility.yul\":4298:4332   */\n      iszero\n      tag_279\n      jumpi\n        /* \"#utility.yul\":4328:4329   */\n      0x00\n        /* \"#utility.yul\":4325:4326   */\n      dup1\n        /* \"#utility.yul\":4318:4330   */\n      revert\n        /* \"#utility.yul\":4298:4332   */\n    tag_279:\n        /* \"#utility.yul\":4366:4372   */\n      dup2\n        /* \"#utility.yul\":4355:4364   */\n      dup8\n        /* \"#utility.yul\":4351:4373   */\n      add\n        /* \"#utility.yul\":4341:4373   */\n      swap2\n      pop\n        /* \"#utility.yul\":4411:4418   */\n      dup8\n        /* \"#utility.yul\":4404:4408   */\n      0x1f\n        /* \"#utility.yul\":4400:4402   */\n      dup4\n        /* \"#utility.yul\":4396:4409   */\n      add\n        /* \"#utility.yul\":4392:4419   */\n      slt\n        /* \"#utility.yul\":4382:4437   */\n      tag_280\n      jumpi\n        /* \"#utility.yul\":4433:4434   */\n      0x00\n        /* \"#utility.yul\":4430:4431   */\n      dup1\n        /* \"#utility.yul\":4423:4435   */\n      revert\n        /* \"#utility.yul\":4382:4437   */\n    tag_280:\n        /* \"#utility.yul\":4469:4471   */\n      dup2\n        /* \"#utility.yul\":4456:4472   */\n      calldataload\n        /* \"#utility.yul\":4491:4493   */\n      dup2\n        /* \"#utility.yul\":4487:4489   */\n      dup2\n        /* \"#utility.yul\":4484:4494   */\n      gt\n        /* \"#utility.yul\":4481:4517   */\n      iszero\n      tag_282\n      jumpi\n        /* \"#utility.yul\":4497:4515   */\n      tag_282\n      tag_233\n      jump\t// in\n    tag_282:\n        /* \"#utility.yul\":4572:4574   */\n      0x40\n        /* \"#utility.yul\":4566:4575   */\n      mload\n        /* \"#utility.yul\":4540:4542   */\n      0x1f\n        /* \"#utility.yul\":4626:4639   */\n      dup3\n      add\n      not(0x1f)\n        /* \"#utility.yul\":4622:4644   */\n      swap1\n      dup2\n      and\n        /* \"#utility.yul\":4646:4648   */\n      0x3f\n        /* \"#utility.yul\":4618:4649   */\n      add\n        /* \"#utility.yul\":4614:4654   */\n      and\n        /* \"#utility.yul\":4602:4655   */\n      dup2\n      add\n      swap1\n        /* \"#utility.yul\":4670:4688   */\n      dup4\n      dup3\n      gt\n        /* \"#utility.yul\":4690:4712   */\n      dup2\n      dup4\n      lt\n        /* \"#utility.yul\":4667:4713   */\n      or\n        /* \"#utility.yul\":4664:4736   */\n      iszero\n      tag_284\n      jumpi\n        /* \"#utility.yul\":4716:4734   */\n      tag_284\n      tag_233\n      jump\t// in\n    tag_284:\n        /* \"#utility.yul\":4756:4766   */\n      dup2\n        /* \"#utility.yul\":4752:4754   */\n      0x40\n        /* \"#utility.yul\":4745:4767   */\n      mstore\n        /* \"#utility.yul\":4791:4793   */\n      dup3\n        /* \"#utility.yul\":4783:4789   */\n      dup2\n        /* \"#utility.yul\":4776:4794   */\n      mstore\n        /* \"#utility.yul\":4831:4838   */\n      dup11\n        /* \"#utility.yul\":4826:4828   */\n      0x20\n        /* \"#utility.yul\":4821:4823   */\n      dup5\n        /* \"#utility.yul\":4817:4819   */\n      dup8\n        /* \"#utility.yul\":4813:4824   */\n      add\n        /* \"#utility.yul\":4809:4829   */\n      add\n        /* \"#utility.yul\":4806:4839   */\n      gt\n        /* \"#utility.yul\":4803:4856   */\n      iszero\n      tag_285\n      jumpi\n        /* \"#utility.yul\":4852:4853   */\n      0x00\n        /* \"#utility.yul\":4849:4850   */\n      dup1\n        /* \"#utility.yul\":4842:4854   */\n      revert\n        /* \"#utility.yul\":4803:4856   */\n    tag_285:\n        /* \"#utility.yul\":4908:4910   */\n      dup3\n        /* \"#utility.yul\":4903:4905   */\n      0x20\n        /* \"#utility.yul\":4899:4901   */\n      dup7\n        /* \"#utility.yul\":4895:4906   */\n      add\n        /* \"#utility.yul\":4890:4892   */\n      0x20\n        /* \"#utility.yul\":4882:4888   */\n      dup4\n        /* \"#utility.yul\":4878:4893   */\n      add\n        /* \"#utility.yul\":4865:4911   */\n      calldatacopy\n        /* \"#utility.yul\":4953:4954   */\n      0x00\n        /* \"#utility.yul\":4948:4950   */\n      0x20\n        /* \"#utility.yul\":4943:4945   */\n      dup5\n        /* \"#utility.yul\":4935:4941   */\n      dup4\n        /* \"#utility.yul\":4931:4946   */\n      add\n        /* \"#utility.yul\":4927:4951   */\n      add\n        /* \"#utility.yul\":4920:4955   */\n      mstore\n        /* \"#utility.yul\":4974:4980   */\n      dup1\n        /* \"#utility.yul\":4964:4980   */\n      swap6\n      pop\n      pop\n      pop\n      pop\n      pop\n      pop\n        /* \"#utility.yul\":3848:4986   */\n      swap3\n      swap6\n      swap2\n      swap5\n      pop\n      swap3\n      pop\n      jump\t// out\n        /* \"#utility.yul\":4991:5251   */\n    tag_83:\n        /* \"#utility.yul\":5059:5065   */\n      0x00\n        /* \"#utility.yul\":5067:5073   */\n      dup1\n        /* \"#utility.yul\":5120:5122   */\n      0x40\n        /* \"#utility.yul\":5108:5117   */\n      dup4\n        /* \"#utility.yul\":5099:5106   */\n      dup6\n        /* \"#utility.yul\":5095:5118   */\n      sub\n        /* \"#utility.yul\":5091:5123   */\n      slt\n        /* \"#utility.yul\":5088:5140   */\n      iszero\n      tag_287\n      jumpi\n        /* \"#utility.yul\":5136:5137   */\n      0x00\n        /* \"#utility.yul\":5133:5134   */\n      dup1\n        /* \"#utility.yul\":5126:5138   */\n      revert\n        /* \"#utility.yul\":5088:5140   */\n    tag_287:\n        /* \"#utility.yul\":5159:5188   */\n      tag_288\n        /* \"#utility.yul\":5178:5187   */\n      dup4\n        /* \"#utility.yul\":5159:5188   */\n      tag_230\n      jump\t// in\n    tag_288:\n        /* \"#utility.yul\":5149:5188   */\n      swap2\n      pop\n        /* \"#utility.yul\":5207:5245   */\n      tag_289\n        /* \"#utility.yul\":5241:5243   */\n      0x20\n        /* \"#utility.yul\":5230:5239   */\n      dup5\n        /* \"#utility.yul\":5226:5244   */\n      add\n        /* \"#utility.yul\":5207:5245   */\n      tag_230\n      jump\t// in\n    tag_289:\n        /* \"#utility.yul\":5197:5245   */\n      swap1\n      pop\n        /* \"#utility.yul\":4991:5251   */\n      swap3\n      pop\n      swap3\n      swap1\n      pop\n      jump\t// out\n        /* \"#utility.yul\":5612:5992   */\n    tag_101:\n        /* \"#utility.yul\":5691:5692   */\n      0x01\n        /* \"#utility.yul\":5687:5699   */\n      dup2\n      dup2\n      shr\n      swap1\n        /* \"#utility.yul\":5734:5746   */\n      dup3\n      and\n      dup1\n        /* \"#utility.yul\":5755:5816   */\n      tag_292\n      jumpi\n        /* \"#utility.yul\":5809:5813   */\n      0x7f\n        /* \"#utility.yul\":5801:5807   */\n      dup3\n        /* \"#utility.yul\":5797:5814   */\n      and\n        /* \"#utility.yul\":5787:5814   */\n      swap2\n      pop\n        /* \"#utility.yul\":5755:5816   */\n    tag_292:\n        /* \"#utility.yul\":5862:5864   */\n      0x20\n        /* \"#utility.yul\":5854:5860   */\n      dup3\n        /* \"#utility.yul\":5851:5865   */\n      lt\n        /* \"#utility.yul\":5831:5849   */\n      dup2\n        /* \"#utility.yul\":5828:5866   */\n      sub\n        /* \"#utility.yul\":5825:5986   */\n      tag_293\n      jumpi\n        /* \"#utility.yul\":5908:5918   */\n      0x4e487b71\n        /* \"#utility.yul\":5903:5906   */\n      0xe0\n        /* \"#utility.yul\":5899:5919   */\n      shl\n        /* \"#utility.yul\":5896:5897   */\n      0x00\n        /* \"#utility.yul\":5889:5920   */\n      mstore\n        /* \"#utility.yul\":5943:5947   */\n      0x22\n        /* \"#utility.yul\":5940:5941   */\n      0x04\n        /* \"#utility.yul\":5933:5948   */\n      mstore\n        /* \"#utility.yul\":5971:5975   */\n      0x24\n        /* \"#utility.yul\":5968:5969   */\n      0x00\n        /* \"#utility.yul\":5961:5976   */\n      revert\n        /* \"#utility.yul\":5825:5986   */\n    tag_293:\n      pop\n        /* \"#utility.yul\":5612:5992   */\n      swap2\n      swap1\n      pop\n      jump\t// out\n        /* \"#utility.yul\":6123:6641   */\n    tag_235:\n        /* \"#utility.yul\":6225:6227   */\n      0x1f\n        /* \"#utility.yul\":6220:6223   */\n      dup3\n        /* \"#utility.yul\":6217:6228   */\n      gt\n        /* \"#utility.yul\":6214:6635   */\n      iszero\n      tag_119\n      jumpi\n        /* \"#utility.yul\":6261:6266   */\n      dup1\n        /* \"#utility.yul\":6258:6259   */\n      0x00\n        /* \"#utility.yul\":6251:6267   */\n      mstore\n        /* \"#utility.yul\":6305:6309   */\n      0x20\n        /* \"#utility.yul\":6302:6303   */\n      0x00\n        /* \"#utility.yul\":6292:6310   */\n      keccak256\n        /* \"#utility.yul\":6375:6377   */\n      0x1f\n        /* \"#utility.yul\":6363:6373   */\n      dup5\n        /* \"#utility.yul\":6359:6378   */\n      add\n        /* \"#utility.yul\":6356:6357   */\n      0x05\n        /* \"#utility.yul\":6352:6379   */\n      shr\n        /* \"#utility.yul\":6346:6350   */\n      dup2\n        /* \"#utility.yul\":6342:6380   */\n      add\n        /* \"#utility.yul\":6411:6415   */\n      0x20\n        /* \"#utility.yul\":6399:6409   */\n      dup6\n        /* \"#utility.yul\":6396:6416   */\n      lt\n        /* \"#utility.yul\":6393:6440   */\n      iszero\n      tag_297\n      jumpi\n      pop\n        /* \"#utility.yul\":6434:6438   */\n      dup1\n        /* \"#utility.yul\":6393:6440   */\n    tag_297:\n        /* \"#utility.yul\":6489:6491   */\n      0x1f\n        /* \"#utility.yul\":6484:6487   */\n      dup5\n        /* \"#utility.yul\":6480:6492   */\n      add\n        /* \"#utility.yul\":6477:6478   */\n      0x05\n        /* \"#utility.yul\":6473:6493   */\n      shr\n        /* \"#utility.yul\":6467:6471   */\n      dup3\n        /* \"#utility.yul\":6463:6494   */\n      add\n        /* \"#utility.yul\":6453:6494   */\n      swap2\n      pop\n        /* \"#utility.yul\":6544:6625   */\n    tag_298:\n        /* \"#utility.yul\":6562:6564   */\n      dup2\n        /* \"#utility.yul\":6555:6560   */\n      dup2\n        /* \"#utility.yul\":6552:6565   */\n      lt\n        /* \"#utility.yul\":6544:6625   */\n      iszero\n      tag_199\n      jumpi\n        /* \"#utility.yul\":6621:6622   */\n      0x00\n        /* \"#utility.yul\":6607:6623   */\n      dup2\n      sstore\n        /* \"#utility.yul\":6588:6589   */\n      0x01\n        /* \"#utility.yul\":6577:6590   */\n      add\n        /* \"#utility.yul\":6544:6625   */\n      jump(tag_298)\n        /* \"#utility.yul\":6817:8015   */\n    tag_93:\n        /* \"#utility.yul\":6941:6959   */\n      0xffffffffffffffff\n        /* \"#utility.yul\":6936:6939   */\n      dup4\n        /* \"#utility.yul\":6933:6960   */\n      gt\n        /* \"#utility.yul\":6930:6983   */\n      iszero\n      tag_304\n      jumpi\n        /* \"#utility.yul\":6963:6981   */\n      tag_304\n      tag_233\n      jump\t// in\n    tag_304:\n        /* \"#utility.yul\":6992:7086   */\n      tag_305\n        /* \"#utility.yul\":7082:7085   */\n      dup4\n        /* \"#utility.yul\":7042:7080   */\n      tag_306\n        /* \"#utility.yul\":7074:7078   */\n      dup4\n        /* \"#utility.yul\":7068:7079   */\n      sload\n        /* \"#utility.yul\":7042:7080   */\n      tag_101\n      jump\t// in\n    tag_306:\n        /* \"#utility.yul\":7036:7040   */\n      dup4\n        /* \"#utility.yul\":6992:7086   */\n      tag_235\n      jump\t// in\n    tag_305:\n        /* \"#utility.yul\":7112:7113   */\n      0x00\n        /* \"#utility.yul\":7137:7139   */\n      0x1f\n        /* \"#utility.yul\":7132:7135   */\n      dup5\n        /* \"#utility.yul\":7129:7140   */\n      gt\n        /* \"#utility.yul\":7154:7155   */\n      0x01\n        /* \"#utility.yul\":7149:7757   */\n      dup2\n      eq\n      tag_308\n      jumpi\n        /* \"#utility.yul\":7801:7802   */\n      0x00\n        /* \"#utility.yul\":7818:7821   */\n      dup6\n        /* \"#utility.yul\":7815:7908   */\n      iszero\n      tag_309\n      jumpi\n      pop\n        /* \"#utility.yul\":7874:7893   */\n      dup4\n      dup3\n      add\n        /* \"#utility.yul\":7861:7894   */\n      calldataload\n        /* \"#utility.yul\":7815:7908   */\n    tag_309:\n      not(0x00)\n        /* \"#utility.yul\":6774:6775   */\n      0x03\n        /* \"#utility.yul\":6770:6781   */\n      dup8\n      swap1\n      shl\n        /* \"#utility.yul\":6766:6790   */\n      shr\n        /* \"#utility.yul\":6762:6791   */\n      not\n        /* \"#utility.yul\":6752:6792   */\n      and\n        /* \"#utility.yul\":6798:6799   */\n      0x01\n        /* \"#utility.yul\":6794:6805   */\n      dup7\n      swap1\n      shl\n        /* \"#utility.yul\":6749:6806   */\n      or\n        /* \"#utility.yul\":7921:7999   */\n      dup4\n      sstore\n        /* \"#utility.yul\":7122:8009   */\n      jump(tag_199)\n        /* \"#utility.yul\":7149:7757   */\n    tag_308:\n        /* \"#utility.yul\":6070:6071   */\n      0x00\n        /* \"#utility.yul\":6063:6077   */\n      dup4\n      dup2\n      mstore\n        /* \"#utility.yul\":6107:6111   */\n      0x20\n        /* \"#utility.yul\":6094:6112   */\n      dup2\n      keccak256\n      not(0x1f)\n        /* \"#utility.yul\":7185:7202   */\n      dup8\n      and\n      swap2\n        /* \"#utility.yul\":7300:7529   */\n    tag_312:\n        /* \"#utility.yul\":7314:7321   */\n      dup3\n        /* \"#utility.yul\":7311:7312   */\n      dup2\n        /* \"#utility.yul\":7308:7322   */\n      lt\n        /* \"#utility.yul\":7300:7529   */\n      iszero\n      tag_314\n      jumpi\n        /* \"#utility.yul\":7403:7422   */\n      dup7\n      dup6\n      add\n        /* \"#utility.yul\":7390:7423   */\n      calldataload\n        /* \"#utility.yul\":7375:7424   */\n      dup3\n      sstore\n        /* \"#utility.yul\":7510:7514   */\n      0x20\n        /* \"#utility.yul\":7495:7515   */\n      swap5\n      dup6\n      add\n      swap5\n        /* \"#utility.yul\":7463:7464   */\n      0x01\n        /* \"#utility.yul\":7451:7465   */\n      swap1\n      swap3\n      add\n      swap2\n        /* \"#utility.yul\":7330:7342   */\n      add\n        /* \"#utility.yul\":7300:7529   */\n      jump(tag_312)\n    tag_314:\n        /* \"#utility.yul\":7304:7307   */\n      pop\n        /* \"#utility.yul\":7557:7560   */\n      dup7\n        /* \"#utility.yul\":7548:7555   */\n      dup3\n        /* \"#utility.yul\":7545:7561   */\n      lt\n        /* \"#utility.yul\":7542:7701   */\n      iszero\n      tag_315\n      jumpi\n        /* \"#utility.yul\":7681:7682   */\n      0x00\n        /* \"#utility.yul\":7677:7683   */\n      not\n        /* \"#utility.yul\":7671:7674   */\n      0xf8\n        /* \"#utility.yul\":7665:7668   */\n      dup9\n        /* \"#utility.yul\":7662:7663   */\n      0x03\n        /* \"#utility.yul\":7658:7669   */\n      shl\n        /* \"#utility.yul\":7654:7675   */\n      and\n        /* \"#utility.yul\":7650:7684   */\n      shr\n        /* \"#utility.yul\":7646:7685   */\n      not\n        /* \"#utility.yul\":7633:7642   */\n      dup5\n        /* \"#utility.yul\":7628:7631   */\n      dup8\n        /* \"#utility.yul\":7624:7643   */\n      add\n        /* \"#utility.yul\":7611:7644   */\n      calldataload\n        /* \"#utility.yul\":7607:7686   */\n      and\n        /* \"#utility.yul\":7599:7605   */\n      dup2\n        /* \"#utility.yul\":7592:7687   */\n      sstore\n        /* \"#utility.yul\":7542:7701   */\n    tag_315:\n      pop\n      pop\n        /* \"#utility.yul\":7744:7745   */\n      0x01\n        /* \"#utility.yul\":7738:7741   */\n      dup6\n        /* \"#utility.yul\":7735:7736   */\n      0x01\n        /* \"#utility.yul\":7731:7742   */\n      shl\n        /* \"#utility.yul\":7727:7746   */\n      add\n        /* \"#utility.yul\":7721:7725   */\n      dup4\n        /* \"#utility.yul\":7714:7747   */\n      sstore\n        /* \"#utility.yul\":7122:8009   */\n      pop\n      pop\n        /* \"#utility.yul\":6817:8015   */\n      pop\n      pop\n      pop\n      jump\t// out\n        /* \"#utility.yul\":8429:8941   */\n    tag_215:\n        /* \"#utility.yul\":8623:8627   */\n      0x00\n      sub(shl(0xa0, 0x01), 0x01)\n        /* \"#utility.yul\":8733:8735   */\n      dup1\n        /* \"#utility.yul\":8725:8731   */\n      dup8\n        /* \"#utility.yul\":8721:8736   */\n      and\n        /* \"#utility.yul\":8710:8719   */\n      dup4\n        /* \"#utility.yul\":8703:8737   */\n      mstore\n        /* \"#utility.yul\":8785:8787   */\n      dup1\n        /* \"#utility.yul\":8777:8783   */\n      dup7\n        /* \"#utility.yul\":8773:8788   */\n      and\n        /* \"#utility.yul\":8768:8770   */\n      0x20\n        /* \"#utility.yul\":8757:8766   */\n      dup5\n        /* \"#utility.yul\":8753:8771   */\n      add\n        /* \"#utility.yul\":8746:8789   */\n      mstore\n      pop\n        /* \"#utility.yul\":8825:8831   */\n      dup4\n        /* \"#utility.yul\":8820:8822   */\n      0x40\n        /* \"#utility.yul\":8809:8818   */\n      dup4\n        /* \"#utility.yul\":8805:8823   */\n      add\n        /* \"#utility.yul\":8798:8832   */\n      mstore\n        /* \"#utility.yul\":8868:8871   */\n      0x80\n        /* \"#utility.yul\":8863:8865   */\n      0x60\n        /* \"#utility.yul\":8852:8861   */\n      dup4\n        /* \"#utility.yul\":8848:8866   */\n      add\n        /* \"#utility.yul\":8841:8872   */\n      mstore\n        /* \"#utility.yul\":8889:8935   */\n      tag_318\n        /* \"#utility.yul\":8930:8933   */\n      0x80\n        /* \"#utility.yul\":8919:8928   */\n      dup4\n        /* \"#utility.yul\":8915:8934   */\n      add\n        /* \"#utility.yul\":8907:8913   */\n      dup5\n        /* \"#utility.yul\":8889:8935   */\n      tag_232\n      jump\t// in\n    tag_318:\n        /* \"#utility.yul\":8881:8935   */\n      swap7\n        /* \"#utility.yul\":8429:8941   */\n      swap6\n      pop\n      pop\n      pop\n      pop\n      pop\n      pop\n      jump\t// out\n        /* \"#utility.yul\":8946:9195   */\n    tag_218:\n        /* \"#utility.yul\":9015:9021   */\n      0x00\n        /* \"#utility.yul\":9068:9070   */\n      0x20\n        /* \"#utility.yul\":9056:9065   */\n      dup3\n        /* \"#utility.yul\":9047:9054   */\n      dup5\n        /* \"#utility.yul\":9043:9066   */\n      sub\n        /* \"#utility.yul\":9039:9071   */\n      slt\n        /* \"#utility.yul\":9036:9088   */\n      iszero\n      tag_320\n      jumpi\n        /* \"#utility.yul\":9084:9085   */\n      0x00\n        /* \"#utility.yul\":9081:9082   */\n      dup1\n        /* \"#utility.yul\":9074:9086   */\n      revert\n        /* \"#utility.yul\":9036:9088   */\n    tag_320:\n        /* \"#utility.yul\":9116:9125   */\n      dup2\n        /* \"#utility.yul\":9110:9126   */\n      mload\n        /* \"#utility.yul\":9135:9165   */\n      tag_252\n        /* \"#utility.yul\":9159:9164   */\n      dup2\n        /* \"#utility.yul\":9135:9165   */\n      tag_231\n      jump\t// in\n\n    auxdata: 0xa2646970667358221220d92d8ee156ab8b714daf5f0dca6c45f8f1a7fb63947f34dc86bc2a721380492d64736f6c63430008190033\n}\n",
    "bytecode": {
      "linkReferences": {},
      "object": "608060405234801561000f575f80fd5b5060405161147838038061147883398101604081905261002e916100f4565b8181600261003c83826101d7565b50600361004982826101d7565b5060015f555061029692505050565b634e487b7160e01b5f52604160045260245ffd5b5f82601f83011261007b575f80fd5b81516001600160401b038082111561009557610095610058565b604051601f8301601f19908116603f011681019082821181831017156100bd576100bd610058565b816040528381528660208588010111156100d5575f80fd5b8360208701602083015e5f602085830101528094505050505092915050565b5f8060408385031215610105575f80fd5b82516001600160401b038082111561011b575f80fd5b6101278683870161006c565b9350602085015191508082111561013c575f80fd5b506101498582860161006c565b9150509250929050565b600181811c9082168061016757607f821691505b60208210810361018557634e487b7160e01b5f52602260045260245ffd5b50919050565b601f8211156101d257805f5260205f20601f840160051c810160208510156101b05750805b601f840160051c820191505b818110156101cf575f81556001016101bc565b50505b505050565b81516001600160401b038111156101f0576101f0610058565b610204816101fe8454610153565b8461018b565b602080601f831160018114610237575f84156102205750858301515b5f19600386901b1c1916600185901b17855561028e565b5f85815260208120601f198616915b8281101561026557888601518255948401946001909101908401610246565b508582101561028257878501515f19600388901b60f8161c191681555b505060018460011b0185555b505050505050565b6111d5806102a35f395ff3fe608060405234801561000f575f80fd5b50600436106100ef575f3560e01c806342842e0e11610093578063a22cb46511610063578063a22cb465146101f3578063b88d4fde14610206578063c87b56dd14610219578063e985e9c51461022c575f80fd5b806342842e0e146101b25780636352211e146101c557806370a08231146101d857806395d89b41146101eb575f80fd5b8063081812fc116100ce578063081812fc14610151578063095ea7b31461017c57806318160ddd1461019157806323b872dd1461019f575f80fd5b806275a317146100f357806301ffc9a71461011957806306fdde031461013c575b5f80fd5b610106610101366004610d39565b610267565b6040519081526020015b60405180910390f35b61012c610127366004610dcd565b610328565b6040519015158152602001610110565b610144610379565b6040516101109190610e1d565b61016461015f366004610e2f565b610409565b6040516001600160a01b039091168152602001610110565b61018f61018a366004610e46565b61044b565b005b6001545f54035f1901610106565b61018f6101ad366004610e6e565b6104d0565b61018f6101c0366004610e6e565b6104db565b6101646101d3366004610e2f565b6104f5565b6101066101e6366004610ea7565b610506565b610144610553565b61018f610201366004610ec0565b610562565b61018f610214366004610f0d565b6105f6565b610144610227366004610e2f565b610640565b61012c61023a366004610fe2565b6001600160a01b039182165f90815260076020908152604080832093909416825291909152205460ff1690565b5f6001600160a01b0384166102c35760405162461bcd60e51b815260206004820152601b60248201527f43616e6e6f74206d696e7420746f207a65726f2061646472657373000000000060448201526064015b60405180910390fd5b5f546102d0856001610758565b5f8181526008602052604090206102e884868361108f565b5060405181906001600160a01b038716905f907fddf252ad1be2c89b69c2b068fc378daa952ba7f163c4a11628f55a4df523b3ef908290a4949350505050565b5f6001600160e01b031982166380ac58cd60e01b148061035857506001600160e01b03198216635b5e139f60e01b145b8061037357506301ffc9a760e01b6001600160e01b03198316145b92915050565b60606002805461038890611013565b80601f01602080910402602001604051908101604052809291908181526020018280546103b490611013565b80156103ff5780601f106103d6576101008083540402835291602001916103ff565b820191905f5260205f20905b8154815290600101906020018083116103e257829003601f168201915b5050505050905090565b5f61041382610886565b610430576040516333d1c03960e21b815260040160405180910390fd5b505f908152600660205260409020546001600160a01b031690565b5f610455826104f5565b9050806001600160a01b0316836001600160a01b0316036104895760405163250fdee360e21b815260040160405180910390fd5b336001600160a01b038216146104c0576104a3813361023a565b6104c0576040516367d9dca160e11b815260040160405180910390fd5b6104cb8383836108bc565b505050565b6104cb83838361092f565b6104cb83838360405180602001604052805f8152506105f6565b5f6104ff82610b18565b5192915050565b5f6001600160a01b03821661052e576040516323d3ad8160e21b815260040160405180910390fd5b506001600160a01b03165f9081526005602052604090205467ffffffffffffffff1690565b60606003805461038890611013565b336001600160a01b0383160361058b5760405163b06307db60e01b815260040160405180910390fd5b335f8181526007602090815260408083206001600160a01b03871680855290835292819020805460ff191686151590811790915590519081529192917f17307eab39ab6107e8899845ad3d59bd9653f200f220920489ca2b5937696c31910160405180910390a35050565b61060184848461092f565b6001600160a01b0383163b1561063a5761061d84848484610c37565b61063a576040516368d2bf6b60e11b815260040160405180910390fd5b50505050565b606061064b82610886565b6106bd5760405162461bcd60e51b815260206004820152602860248201527f455243373231413a2055524920717565727920666f72206e6f6e65786973746560448201527f6e7420746f6b656e00000000000000000000000000000000000000000000000060648201526084016102ba565b5f82815260086020526040902080546106d590611013565b80601f016020809104026020016040519081016040528092919081815260200182805461070190611013565b801561074c5780601f106107235761010080835404028352916020019161074c565b820191905f5260205f20905b81548152906001019060200180831161072f57829003601f168201915b50505050509050919050565b5f546001600160a01b03831661078057604051622e076360e81b815260040160405180910390fd5b815f036107a05760405163b562e8dd60e01b815260040160405180910390fd5b6001600160a01b0383165f81815260056020908152604080832080546fffffffffffffffffffffffffffffffff19811667ffffffffffffffff8083168a0181169182176801000000000000000067ffffffffffffffff1990941690921783900481168a01811690920217909155858452600490925290912080546001600160e01b031916909217600160a01b4290921691909102179055808083015b6040516001830192906001600160a01b038716905f907fddf252ad1be2c89b69c2b068fc378daa952ba7f163c4a11628f55a4df523b3ef908290a480821061083c57505f55505050565b5f8160011115801561089857505f5482105b80156103735750505f90815260046020526040902054600160e01b900460ff161590565b5f8281526006602052604080822080547fffffffffffffffffffffffff0000000000000000000000000000000000000000166001600160a01b0387811691821790925591518593918516917f8c5be1e5ebec7d5bd14f71427d1e84f3dd0314c0f7b2291e5b200ac8c7c3b92591a4505050565b5f61093982610b18565b9050836001600160a01b0316815f01516001600160a01b03161461096f5760405162a1148160e81b815260040160405180910390fd5b5f336001600160a01b038616148061098c575061098c853361023a565b806109a757503361099c84610409565b6001600160a01b0316145b9050806109c757604051632ce44b5f60e11b815260040160405180910390fd5b6001600160a01b0384166109ee57604051633a954ecd60e21b815260040160405180910390fd5b6109f95f84876108bc565b6001600160a01b038581165f908152600560209081526040808320805467ffffffffffffffff1980821667ffffffffffffffff9283165f1901831617909255898616808652838620805493841693831660019081018416949094179055898652600490945282852080546001600160e01b031916909417600160a01b42909216919091021783558701808452922080549193909116610acc575f548214610acc578054602086015167ffffffffffffffff16600160a01b026001600160e01b03199091166001600160a01b038a16171781555b50505082846001600160a01b0316866001600160a01b03167fddf252ad1be2c89b69c2b068fc378daa952ba7f163c4a11628f55a4df523b3ef60405160405180910390a45b5050505050565b604080516060810182525f80825260208201819052918101919091528180600111610c1e575f54811015610c1e575f81815260046020908152604091829020825160608101845290546001600160a01b0381168252600160a01b810467ffffffffffffffff1692820192909252600160e01b90910460ff16151591810182905290610c1c5780516001600160a01b031615610bb4579392505050565b505f19015f81815260046020908152604091829020825160608101845290546001600160a01b038116808352600160a01b820467ffffffffffffffff1693830193909352600160e01b900460ff1615159281019290925215610c17579392505050565b610bb4565b505b604051636f96cda160e11b815260040160405180910390fd5b604051630a85bd0160e11b81525f906001600160a01b0385169063150b7a0290610c6b903390899088908890600401611149565b6020604051808303815f875af1925050508015610ca5575060408051601f3d908101601f19168201909252610ca291810190611184565b60015b610d01573d808015610cd2576040519150601f19603f3d011682016040523d82523d5f602084013e610cd7565b606091505b5080515f03610cf9576040516368d2bf6b60e11b815260040160405180910390fd5b805181602001fd5b6001600160e01b031916630a85bd0160e11b149050949350505050565b80356001600160a01b0381168114610d34575f80fd5b919050565b5f805f60408486031215610d4b575f80fd5b610d5484610d1e565b9250602084013567ffffffffffffffff80821115610d70575f80fd5b818601915086601f830112610d83575f80fd5b813581811115610d91575f80fd5b876020828501011115610da2575f80fd5b6020830194508093505050509250925092565b6001600160e01b031981168114610dca575f80fd5b50565b5f60208284031215610ddd575f80fd5b8135610de881610db5565b9392505050565b5f81518084528060208401602086015e5f602082860101526020601f19601f83011685010191505092915050565b602081525f610de86020830184610def565b5f60208284031215610e3f575f80fd5b5035919050565b5f8060408385031215610e57575f80fd5b610e6083610d1e565b946020939093013593505050565b5f805f60608486031215610e80575f80fd5b610e8984610d1e565b9250610e9760208501610d1e565b9150604084013590509250925092565b5f60208284031215610eb7575f80fd5b610de882610d1e565b5f8060408385031215610ed1575f80fd5b610eda83610d1e565b915060208301358015158114610eee575f80fd5b809150509250929050565b634e487b7160e01b5f52604160045260245ffd5b5f805f8060808587031215610f20575f80fd5b610f2985610d1e565b9350610f3760208601610d1e565b925060408501359150606085013567ffffffffffffffff80821115610f5a575f80fd5b818701915087601f830112610f6d575f80fd5b813581811115610f7f57610f7f610ef9565b604051601f8201601f19908116603f01168101908382118183101715610fa757610fa7610ef9565b816040528281528a6020848701011115610fbf575f80fd5b826020860160208301375f60208483010152809550505050505092959194509250565b5f8060408385031215610ff3575f80fd5b610ffc83610d1e565b915061100a60208401610d1e565b90509250929050565b600181811c9082168061102757607f821691505b60208210810361104557634e487b7160e01b5f52602260045260245ffd5b50919050565b601f8211156104cb57805f5260205f20601f840160051c810160208510156110705750805b601f840160051c820191505b81811015610b11575f815560010161107c565b67ffffffffffffffff8311156110a7576110a7610ef9565b6110bb836110b58354611013565b8361104b565b5f601f8411600181146110ec575f85156110d55750838201355b5f19600387901b1c1916600186901b178355610b11565b5f83815260208120601f198716915b8281101561111b57868501358255602094850194600190920191016110fb565b5086821015611137575f1960f88860031b161c19848701351681555b505060018560011b0183555050505050565b5f6001600160a01b0380871683528086166020840152508360408301526080606083015261117a6080830184610def565b9695505050505050565b5f60208284031215611194575f80fd5b8151610de881610db556fea2646970667358221220d92d8ee156ab8b714daf5f0dca6c45f8f1a7fb63947f34dc86bc2a721380492d64736f6c63430008190033",
      "opcodes": "PUSH1 0x80 PUSH1 0x40 MSTORE CALLVALUE DUP1 ISZERO PUSH2 0xF JUMPI PUSH0 DUP1 REVERT JUMPDEST POP PUSH1 0x40 MLOAD PUSH2 0x1478 CODESIZE SUB DUP1 PUSH2 0x1478 DUP4 CODECOPY DUP2 ADD PUSH1 0x40 DUP2 SWAP1 MSTORE PUSH2 0x2E SWAP2 PUSH2 0xF4 JUMP JUMPDEST DUP2 DUP2 PUSH1 0x2 PUSH2 0x3C DUP4 DUP3 PUSH2 0x1D7 JUMP JUMPDEST POP PUSH1 0x3 PUSH2 0x49 DUP3 DUP3 PUSH2 0x1D7 JUMP JUMPDEST POP PUSH1 0x1 PUSH0 SSTORE POP PUSH2 0x296 SWAP3 POP POP POP JUMP JUMPDEST PUSH4 0x4E487B71 PUSH1 0xE0 SHL PUSH0 MSTORE PUSH1 0x41 PUSH1 0x4 MSTORE PUSH1 0x24 PUSH0 REVERT JUMPDEST PUSH0 DUP3 PUSH1 0x1F DUP4 ADD SLT PUSH2 0x7B JUMPI PUSH0 DUP1 REVERT JUMPDEST DUP2 MLOAD PUSH1 0x1 PUSH1 0x1 PUSH1 0x40 SHL SUB DUP1 DUP3 GT ISZERO PUSH2 0x95 JUMPI PUSH2 0x95 PUSH2 0x58 JUMP JUMPDEST PUSH1 0x40 MLOAD PUSH1 0x1F DUP4 ADD PUSH1 0x1F NOT SWAP1 DUP2 AND PUSH1 0x3F ADD AND DUP2 ADD SWAP1 DUP3 DUP3 GT DUP2 DUP4 LT OR ISZERO PUSH2 0xBD JUMPI PUSH2 0xBD PUSH2 0x58 JUMP JUMPDEST DUP2 PUSH1 0x40 MSTORE DUP4 DUP2 MSTORE DUP7 PUSH1 0x20 DUP6 DUP9 ADD ADD GT ISZERO PUSH2 0xD5 JUMPI PUSH0 DUP1 REVERT JUMPDEST DUP4 PUSH1 0x20 DUP8 ADD PUSH1 0x20 DUP4 ADD MCOPY PUSH0 PUSH1 0x20 DUP6 DUP4 ADD ADD MSTORE DUP1 SWAP5 POP POP POP POP POP SWAP3 SWAP2 POP POP JUMP JUMPDEST PUSH0 DUP1 PUSH1 0x40 DUP4 DUP6 SUB SLT ISZERO PUSH2 0x105 JUMPI PUSH0 DUP1 REVERT JUMPDEST DUP3 MLOAD PUSH1 0x1 PUSH1 0x1 PUSH1 0x40 SHL SUB DUP1 DUP3 GT ISZERO PUSH2 0x11B JUMPI PUSH0 DUP1 REVERT JUMPDEST PUSH2 0x127 DUP7 DUP4 DUP8 ADD PUSH2 0x6C JUMP JUMPDEST SWAP4 POP PUSH1 0x20 DUP6 ADD MLOAD SWAP2 POP DUP1 DUP3 GT ISZERO PUSH2 0x13C JUMPI PUSH0 DUP1 REVERT JUMPDEST POP PUSH2 0x149 DUP6 DUP3 DUP7 ADD PUSH2 0x6C JUMP JUMPDEST SWAP2 POP POP SWAP3 POP SWAP3 SWAP1 POP JUMP JUMPDEST PUSH1 0x1 DUP2 DUP2 SHR SWAP1 DUP3 AND DUP1 PUSH2 0x167 JUMPI PUSH1 0x7F DUP3 AND SWAP2 POP JUMPDEST PUSH1 0x20 DUP3 LT DUP2 SUB PUSH2 0x185 JUMPI PUSH4 0x4E487B71 PUSH1 0xE0 SHL PUSH0 MSTORE PUSH1 0x22 PUSH1 0x4 MSTORE PUSH1 0x24 PUSH0 REVERT JUMPDEST POP SWAP2 SWAP1 POP JUMP JUMPDEST PUSH1 0x1F DUP3 GT ISZERO PUSH2 0x1D2 JUMPI DUP1 PUSH0 MSTORE PUSH1 0x20 PUSH0 KECCAK256 PUSH1 0x1F DUP5 ADD PUSH1 0x5 SHR DUP2 ADD PUSH1 0x20 DUP6 LT ISZERO PUSH2 0x1B0 JUMPI POP DUP1 JUMPDEST PUSH1 0x1F DUP5 ADD PUSH1 0x5 SHR DUP3 ADD SWAP2 POP JUMPDEST DUP2 DUP2 LT ISZERO PUSH2 0x1CF JUMPI PUSH0 DUP2 SSTORE PUSH1 0x1 ADD PUSH2 0x1BC JUMP JUMPDEST POP POP JUMPDEST POP POP POP JUMP JUMPDEST DUP2 MLOAD PUSH1 0x1 PUSH1 0x1 PUSH1 0x40 SHL SUB DUP2 GT ISZERO PUSH2 0x1F0 JUMPI PUSH2 0x1F0 PUSH2 0x58 JUMP JUMPDEST PUSH2 0x204 DUP2 PUSH2 0x1FE DUP5 SLOAD PUSH2 0x153 JUMP JUMPDEST DUP5 PUSH2 0x18B JUMP JUMPDEST PUSH1 0x20 DUP1 PUSH1 0x1F DUP4 GT PUSH1 0x1 DUP2 EQ PUSH2 0x237 JUMPI PUSH0 DUP5 ISZERO PUSH2 0x220 JUMPI POP DUP6 DUP4 ADD MLOAD JUMPDEST PUSH0 NOT PUSH1 0x3 DUP7 SWAP1 SHL SHR NOT AND PUSH1 0x1 DUP6 SWAP1 SHL OR DUP6 SSTORE PUSH2 0x28E JUMP JUMPDEST PUSH0 DUP6 DUP2 MSTORE PUSH1 0x20 DUP2 KECCAK256 PUSH1 0x1F NOT DUP7 AND SWAP2 JUMPDEST DUP3 DUP2 LT ISZERO PUSH2 0x265 JUMPI DUP9 DUP7 ADD MLOAD DUP3 SSTORE SWAP5 DUP5 ADD SWAP5 PUSH1 0x1 SWAP1 SWAP2 ADD SWAP1 DUP5 ADD PUSH2 0x246 JUMP JUMPDEST POP DUP6 DUP3 LT ISZERO PUSH2 0x282 JUMPI DUP8 DUP6 ADD MLOAD PUSH0 NOT PUSH1 0x3 DUP9 SWAP1 SHL PUSH1 0xF8 AND SHR NOT AND DUP2 SSTORE JUMPDEST POP POP PUSH1 0x1 DUP5 PUSH1 0x1 SHL ADD DUP6 SSTORE JUMPDEST POP POP POP POP POP POP JUMP JUMPDEST PUSH2 0x11D5 DUP1 PUSH2 0x2A3 PUSH0 CODECOPY PUSH0 RETURN INVALID PUSH1 0x80 PUSH1 0x40 MSTORE CALLVALUE DUP1 ISZERO PUSH2 0xF JUMPI PUSH0 DUP1 REVERT JUMPDEST POP PUSH1 0x4 CALLDATASIZE LT PUSH2 0xEF JUMPI PUSH0 CALLDATALOAD PUSH1 0xE0 SHR DUP1 PUSH4 0x42842E0E GT PUSH2 0x93 JUMPI DUP1 PUSH4 0xA22CB465 GT PUSH2 0x63 JUMPI DUP1 PUSH4 0xA22CB465 EQ PUSH2 0x1F3 JUMPI DUP1 PUSH4 0xB88D4FDE EQ PUSH2 0x206 JUMPI DUP1 PUSH4 0xC87B56DD EQ PUSH2 0x219 JUMPI DUP1 PUSH4 0xE985E9C5 EQ PUSH2 0x22C JUMPI PUSH0 DUP1 REVERT JUMPDEST DUP1 PUSH4 0x42842E0E EQ PUSH2 0x1B2 JUMPI DUP1 PUSH4 0x6352211E EQ PUSH2 0x1C5 JUMPI DUP1 PUSH4 0x70A08231 EQ PUSH2 0x1D8 JUMPI DUP1 PUSH4 0x95D89B41 EQ PUSH2 0x1EB JUMPI PUSH0 DUP1 REVERT JUMPDEST DUP1 PUSH4 0x81812FC GT PUSH2 0xCE JUMPI DUP1 PUSH4 0x81812FC EQ PUSH2 0x151 JUMPI DUP1 PUSH4 0x95EA7B3 EQ PUSH2 0x17C JUMPI DUP1 PUSH4 0x18160DDD EQ PUSH2 0x191 JUMPI DUP1 PUSH4 0x23B872DD EQ PUSH2 0x19F JUMPI PUSH0 DUP1 REVERT JUMPDEST DUP1 PUSH3 0x75A317 EQ PUSH2 0xF3 JUMPI DUP1 PUSH4 0x1FFC9A7 EQ PUSH2 0x119 JUMPI DUP1 PUSH4 0x6FDDE03 EQ PUSH2 0x13C JUMPI JUMPDEST PUSH0 DUP1 REVERT JUMPDEST PUSH2 0x106 PUSH2 0x101 CALLDATASIZE PUSH1 0x4 PUSH2 0xD39 JUMP JUMPDEST PUSH2 0x267 JUMP JUMPDEST PUSH1 0x40 MLOAD SWAP1 DUP2 MSTORE PUSH1 0x20 ADD JUMPDEST PUSH1 0x40 MLOAD DUP1 SWAP2 SUB SWAP1 RETURN JUMPDEST PUSH2 0x12C PUSH2 0x127 CALLDATASIZE PUSH1 0x4 PUSH2 0xDCD JUMP JUMPDEST PUSH2 0x328 JUMP JUMPDEST PUSH1 0x40 MLOAD SWAP1 ISZERO ISZERO DUP2 MSTORE PUSH1 0x20 ADD PUSH2 0x110 JUMP JUMPDEST PUSH2 0x144 PUSH2 0x379 JUMP JUMPDEST PUSH1 0x40 MLOAD PUSH2 0x110 SWAP2 SWAP1 PUSH2 0xE1D JUMP JUMPDEST PUSH2 0x164 PUSH2 0x15F CALLDATASIZE PUSH1 0x4 PUSH2 0xE2F JUMP JUMPDEST PUSH2 0x409 JUMP JUMPDEST PUSH1 0x40 MLOAD PUSH1 0x1 PUSH1 0x1 PUSH1 0xA0 SHL SUB SWAP1 SWAP2 AND DUP2 MSTORE PUSH1 0x20 ADD PUSH2 0x110 JUMP JUMPDEST PUSH2 0x18F PUSH2 0x18A CALLDATASIZE PUSH1 0x4 PUSH2 0xE46 JUMP JUMPDEST PUSH2 0x44B JUMP JUMPDEST STOP JUMPDEST PUSH1 0x1 SLOAD PUSH0 SLOAD SUB PUSH0 NOT ADD PUSH2 0x106 JUMP JUMPDEST PUSH2 0x18F PUSH2 0x1AD CALLDATASIZE PUSH1 0x4 PUSH2 0xE6E JUMP JUMPDEST PUSH2 0x4D0 JUMP JUMPDEST PUSH2 0x18F PUSH2 0x1C0 CALLDATASIZE PUSH1 0x4 PUSH2 0xE6E JUMP JUMPDEST PUSH2 0x4DB JUMP JUMPDEST PUSH2 0x164 PUSH2 0x1D3 CALLDATASIZE PUSH1 0x4 PUSH2 0xE2F JUMP JUMPDEST PUSH2 0x4F5 JUMP JUMPDEST PUSH2 0x106 PUSH2 0x1E6 CALLDATASIZE PUSH1 0x4 PUSH2 0xEA7 JUMP JUMPDEST PUSH2 0x506 JUMP JUMPDEST PUSH2 0x144 PUSH2 0x553 JUMP JUMPDEST PUSH2 0x18F PUSH2 0x201 CALLDATASIZE PUSH1 0x4 PUSH2 0xEC0 JUMP JUMPDEST PUSH2 0x562 JUMP JUMPDEST PUSH2 0x18F PUSH2 0x214 CALLDATASIZE PUSH1 0x4 PUSH2 0xF0D JUMP JUMPDEST PUSH2 0x5F6 JUMP JUMPDEST PUSH2 0x144 PUSH2 0x227 CALLDATASIZE PUSH1 0x4 PUSH2 0xE2F JUMP JUMPDEST PUSH2 0x640 JUMP JUMPDEST PUSH2 0x12C PUSH2 0x23A CALLDATASIZE PUSH1 0x4 PUSH2 0xFE2 JUMP JUMPDEST PUSH1 0x1 PUSH1 0x1 PUSH1 0xA0 SHL SUB SWAP2 DUP3 AND PUSH0 SWAP1 DUP2 MSTORE PUSH1 0x7 PUSH1 0x20 SWAP1 DUP2 MSTORE PUSH1 0x40 DUP1 DUP4 KECCAK256 SWAP4 SWAP1 SWAP5 AND DUP3 MSTORE SWAP2 SWAP1 SWAP2 MSTORE KECCAK256 SLOAD PUSH1 0xFF AND SWAP1 JUMP JUMPDEST PUSH0 PUSH1 0x1 PUSH1 0x1 PUSH1 0xA0 SHL SUB DUP5 AND PUSH2 0x2C3 JUMPI PUSH1 0x40 MLOAD PUSH3 0x461BCD PUSH1 0xE5 SHL DUP2 MSTORE PUSH1 0x20 PUSH1 0x4 DUP3 ADD MSTORE PUSH1 0x1B PUSH1 0x24 DUP3 ADD MSTORE PUSH32 0x43616E6E6F74206D696E7420746F207A65726F20616464726573730000000000 PUSH1 0x44 DUP3 ADD MSTORE PUSH1 0x64 ADD JUMPDEST PUSH1 0x40 MLOAD DUP1 SWAP2 SUB SWAP1 REVERT JUMPDEST PUSH0 SLOAD PUSH2 0x2D0 DUP6 PUSH1 0x1 PUSH2 0x758 JUMP JUMPDEST PUSH0 DUP2 DUP2 MSTORE PUSH1 0x8 PUSH1 0x20 MSTORE PUSH1 0x40 SWAP1 KECCAK256 PUSH2 0x2E8 DUP5 DUP7 DUP4 PUSH2 0x108F JUMP JUMPDEST POP PUSH1 0x40 MLOAD DUP2 SWAP1 PUSH1 0x1 PUSH1 0x1 PUSH1 0xA0 SHL SUB DUP8 AND SWAP1 PUSH0 SWAP1 PUSH32 0xDDF252AD1BE2C89B69C2B068FC378DAA952BA7F163C4A11628F55A4DF523B3EF SWAP1 DUP3 SWAP1 LOG4 SWAP5 SWAP4 POP POP POP POP JUMP JUMPDEST PUSH0 PUSH1 0x1 PUSH1 0x1 PUSH1 0xE0 SHL SUB NOT DUP3 AND PUSH4 0x80AC58CD PUSH1 0xE0 SHL EQ DUP1 PUSH2 0x358 JUMPI POP PUSH1 0x1 PUSH1 0x1 PUSH1 0xE0 SHL SUB NOT DUP3 AND PUSH4 0x5B5E139F PUSH1 0xE0 SHL EQ JUMPDEST DUP1 PUSH2 0x373 JUMPI POP PUSH4 0x1FFC9A7 PUSH1 0xE0 SHL PUSH1 0x1 PUSH1 0x1 PUSH1 0xE0 SHL SUB NOT DUP4 AND EQ JUMPDEST SWAP3 SWAP2 POP POP JUMP JUMPDEST PUSH1 0x60 PUSH1 0x2 DUP1 SLOAD PUSH2 0x388 SWAP1 PUSH2 0x1013 JUMP JUMPDEST DUP1 PUSH1 0x1F ADD PUSH1 0x20 DUP1 SWAP2 DIV MUL PUSH1 0x20 ADD PUSH1 0x40 MLOAD SWAP1 DUP2 ADD PUSH1 0x40 MSTORE DUP1 SWAP3 SWAP2 SWAP1 DUP2 DUP2 MSTORE PUSH1 0x20 ADD DUP3 DUP1 SLOAD PUSH2 0x3B4 SWAP1 PUSH2 0x1013 JUMP JUMPDEST DUP1 ISZERO PUSH2 0x3FF JUMPI DUP1 PUSH1 0x1F LT PUSH2 0x3D6 JUMPI PUSH2 0x100 DUP1 DUP4 SLOAD DIV MUL DUP4 MSTORE SWAP2 PUSH1 0x20 ADD SWAP2 PUSH2 0x3FF JUMP JUMPDEST DUP3 ADD SWAP2 SWAP1 PUSH0 MSTORE PUSH1 0x20 PUSH0 KECCAK256 SWAP1 JUMPDEST DUP2 SLOAD DUP2 MSTORE SWAP1 PUSH1 0x1 ADD SWAP1 PUSH1 0x20 ADD DUP1 DUP4 GT PUSH2 0x3E2 JUMPI DUP3 SWAP1 SUB PUSH1 0x1F AND DUP3 ADD SWAP2 JUMPDEST POP POP POP POP POP SWAP1 POP SWAP1 JUMP JUMPDEST PUSH0 PUSH2 0x413 DUP3 PUSH2 0x886 JUMP JUMPDEST PUSH2 0x430 JUMPI PUSH1 0x40 MLOAD PUSH4 0x33D1C039 PUSH1 0xE2 SHL DUP2 MSTORE PUSH1 0x4 ADD PUSH1 0x40 MLOAD DUP1 SWAP2 SUB SWAP1 REVERT JUMPDEST POP PUSH0 SWAP1 DUP2 MSTORE PUSH1 0x6 PUSH1 0x20 MSTORE PUSH1 0x40 SWAP1 KECCAK256 SLOAD PUSH1 0x1 PUSH1 0x1 PUSH1 0xA0 SHL SUB AND SWAP1 JUMP JUMPDEST PUSH0 PUSH2 0x455 DUP3 PUSH2 0x4F5 JUMP JUMPDEST SWAP1 POP DUP1 PUSH1 0x1 PUSH1 0x1 PUSH1 0xA0 SHL SUB AND DUP4 PUSH1 0x1 PUSH1 0x1 PUSH1 0xA0 SHL SUB AND SUB PUSH2 0x489 JUMPI PUSH1 0x40 MLOAD PUSH4 0x250FDEE3 PUSH1 0xE2 SHL DUP2 MSTORE PUSH1 0x4 ADD PUSH1 0x40 MLOAD DUP1 SWAP2 SUB SWAP1 REVERT JUMPDEST CALLER PUSH1 0x1 PUSH1 0x1 PUSH1 0xA0 SHL SUB DUP3 AND EQ PUSH2 0x4C0 JUMPI PUSH2 0x4A3 DUP2 CALLER PUSH2 0x23A JUMP JUMPDEST PUSH2 0x4C0 JUMPI PUSH1 0x40 MLOAD PUSH4 0x67D9DCA1 PUSH1 0xE1 SHL DUP2 MSTORE PUSH1 0x4 ADD PUSH1 0x40 MLOAD DUP1 SWAP2 SUB SWAP1 REVERT JUMPDEST PUSH2 0x4CB DUP4 DUP4 DUP4 PUSH2 0x8BC JUMP JUMPDEST POP POP POP JUMP JUMPDEST PUSH2 0x4CB DUP4 DUP4 DUP4 PUSH2 0x92F JUMP JUMPDEST PUSH2 0x4CB DUP4 DUP4 DUP4 PUSH1 0x40 MLOAD DUP1 PUSH1 0x20 ADD PUSH1 0x40 MSTORE DUP1 PUSH0 DUP2 MSTORE POP PUSH2 0x5F6 JUMP JUMPDEST PUSH0 PUSH2 0x4FF DUP3 PUSH2 0xB18 JUMP JUMPDEST MLOAD SWAP3 SWAP2 POP POP JUMP JUMPDEST PUSH0 PUSH1 0x1 PUSH1 0x1 PUSH1 0xA0 SHL SUB DUP3 AND PUSH2 0x52E JUMPI PUSH1 0x40 MLOAD PUSH4 0x23D3AD81 PUSH1 0xE2 SHL DUP2 MSTORE PUSH1 0x4 ADD PUSH1 0x40 MLOAD DUP1 SWAP2 SUB SWAP1 REVERT JUMPDEST POP PUSH1 0x1 PUSH1 0x1 PUSH1 0xA0 SHL SUB AND PUSH0 SWAP1 DUP2 MSTORE PUSH1 0x5 PUSH1 0x20 MSTORE PUSH1 0x40 SWAP1 KECCAK256 SLOAD PUSH8 0xFFFFFFFFFFFFFFFF AND SWAP1 JUMP JUMPDEST PUSH1 0x60 PUSH1 0x3 DUP1 SLOAD PUSH2 0x388 SWAP1 PUSH2 0x1013 JUMP JUMPDEST CALLER PUSH1 0x1 PUSH1 0x1 PUSH1 0xA0 SHL SUB DUP4 AND SUB PUSH2 0x58B JUMPI PUSH1 0x40 MLOAD PUSH4 0xB06307DB PUSH1 0xE0 SHL DUP2 MSTORE PUSH1 0x4 ADD PUSH1 0x40 MLOAD DUP1 SWAP2 SUB SWAP1 REVERT JUMPDEST CALLER PUSH0 DUP2 DUP2 MSTORE PUSH1 0x7 PUSH1 0x20 SWAP1 DUP2 MSTORE PUSH1 0x40 DUP1 DUP4 KECCAK256 PUSH1 0x1 PUSH1 0x1 PUSH1 0xA0 SHL SUB DUP8 AND DUP1 DUP6 MSTORE SWAP1 DUP4 MSTORE SWAP3 DUP2 SWAP1 KECCAK256 DUP1 SLOAD PUSH1 0xFF NOT AND DUP7 ISZERO ISZERO SWAP1 DUP2 OR SWAP1 SWAP2 SSTORE SWAP1 MLOAD SWAP1 DUP2 MSTORE SWAP2 SWAP3 SWAP2 PUSH32 0x17307EAB39AB6107E8899845AD3D59BD9653F200F220920489CA2B5937696C31 SWAP2 ADD PUSH1 0x40 MLOAD DUP1 SWAP2 SUB SWAP1 LOG3 POP POP JUMP JUMPDEST PUSH2 0x601 DUP5 DUP5 DUP5 PUSH2 0x92F JUMP JUMPDEST PUSH1 0x1 PUSH1 0x1 PUSH1 0xA0 SHL SUB DUP4 AND EXTCODESIZE ISZERO PUSH2 0x63A JUMPI PUSH2 0x61D DUP5 DUP5 DUP5 DUP5 PUSH2 0xC37 JUMP JUMPDEST PUSH2 0x63A JUMPI PUSH1 0x40 MLOAD PUSH4 0x68D2BF6B PUSH1 0xE1 SHL DUP2 MSTORE PUSH1 0x4 ADD PUSH1 0x40 MLOAD DUP1 SWAP2 SUB SWAP1 REVERT JUMPDEST POP POP POP POP JUMP JUMPDEST PUSH1 0x60 PUSH2 0x64B DUP3 PUSH2 0x886 JUMP JUMPDEST PUSH2 0x6BD JUMPI PUSH1 0x40 MLOAD PUSH3 0x461BCD PUSH1 0xE5 SHL DUP2 MSTORE PUSH1 0x20 PUSH1 0x4 DUP3 ADD MSTORE PUSH1 0x28 PUSH1 0x24 DUP3 ADD MSTORE PUSH32 0x455243373231413A2055524920717565727920666F72206E6F6E657869737465 PUSH1 0x44 DUP3 ADD MSTORE PUSH32 0x6E7420746F6B656E000000000000000000000000000000000000000000000000 PUSH1 0x64 DUP3 ADD MSTORE PUSH1 0x84 ADD PUSH2 0x2BA JUMP JUMPDEST PUSH0 DUP3 DUP2 MSTORE PUSH1 0x8 PUSH1 0x20 MSTORE PUSH1 0x40 SWAP1 KECCAK256 DUP1 SLOAD PUSH2 0x6D5 SWAP1 PUSH2 0x1013 JUMP JUMPDEST DUP1 PUSH1 0x1F ADD PUSH1 0x20 DUP1 SWAP2 DIV MUL PUSH1 0x20 ADD PUSH1 0x40 MLOAD SWAP1 DUP2 ADD PUSH1 0x40 MSTORE DUP1 SWAP3 SWAP2 SWAP1 DUP2 DUP2 MSTORE PUSH1 0x20 ADD DUP3 DUP1 SLOAD PUSH2 0x701 SWAP1 PUSH2 0x1013 JUMP JUMPDEST DUP1 ISZERO PUSH2 0x74C JUMPI DUP1 PUSH1 0x1F LT PUSH2 0x723 JUMPI PUSH2 0x100 DUP1 DUP4 SLOAD DIV MUL DUP4 MSTORE SWAP2 PUSH1 0x20 ADD SWAP2 PUSH2 0x74C JUMP JUMPDEST DUP3 ADD SWAP2 SWAP1 PUSH0 MSTORE PUSH1 0x20 PUSH0 KECCAK256 SWAP1 JUMPDEST DUP2 SLOAD DUP2 MSTORE SWAP1 PUSH1 0x1 ADD SWAP1 PUSH1 0x20 ADD DUP1 DUP4 GT PUSH2 0x72F JUMPI DUP3 SWAP1 SUB PUSH1 0x1F AND DUP3 ADD SWAP2 JUMPDEST POP POP POP POP POP SWAP1 POP SWAP2 SWAP1 POP JUMP JUMPDEST PUSH0 SLOAD PUSH1 0x1 PUSH1 0x1 PUSH1 0xA0 SHL SUB DUP4 AND PUSH2 0x780 JUMPI PUSH1 0x40 MLOAD PUSH3 0x2E0763 PUSH1 0xE8 SHL DUP2 MSTORE PUSH1 0x4 ADD PUSH1 0x40 MLOAD DUP1 SWAP2 SUB SWAP1 REVERT JUMPDEST DUP2 PUSH0 SUB PUSH2 0x7A0 JUMPI PUSH1 0x40 MLOAD PUSH4 0xB562E8DD PUSH1 0xE0 SHL DUP2 MSTORE PUSH1 0x4 ADD PUSH1 0x40 MLOAD DUP1 SWAP2 SUB SWAP1 REVERT JUMPDEST PUSH1 0x1 PUSH1 0x1 PUSH1 0xA0 SHL SUB DUP4 AND PUSH0 DUP2 DUP2 MSTORE PUSH1 0x5 PUSH1 0x20 SWAP1 DUP2 MSTORE PUSH1 0x40 DUP1 DUP4 KECCAK256 DUP1 SLOAD PUSH16 0xFFFFFFFFFFFFFFFFFFFFFFFFFFFFFFFF NOT DUP2 AND PUSH8 0xFFFFFFFFFFFFFFFF DUP1 DUP4 AND DUP11 ADD DUP2 AND SWAP2 DUP3 OR PUSH9 0x10000000000000000 PUSH8 0xFFFFFFFFFFFFFFFF NOT SWAP1 SWAP5 AND SWAP1 SWAP3 OR DUP4 SWAP1 DIV DUP2 AND DUP11 ADD DUP2 AND SWAP1 SWAP3 MUL OR SWAP1 SWAP2 SSTORE DUP6 DUP5 MSTORE PUSH1 0x4 SWAP1 SWAP3 MSTORE SWAP1 SWAP2 KECCAK256 DUP1 SLOAD PUSH1 0x1 PUSH1 0x1 PUSH1 0xE0 SHL SUB NOT AND SWAP1 SWAP3 OR PUSH1 0x1 PUSH1 0xA0 SHL TIMESTAMP SWAP1 SWAP3 AND SWAP2 SWAP1 SWAP2 MUL OR SWAP1 SSTORE DUP1 DUP1 DUP4 ADD JUMPDEST PUSH1 0x40 MLOAD PUSH1 0x1 DUP4 ADD SWAP3 SWAP1 PUSH1 0x1 PUSH1 0x1 PUSH1 0xA0 SHL SUB DUP8 AND SWAP1 PUSH0 SWAP1 PUSH32 0xDDF252AD1BE2C89B69C2B068FC378DAA952BA7F163C4A11628F55A4DF523B3EF SWAP1 DUP3 SWAP1 LOG4 DUP1 DUP3 LT PUSH2 0x83C JUMPI POP PUSH0 SSTORE POP POP POP JUMP JUMPDEST PUSH0 DUP2 PUSH1 0x1 GT ISZERO DUP1 ISZERO PUSH2 0x898 JUMPI POP PUSH0 SLOAD DUP3 LT JUMPDEST DUP1 ISZERO PUSH2 0x373 JUMPI POP POP PUSH0 SWAP1 DUP2 MSTORE PUSH1 0x4 PUSH1 0x20 MSTORE PUSH1 0x40 SWAP1 KECCAK256 SLOAD PUSH1 0x1 PUSH1 0xE0 SHL SWAP1 DIV PUSH1 0xFF AND ISZERO SWAP1 JUMP JUMPDEST PUSH0 DUP3 DUP2 MSTORE PUSH1 0x6 PUSH1 0x20 MSTORE PUSH1 0x40 DUP1 DUP3 KECCAK256 DUP1 SLOAD PUSH32 0xFFFFFFFFFFFFFFFFFFFFFFFF0000000000000000000000000000000000000000 AND PUSH1 0x1 PUSH1 0x1 PUSH1 0xA0 SHL SUB DUP8 DUP2 AND SWAP2 DUP3 OR SWAP1 SWAP3 SSTORE SWAP2 MLOAD DUP6 SWAP4 SWAP2 DUP6 AND SWAP2 PUSH32 0x8C5BE1E5EBEC7D5BD14F71427D1E84F3DD0314C0F7B2291E5B200AC8C7C3B925 SWAP2 LOG4 POP POP POP JUMP JUMPDEST PUSH0 PUSH2 0x939 DUP3 PUSH2 0xB18 JUMP JUMPDEST SWAP1 POP DUP4 PUSH1 0x1 PUSH1 0x1 PUSH1 0xA0 SHL SUB AND DUP2 PUSH0 ADD MLOAD PUSH1 0x1 PUSH1 0x1 PUSH1 0xA0 SHL SUB AND EQ PUSH2 0x96F JUMPI PUSH1 0x40 MLOAD PUSH3 0xA11481 PUSH1 0xE8 SHL DUP2 MSTORE PUSH1 0x4 ADD PUSH1 0x40 MLOAD DUP1 SWAP2 SUB SWAP1 REVERT JUMPDEST PUSH0 CALLER PUSH1 0x1 PUSH1 0x1 PUSH1 0xA0 SHL SUB DUP7 AND EQ DUP1 PUSH2 0x98C JUMPI POP PUSH2 0x98C DUP6 CALLER PUSH2 0x23A JUMP JUMPDEST DUP1 PUSH2 0x9A7 JUMPI POP CALLER PUSH2 0x99C DUP5 PUSH2 0x409 JUMP JUMPDEST PUSH1 0x1 PUSH1 0x1 PUSH1 0xA0 SHL SUB AND EQ JUMPDEST SWAP1 POP DUP1 PUSH2 0x9C7 JUMPI PUSH1 0x40 MLOAD PUSH4 0x2CE44B5F PUSH1 0xE1 SHL DUP2 MSTORE PUSH1 0x4 ADD PUSH1 0x40 MLOAD DUP1 SWAP2 SUB SWAP1 REVERT JUMPDEST PUSH1 0x1 PUSH1 0x1 PUSH1 0xA0 SHL SUB DUP5 AND PUSH2 0x9EE JUMPI PUSH1 0x40 MLOAD PUSH4 0x3A954ECD PUSH1 0xE2 SHL DUP2 MSTORE PUSH1 0x4 ADD PUSH1 0x40 MLOAD DUP1 SWAP2 SUB SWAP1 REVERT JUMPDEST PUSH2 0x9F9 PUSH0 DUP5 DUP8 PUSH2 0x8BC JUMP JUMPDEST PUSH1 0x1 PUSH1 0x1 PUSH1 0xA0 SHL SUB DUP6 DUP2 AND PUSH0 SWAP1 DUP2 MSTORE PUSH1 0x5 PUSH1 0x20 SWAP1 DUP2 MSTORE PUSH1 0x40 DUP1 DUP4 KECCAK256 DUP1 SLOAD PUSH8 0xFFFFFFFFFFFFFFFF NOT DUP1 DUP3 AND PUSH8 0xFFFFFFFFFFFFFFFF SWAP3 DUP4 AND PUSH0 NOT ADD DUP4 AND OR SWAP1 SWAP3 SSTORE DUP10 DUP7 AND DUP1 DUP7 MSTORE DUP4 DUP7 KECCAK256 DUP1 SLOAD SWAP4 DUP5 AND SWAP4 DUP4 AND PUSH1 0x1 SWAP1 DUP2 ADD DUP5 AND SWAP5 SWAP1 SWAP5 OR SWAP1 SSTORE DUP10 DUP7 MSTORE PUSH1 0x4 SWAP1 SWAP5 MSTORE DUP3 DUP6 KECCAK256 DUP1 SLOAD PUSH1 0x1 PUSH1 0x1 PUSH1 0xE0 SHL SUB NOT AND SWAP1 SWAP5 OR PUSH1 0x1 PUSH1 0xA0 SHL TIMESTAMP SWAP1 SWAP3 AND SWAP2 SWAP1 SWAP2 MUL OR DUP4 SSTORE DUP8 ADD DUP1 DUP5 MSTORE SWAP3 KECCAK256 DUP1 SLOAD SWAP2 SWAP4 SWAP1 SWAP2 AND PUSH2 0xACC JUMPI PUSH0 SLOAD DUP3 EQ PUSH2 0xACC JUMPI DUP1 SLOAD PUSH1 0x20 DUP7 ADD MLOAD PUSH8 0xFFFFFFFFFFFFFFFF AND PUSH1 0x1 PUSH1 0xA0 SHL MUL PUSH1 0x1 PUSH1 0x1 PUSH1 0xE0 SHL SUB NOT SWAP1 SWAP2 AND PUSH1 0x1 PUSH1 0x1 PUSH1 0xA0 SHL SUB DUP11 AND OR OR DUP2 SSTORE JUMPDEST POP POP POP DUP3 DUP5 PUSH1 0x1 PUSH1 0x1 PUSH1 0xA0 SHL SUB AND DUP7 PUSH1 0x1 PUSH1 0x1 PUSH1 0xA0 SHL SUB AND PUSH32 0xDDF252AD1BE2C89B69C2B068FC378DAA952BA7F163C4A11628F55A4DF523B3EF PUSH1 0x40 MLOAD PUSH1 0x40 MLOAD DUP1 SWAP2 SUB SWAP1 LOG4 JUMPDEST POP POP POP POP POP JUMP JUMPDEST PUSH1 0x40 DUP1 MLOAD PUSH1 0x60 DUP2 ADD DUP3 MSTORE PUSH0 DUP1 DUP3 MSTORE PUSH1 0x20 DUP3 ADD DUP2 SWAP1 MSTORE SWAP2 DUP2 ADD SWAP2 SWAP1 SWAP2 MSTORE DUP2 DUP1 PUSH1 0x1 GT PUSH2 0xC1E JUMPI PUSH0 SLOAD DUP2 LT ISZERO PUSH2 0xC1E JUMPI PUSH0 DUP2 DUP2 MSTORE PUSH1 0x4 PUSH1 0x20 SWAP1 DUP2 MSTORE PUSH1 0x40 SWAP2 DUP3 SWAP1 KECCAK256 DUP3 MLOAD PUSH1 0x60 DUP2 ADD DUP5 MSTORE SWAP1 SLOAD PUSH1 0x1 PUSH1 0x1 PUSH1 0xA0 SHL SUB DUP2 AND DUP3 MSTORE PUSH1 0x1 PUSH1 0xA0 SHL DUP2 DIV PUSH8 0xFFFFFFFFFFFFFFFF AND SWAP3 DUP3 ADD SWAP3 SWAP1 SWAP3 MSTORE PUSH1 0x1 PUSH1 0xE0 SHL SWAP1 SWAP2 DIV PUSH1 0xFF AND ISZERO ISZERO SWAP2 DUP2 ADD DUP3 SWAP1 MSTORE SWAP1 PUSH2 0xC1C JUMPI DUP1 MLOAD PUSH1 0x1 PUSH1 0x1 PUSH1 0xA0 SHL SUB AND ISZERO PUSH2 0xBB4 JUMPI SWAP4 SWAP3 POP POP POP JUMP JUMPDEST POP PUSH0 NOT ADD PUSH0 DUP2 DUP2 MSTORE PUSH1 0x4 PUSH1 0x20 SWAP1 DUP2 MSTORE PUSH1 0x40 SWAP2 DUP3 SWAP1 KECCAK256 DUP3 MLOAD PUSH1 0x60 DUP2 ADD DUP5 MSTORE SWAP1 SLOAD PUSH1 0x1 PUSH1 0x1 PUSH1 0xA0 SHL SUB DUP2 AND DUP1 DUP4 MSTORE PUSH1 0x1 PUSH1 0xA0 SHL DUP3 DIV PUSH8 0xFFFFFFFFFFFFFFFF AND SWAP4 DUP4 ADD SWAP4 SWAP1 SWAP4 MSTORE PUSH1 0x1 PUSH1 0xE0 SHL SWAP1 DIV PUSH1 0xFF AND ISZERO ISZERO SWAP3 DUP2 ADD SWAP3 SWAP1 SWAP3 MSTORE ISZERO PUSH2 0xC17 JUMPI SWAP4 SWAP3 POP POP POP JUMP JUMPDEST PUSH2 0xBB4 JUMP JUMPDEST POP JUMPDEST PUSH1 0x40 MLOAD PUSH4 0x6F96CDA1 PUSH1 0xE1 SHL DUP2 MSTORE PUSH1 0x4 ADD PUSH1 0x40 MLOAD DUP1 SWAP2 SUB SWAP1 REVERT JUMPDEST PUSH1 0x40 MLOAD PUSH4 0xA85BD01 PUSH1 0xE1 SHL DUP2 MSTORE PUSH0 SWAP1 PUSH1 0x1 PUSH1 0x1 PUSH1 0xA0 SHL SUB DUP6 AND SWAP1 PUSH4 0x150B7A02 SWAP1 PUSH2 0xC6B SWAP1 CALLER SWAP1 DUP10 SWAP1 DUP9 SWAP1 DUP9 SWAP1 PUSH1 0x4 ADD PUSH2 0x1149 JUMP JUMPDEST PUSH1 0x20 PUSH1 0x40 MLOAD DUP1 DUP4 SUB DUP2 PUSH0 DUP8 GAS CALL SWAP3 POP POP POP DUP1 ISZERO PUSH2 0xCA5 JUMPI POP PUSH1 0x40 DUP1 MLOAD PUSH1 0x1F RETURNDATASIZE SWAP1 DUP2 ADD PUSH1 0x1F NOT AND DUP3 ADD SWAP1 SWAP3 MSTORE PUSH2 0xCA2 SWAP2 DUP2 ADD SWAP1 PUSH2 0x1184 JUMP JUMPDEST PUSH1 0x1 JUMPDEST PUSH2 0xD01 JUMPI RETURNDATASIZE DUP1 DUP1 ISZERO PUSH2 0xCD2 JUMPI PUSH1 0x40 MLOAD SWAP2 POP PUSH1 0x1F NOT PUSH1 0x3F RETURNDATASIZE ADD AND DUP3 ADD PUSH1 0x40 MSTORE RETURNDATASIZE DUP3 MSTORE RETURNDATASIZE PUSH0 PUSH1 0x20 DUP5 ADD RETURNDATACOPY PUSH2 0xCD7 JUMP JUMPDEST PUSH1 0x60 SWAP2 POP JUMPDEST POP DUP1 MLOAD PUSH0 SUB PUSH2 0xCF9 JUMPI PUSH1 0x40 MLOAD PUSH4 0x68D2BF6B PUSH1 0xE1 SHL DUP2 MSTORE PUSH1 0x4 ADD PUSH1 0x40 MLOAD DUP1 SWAP2 SUB SWAP1 REVERT JUMPDEST DUP1 MLOAD DUP2 PUSH1 0x20 ADD REVERT JUMPDEST PUSH1 0x1 PUSH1 0x1 PUSH1 0xE0 SHL SUB NOT AND PUSH4 0xA85BD01 PUSH1 0xE1 SHL EQ SWAP1 POP SWAP5 SWAP4 POP POP POP POP JUMP JUMPDEST DUP1 CALLDATALOAD PUSH1 0x1 PUSH1 0x1 PUSH1 0xA0 SHL SUB DUP2 AND DUP2 EQ PUSH2 0xD34 JUMPI PUSH0 DUP1 REVERT JUMPDEST SWAP2 SWAP1 POP JUMP JUMPDEST PUSH0 DUP1 PUSH0 PUSH1 0x40 DUP5 DUP7 SUB SLT ISZERO PUSH2 0xD4B JUMPI PUSH0 DUP1 REVERT JUMPDEST PUSH2 0xD54 DUP5 PUSH2 0xD1E JUMP JUMPDEST SWAP3 POP PUSH1 0x20 DUP5 ADD CALLDATALOAD PUSH8 0xFFFFFFFFFFFFFFFF DUP1 DUP3 GT ISZERO PUSH2 0xD70 JUMPI PUSH0 DUP1 REVERT JUMPDEST DUP2 DUP7 ADD SWAP2 POP DUP7 PUSH1 0x1F DUP4 ADD SLT PUSH2 0xD83 JUMPI PUSH0 DUP1 REVERT JUMPDEST DUP2 CALLDATALOAD DUP2 DUP2 GT ISZERO PUSH2 0xD91 JUMPI PUSH0 DUP1 REVERT JUMPDEST DUP8 PUSH1 0x20 DUP3 DUP6 ADD ADD GT ISZERO PUSH2 0xDA2 JUMPI PUSH0 DUP1 REVERT JUMPDEST PUSH1 0x20 DUP4 ADD SWAP5 POP DUP1 SWAP4 POP POP POP POP SWAP3 POP SWAP3 POP SWAP3 JUMP JUMPDEST PUSH1 0x1 PUSH1 0x1 PUSH1 0xE0 SHL SUB NOT DUP2 AND DUP2 EQ PUSH2 0xDCA JUMPI PUSH0 DUP1 REVERT JUMPDEST POP JUMP JUMPDEST PUSH0 PUSH1 0x20 DUP3 DUP5 SUB SLT ISZERO PUSH2 0xDDD JUMPI PUSH0 DUP1 REVERT JUMPDEST DUP2 CALLDATALOAD PUSH2 0xDE8 DUP2 PUSH2 0xDB5 JUMP JUMPDEST SWAP4 SWAP3 POP POP POP JUMP JUMPDEST PUSH0 DUP2 MLOAD DUP1 DUP5 MSTORE DUP1 PUSH1 0x20 DUP5 ADD PUSH1 0x20 DUP7 ADD MCOPY PUSH0 PUSH1 0x20 DUP3 DUP7 ADD ADD MSTORE PUSH1 0x20 PUSH1 0x1F NOT PUSH1 0x1F DUP4 ADD AND DUP6 ADD ADD SWAP2 POP POP SWAP3 SWAP2 POP POP JUMP JUMPDEST PUSH1 0x20 DUP2 MSTORE PUSH0 PUSH2 0xDE8 PUSH1 0x20 DUP4 ADD DUP5 PUSH2 0xDEF JUMP JUMPDEST PUSH0 PUSH1 0x20 DUP3 DUP5 SUB SLT ISZERO PUSH2 0xE3F JUMPI PUSH0 DUP1 REVERT JUMPDEST POP CALLDATALOAD SWAP2 SWAP1 POP JUMP JUMPDEST PUSH0 DUP1 PUSH1 0x40 DUP4 DUP6 SUB SLT ISZERO PUSH2 0xE57 JUMPI PUSH0 DUP1 REVERT JUMPDEST PUSH2 0xE60 DUP4 PUSH2 0xD1E JUMP JUMPDEST SWAP5 PUSH1 0x20 SWAP4 SWAP1 SWAP4 ADD CALLDATALOAD SWAP4 POP POP POP JUMP JUMPDEST PUSH0 DUP1 PUSH0 PUSH1 0x60 DUP5 DUP7 SUB SLT ISZERO PUSH2 0xE80 JUMPI PUSH0 DUP1 REVERT JUMPDEST PUSH2 0xE89 DUP5 PUSH2 0xD1E JUMP JUMPDEST SWAP3 POP PUSH2 0xE97 PUSH1 0x20 DUP6 ADD PUSH2 0xD1E JUMP JUMPDEST SWAP2 POP PUSH1 0x40 DUP5 ADD CALLDATALOAD SWAP1 POP SWAP3 POP SWAP3 POP SWAP3 JUMP JUMPDEST PUSH0 PUSH1 0x20 DUP3 DUP5 SUB SLT ISZERO PUSH2 0xEB7 JUMPI PUSH0 DUP1 REVERT JUMPDEST PUSH2 0xDE8 DUP3 PUSH2 0xD1E JUMP JUMPDEST PUSH0 DUP1 PUSH1 0x40 DUP4 DUP6 SUB SLT ISZERO PUSH2 0xED1 JUMPI PUSH0 DUP1 REVERT JUMPDEST PUSH2 0xEDA DUP4 PUSH2 0xD1E JUMP JUMPDEST SWAP2 POP PUSH1 0x20 DUP4 ADD CALLDATALOAD DUP1 ISZERO ISZERO DUP2 EQ PUSH2 0xEEE JUMPI PUSH0 DUP1 REVERT JUMPDEST DUP1 SWAP2 POP POP SWAP3 POP SWAP3 SWAP1 POP JUMP JUMPDEST PUSH4 0x4E487B71 PUSH1 0xE0 SHL PUSH0 MSTORE PUSH1 0x41 PUSH1 0x4 MSTORE PUSH1 0x24 PUSH0 REVERT JUMPDEST PUSH0 DUP1 PUSH0 DUP1 PUSH1 0x80 DUP6 DUP8 SUB SLT ISZERO PUSH2 0xF20 JUMPI PUSH0 DUP1 REVERT JUMPDEST PUSH2 0xF29 DUP6 PUSH2 0xD1E JUMP JUMPDEST SWAP4 POP PUSH2 0xF37 PUSH1 0x20 DUP7 ADD PUSH2 0xD1E JUMP JUMPDEST SWAP3 POP PUSH1 0x40 DUP6 ADD CALLDATALOAD SWAP2 POP PUSH1 0x60 DUP6 ADD CALLDATALOAD PUSH8 0xFFFFFFFFFFFFFFFF DUP1 DUP3 GT ISZERO PUSH2 0xF5A JUMPI PUSH0 DUP1 REVERT JUMPDEST DUP2 DUP8 ADD SWAP2 POP DUP8 PUSH1 0x1F DUP4 ADD SLT PUSH2 0xF6D JUMPI PUSH0 DUP1 REVERT JUMPDEST DUP2 CALLDATALOAD DUP2 DUP2 GT ISZERO PUSH2 0xF7F JUMPI PUSH2 0xF7F PUSH2 0xEF9 JUMP JUMPDEST PUSH1 0x40 MLOAD PUSH1 0x1F DUP3 ADD PUSH1 0x1F NOT SWAP1 DUP2 AND PUSH1 0x3F ADD AND DUP2 ADD SWAP1 DUP4 DUP3 GT DUP2 DUP4 LT OR ISZERO PUSH2 0xFA7 JUMPI PUSH2 0xFA7 PUSH2 0xEF9 JUMP JUMPDEST DUP2 PUSH1 0x40 MSTORE DUP3 DUP2 MSTORE DUP11 PUSH1 0x20 DUP5 DUP8 ADD ADD GT ISZERO PUSH2 0xFBF JUMPI PUSH0 DUP1 REVERT JUMPDEST DUP3 PUSH1 0x20 DUP7 ADD PUSH1 0x20 DUP4 ADD CALLDATACOPY PUSH0 PUSH1 0x20 DUP5 DUP4 ADD ADD MSTORE DUP1 SWAP6 POP POP POP POP POP POP SWAP3 SWAP6 SWAP2 SWAP5 POP SWAP3 POP JUMP JUMPDEST PUSH0 DUP1 PUSH1 0x40 DUP4 DUP6 SUB SLT ISZERO PUSH2 0xFF3 JUMPI PUSH0 DUP1 REVERT JUMPDEST PUSH2 0xFFC DUP4 PUSH2 0xD1E JUMP JUMPDEST SWAP2 POP PUSH2 0x100A PUSH1 0x20 DUP5 ADD PUSH2 0xD1E JUMP JUMPDEST SWAP1 POP SWAP3 POP SWAP3 SWAP1 POP JUMP JUMPDEST PUSH1 0x1 DUP2 DUP2 SHR SWAP1 DUP3 AND DUP1 PUSH2 0x1027 JUMPI PUSH1 0x7F DUP3 AND SWAP2 POP JUMPDEST PUSH1 0x20 DUP3 LT DUP2 SUB PUSH2 0x1045 JUMPI PUSH4 0x4E487B71 PUSH1 0xE0 SHL PUSH0 MSTORE PUSH1 0x22 PUSH1 0x4 MSTORE PUSH1 0x24 PUSH0 REVERT JUMPDEST POP SWAP2 SWAP1 POP JUMP JUMPDEST PUSH1 0x1F DUP3 GT ISZERO PUSH2 0x4CB JUMPI DUP1 PUSH0 MSTORE PUSH1 0x20 PUSH0 KECCAK256 PUSH1 0x1F DUP5 ADD PUSH1 0x5 SHR DUP2 ADD PUSH1 0x20 DUP6 LT ISZERO PUSH2 0x1070 JUMPI POP DUP1 JUMPDEST PUSH1 0x1F DUP5 ADD PUSH1 0x5 SHR DUP3 ADD SWAP2 POP JUMPDEST DUP2 DUP2 LT ISZERO PUSH2 0xB11 JUMPI PUSH0 DUP2 SSTORE PUSH1 0x1 ADD PUSH2 0x107C JUMP JUMPDEST PUSH8 0xFFFFFFFFFFFFFFFF DUP4 GT ISZERO PUSH2 0x10A7 JUMPI PUSH2 0x10A7 PUSH2 0xEF9 JUMP JUMPDEST PUSH2 0x10BB DUP4 PUSH2 0x10B5 DUP4 SLOAD PUSH2 0x1013 JUMP JUMPDEST DUP4 PUSH2 0x104B JUMP JUMPDEST PUSH0 PUSH1 0x1F DUP5 GT PUSH1 0x1 DUP2 EQ PUSH2 0x10EC JUMPI PUSH0 DUP6 ISZERO PUSH2 0x10D5 JUMPI POP DUP4 DUP3 ADD CALLDATALOAD JUMPDEST PUSH0 NOT PUSH1 0x3 DUP8 SWAP1 SHL SHR NOT AND PUSH1 0x1 DUP7 SWAP1 SHL OR DUP4 SSTORE PUSH2 0xB11 JUMP JUMPDEST PUSH0 DUP4 DUP2 MSTORE PUSH1 0x20 DUP2 KECCAK256 PUSH1 0x1F NOT DUP8 AND SWAP2 JUMPDEST DUP3 DUP2 LT ISZERO PUSH2 0x111B JUMPI DUP7 DUP6 ADD CALLDATALOAD DUP3 SSTORE PUSH1 0x20 SWAP5 DUP6 ADD SWAP5 PUSH1 0x1 SWAP1 SWAP3 ADD SWAP2 ADD PUSH2 0x10FB JUMP JUMPDEST POP DUP7 DUP3 LT ISZERO PUSH2 0x1137 JUMPI PUSH0 NOT PUSH1 0xF8 DUP9 PUSH1 0x3 SHL AND SHR NOT DUP5 DUP8 ADD CALLDATALOAD AND DUP2 SSTORE JUMPDEST POP POP PUSH1 0x1 DUP6 PUSH1 0x1 SHL ADD DUP4 SSTORE POP POP POP POP POP JUMP JUMPDEST PUSH0 PUSH1 0x1 PUSH1 0x1 PUSH1 0xA0 SHL SUB DUP1 DUP8 AND DUP4 MSTORE DUP1 DUP7 AND PUSH1 0x20 DUP5 ADD MSTORE POP DUP4 PUSH1 0x40 DUP4 ADD MSTORE PUSH1 0x80 PUSH1 0x60 DUP4 ADD MSTORE PUSH2 0x117A PUSH1 0x80 DUP4 ADD DUP5 PUSH2 0xDEF JUMP JUMPDEST SWAP7 SWAP6 POP POP POP POP POP POP JUMP JUMPDEST PUSH0 PUSH1 0x20 DUP3 DUP5 SUB SLT ISZERO PUSH2 0x1194 JUMPI PUSH0 DUP1 REVERT JUMPDEST DUP2 MLOAD PUSH2 0xDE8 DUP2 PUSH2 0xDB5 JUMP INVALID LOG2 PUSH5 0x6970667358 0x22 SLT KECCAK256 0xD9 0x2D DUP15 0xE1 JUMP 0xAB DUP12 PUSH18 0x4DAF5F0DCA6C45F8F1A7FB63947F34DC86BC 0x2A PUSH19 0x1380492D64736F6C6343000819003300000000 "
    },
    "gasEstimates": {
      "creation": {
        "codeDepositCost": "913000",
        "executionCost": "infinite",
        "totalCost": "infinite"
      },
      "external": {
        "approve(address,uint256)": "infinite",
        "balanceOf(address)": "2647",
        "getApproved(uint256)": "6918",
        "isApprovedForAll(address,address)": "infinite",
        "mintTo(address,string)": "infinite",
        "name()": "infinite",
        "ownerOf(uint256)": "infinite",
        "safeTransferFrom(address,address,uint256)": "infinite",
        "safeTransferFrom(address,address,uint256,bytes)": "infinite",
        "setApprovalForAll(address,bool)": "26644",
        "supportsInterface(bytes4)": "564",
        "symbol()": "infinite",
        "tokenURI(uint256)": "infinite",
        "totalSupply()": "4460",
        "transferFrom(address,address,uint256)": "infinite"
      },
      "internal": {
        "_startTokenId()": "infinite"
      }
    },
    "methodIdentifiers": {
      "approve(address,uint256)": "095ea7b3",
      "balanceOf(address)": "70a08231",
      "getApproved(uint256)": "081812fc",
      "isApprovedForAll(address,address)": "e985e9c5",
      "mintTo(address,string)": "0075a317",
      "name()": "06fdde03",
      "ownerOf(uint256)": "6352211e",
      "safeTransferFrom(address,address,uint256)": "42842e0e",
      "safeTransferFrom(address,address,uint256,bytes)": "b88d4fde",
      "setApprovalForAll(address,bool)": "a22cb465",
      "supportsInterface(bytes4)": "01ffc9a7",
      "symbol()": "95d89b41",
      "tokenURI(uint256)": "c87b56dd",
      "totalSupply()": "18160ddd",
      "transferFrom(address,address,uint256)": "23b872dd"
    }
  },
  "storageLayout": {
    "storage": [
      {
        "astId": 124,
        "contract": "StoryNFT.sol:StoryNFT",
        "label": "_currentIndex",
        "offset": 0,
        "slot": "0",
        "type": "t_uint256"
      },
      {
        "astId": 126,
        "contract": "StoryNFT.sol:StoryNFT",
        "label": "_burnCounter",
        "offset": 0,
        "slot": "1",
        "type": "t_uint256"
      },
      {
        "astId": 128,
        "contract": "StoryNFT.sol:StoryNFT",
        "label": "_name",
        "offset": 0,
        "slot": "2",
        "type": "t_string_storage"
      },
      {
        "astId": 130,
        "contract": "StoryNFT.sol:StoryNFT",
        "label": "_symbol",
        "offset": 0,
        "slot": "3",
        "type": "t_string_storage"
      },
      {
        "astId": 135,
        "contract": "StoryNFT.sol:StoryNFT",
        "label": "_ownerships",
        "offset": 0,
        "slot": "4",
        "type": "t_mapping(t_uint256,t_struct(TokenOwnership)1636_storage)"
      },
      {
        "astId": 140,
        "contract": "StoryNFT.sol:StoryNFT",
        "label": "_addressData",
        "offset": 0,
        "slot": "5",
        "type": "t_mapping(t_address,t_struct(AddressData)1645_storage)"
      },
      {
        "astId": 144,
        "contract": "StoryNFT.sol:StoryNFT",
        "label": "_tokenApprovals",
        "offset": 0,
        "slot": "6",
        "type": "t_mapping(t_uint256,t_address)"
      },
      {
        "astId": 150,
        "contract": "StoryNFT.sol:StoryNFT",
        "label": "_operatorApprovals",
        "offset": 0,
        "slot": "7",
        "type": "t_mapping(t_address,t_mapping(t_address,t_bool))"
      },
      {
        "astId": 12,
        "contract": "StoryNFT.sol:StoryNFT",
        "label": "_tokenURIs",
        "offset": 0,
        "slot": "8",
        "type": "t_mapping(t_uint256,t_string_storage)"
      }
    ],
    "types": {
      "t_address": {
        "encoding": "inplace",
        "label": "address",
        "numberOfBytes": "20"
      },
      "t_bool": {
        "encoding": "inplace",
        "label": "bool",
        "numberOfBytes": "1"
      },
      "t_mapping(t_address,t_bool)": {
        "encoding": "mapping",
        "key": "t_address",
        "label": "mapping(address => bool)",
        "numberOfBytes": "32",
        "value": "t_bool"
      },
      "t_mapping(t_address,t_mapping(t_address,t_bool))": {
        "encoding": "mapping",
        "key": "t_address",
        "label": "mapping(address => mapping(address => bool))",
        "numberOfBytes": "32",
        "value": "t_mapping(t_address,t_bool)"
      },
      "t_mapping(t_address,t_struct(AddressData)1645_storage)": {
        "encoding": "mapping",
        "key": "t_address",
        "label": "mapping(address => struct IERC721A.AddressData)",
        "numberOfBytes": "32",
        "value": "t_struct(AddressData)1645_storage"
      },
      "t_mapping(t_uint256,t_address)": {
        "encoding": "mapping",
        "key": "t_uint256",
        "label": "mapping(uint256 => address)",
        "numberOfBytes": "32",
        "value": "t_address"
      },
      "t_mapping(t_uint256,t_string_storage)": {
        "encoding": "mapping",
        "key": "t_uint256",
        "label": "mapping(uint256 => string)",
        "numberOfBytes": "32",
        "value": "t_string_storage"
      },
      "t_mapping(t_uint256,t_struct(TokenOwnership)1636_storage)": {
        "encoding": "mapping",
        "key": "t_uint256",
        "label": "mapping(uint256 => struct IERC721A.TokenOwnership)",
        "numberOfBytes": "32",
        "value": "t_struct(TokenOwnership)1636_storage"
      },
      "t_string_storage": {
        "encoding": "bytes",
        "label": "string",
        "numberOfBytes": "32"
      },
      "t_struct(AddressData)1645_storage": {
        "encoding": "inplace",
        "label": "struct IERC721A.AddressData",
        "members": [
          {
            "astId": 1638,
            "contract": "StoryNFT.sol:StoryNFT",
            "label": "balance",
            "offset": 0,
            "slot": "0",
            "type": "t_uint64"
          },
          {
            "astId": 1640,
            "contract": "StoryNFT.sol:StoryNFT",
            "label": "numberMinted",
            "offset": 8,
            "slot": "0",
            "type": "t_uint64"
          },
          {
            "astId": 1642,
            "contract": "StoryNFT.sol:StoryNFT",
            "label": "numberBurned",
            "offset": 16,
            "slot": "0",
            "type": "t_uint64"
          },
          {
            "astId": 1644,
            "contract": "StoryNFT.sol:StoryNFT",
            "label": "aux",
            "offset": 24,
            "slot": "0",
            "type": "t_uint64"
          }
        ],
        "numberOfBytes": "32"
      },
      "t_struct(TokenOwnership)1636_storage": {
        "encoding": "inplace",
        "label": "struct IERC721A.TokenOwnership",
        "members": [
          {
            "astId": 1631,
            "contract": "StoryNFT.sol:StoryNFT",
            "label": "addr",
            "offset": 0,
            "slot": "0",
            "type": "t_address"
          },
          {
            "astId": 1633,
            "contract": "StoryNFT.sol:StoryNFT",
            "label": "startTimestamp",
            "offset": 20,
            "slot": "0",
            "type": "t_uint64"
          },
          {
            "astId": 1635,
            "contract": "StoryNFT.sol:StoryNFT",
            "label": "burned",
            "offset": 28,
            "slot": "0",
            "type": "t_bool"
          }
        ],
        "numberOfBytes": "32"
      },
      "t_uint256": {
        "encoding": "inplace",
        "label": "uint256",
        "numberOfBytes": "32"
      },
      "t_uint64": {
        "encoding": "inplace",
        "label": "uint64",
        "numberOfBytes": "8"
      }
    }
  },
  "userdoc": {
    "errors": {
      "ApprovalCallerNotOwnerNorApproved()": [
        {
          "notice": "The caller must own the token or be an approved operator."
        }
      ],
      "ApprovalQueryForNonexistentToken()": [
        {
          "notice": "The token does not exist."
        }
      ],
      "ApprovalToCurrentOwner()": [
        {
          "notice": "The caller cannot approve to the current owner."
        }
      ],
      "ApproveToCaller()": [
        {
          "notice": "The caller cannot approve to their own address."
        }
      ],
      "BalanceQueryForZeroAddress()": [
        {
          "notice": "Cannot query the balance for the zero address."
        }
      ],
      "MintToZeroAddress()": [
        {
          "notice": "Cannot mint to the zero address."
        }
      ],
      "MintZeroQuantity()": [
        {
          "notice": "The quantity of tokens minted must be more than zero."
        }
      ],
      "OwnerQueryForNonexistentToken()": [
        {
          "notice": "The token does not exist."
        }
      ],
      "TransferCallerNotOwnerNorApproved()": [
        {
          "notice": "The caller must own the token or be an approved operator."
        }
      ],
      "TransferFromIncorrectOwner()": [
        {
          "notice": "The token must be owned by `from`."
        }
      ],
      "TransferToNonERC721ReceiverImplementer()": [
        {
          "notice": "Cannot safely transfer to a contract that does not implement the ERC721Receiver interface."
        }
      ],
      "TransferToZeroAddress()": [
        {
          "notice": "Cannot transfer to the zero address."
        }
      ],
      "URIQueryForNonexistentToken()": [
        {
          "notice": "The token does not exist."
        }
      ]
    },
    "kind": "user",
    "methods": {
      "mintTo(address,string)": {
        "notice": "Lets an account mint an NFT."
      }
    },
    "version": 1
  }
}